:100000000C94AE000C94D6000C94D6000C945405BD
:100010000C9454050C9454050C94D6000C94D60002
:100020000C94D6000C94D6000C94D6000C94D600F8
:100030000C94D6000C94D6000C94D6000C94D600E8
:100040000C9403050C94D6000C9454040C942E04C8
:100050000C94D6000C94D6000C94D6000C94D600C8
:100060000C94D6000C94D600036EDB363D9A999919
:10007000993DABAAAA2A3E000000803F084AD73B20
:100080003BCE016E84BCBFFDC12F3D6C74319ABD67
:1000900056833DDA3D00C77F11BED9E4BB4C3E918B
:1000A0006BAAAABE000000803F072C7AA5BA6CC5D7
:1000B00090DA3B9365FC8BBC53F810FD3C56928361
:1000C0004DBD879D3AB63DCBC9BF5BBE73DA0FC944
:1000D0003F05A84CCDB2D44EB93836A9020C50B960
:1000E000918688083CA6AAAA2ABE000000803F008C
:1000F00000000008000201000003040700000000E7
:10010000000000001112131415160A0B0C0D0E0F2F
:100110006661696C65640000000000250028002B02
:100120000000000000240027002A00040404040446
:100130000404040202020202020303030303030194
:10014000020408102040800102040810200102046B
:1001500008102000010203040500321111241FBE03
:10016000CFEFD8E0DEBFCDBF11E0A0E0B1E0EAEC18
:10017000FBE202C005900D92AC3BB107D9F723E03A
:10018000ACEBB1E001C01D92A43DB207E1F710E075
:10019000CEEAD0E004C02197FE010E94A611CD3A1C
:1001A000D107C9F70E943A080C94E3150C9400009B
:1001B000FC01918D828D981761F0828DDF01A80F6F
:1001C000B11D5D968C91928D9F5F9F73928F90E091
:1001D00008958FEF9FEF0895FC01918D828D981700
:1001E00031F0828DE80FF11D858D90E008958FEF3D
:1001F0009FEF0895FC01918D228D892F90E0805C06
:100200009F4F821B91098F739927089583EC92E089
:100210000E94FA0021E0892B09F420E0822F089542
:10022000FC01848DDF01A80FB11DA35ABF4F2C9193
:10023000848D90E001968F739927848FA689B78962
:100240002C93A089B1898C9180648C93938D848D3B
:10025000981306C00288F389E02D80818F7D80830A
:100260000895EF92FF920F931F93CF93DF93EC01CA
:1002700081E0888F9B8D8C8D981305C0E889F98962
:10028000808185FD24C0F62E0B8D10E00F5F1F4F7F
:100290000F731127E02E8C8DE8120CC00FB607FCEF
:1002A000FACFE889F989808185FFF5CFCE010E94D8
:1002B0001001F1CF8B8DFE01E80FF11DE35AFF4FC6
:1002C000F0820B8FEA89FB898081806207C0EE890A
:1002D000FF896083E889F98980818064808381E077
:1002E00090E0DF91CF911F910F91FF90EF900895D3
:1002F000CF93DF93EC01888D8823C9F0EA89FB89CD
:10030000808185FD05C0A889B9898C9186FD0FC0C3
:100310000FB607FCF5CF808185FFF2CFA889B98998
:100320008C9185FFEDCFCE010E941001E7CFDF91C8
:10033000CF91089580E090E0892B29F00E9406017A
:1003400081110C94000008952F923F924F925F927A
:100350006F927F928F929F92AF92BF92CF92DF92D5
:10036000EF92FF920F931F93CF93DF93CDB7DEB73A
:1003700068970FB6F894DEBF0FBECDBF29833A83CE
:100380004B835C836D837E838F839887A986BA862F
:10039000CB86DC86ED86FE860F87188B79018A0175
:1003A000698B7A8BAF81AB8BB885BC8B89859A853D
:1003B000AB85BC858D8B9E8BAF8BB88F4D845E8457
:1003C0006F847888ADA4BEA4CFA4D8A899A88AA821
:1003D0003BA82CA89501A601B701C8010E944F14A3
:1003E00018162CF07A2D6B2D9C2D8D2D04C07E2D92
:1003F0006F2D902F812F272F362F492F582F6D8942
:100400007E898F89988D0E94BF1418160CF44BC0FA
:100410009501A601B701C8010E94BF1487FD02C063
:10042000750186019701A8016D897E898F89988D54
:100430000E944F1487FD37C0292D382D432D522D92
:1004400069897A898B899C890E944F1418161CF03F
:10045000B401C10104C079896A899B898C89272FDD
:10046000362F492F582FC301B2010E94BF1418160E
:10047000D4F0292D382D432D522D69897A898B8905
:100480009C890E94BF1487FF04C099888A883B8892
:100490002C8811E0292D382D432D522DC301B20196
:1004A0000E944F1487FD10E0812F68960FB6F894D4
:1004B000DEBF0FBECDBFDF91CF911F910F91FF9097
:1004C000EF90DF90CF90BF90AF909F908F907F90F4
:1004D0006F905F904F903F902F9008950E94BA14B4
:1004E000CF92DF92EF92FF920F931F93CF93DF9300
:1004F000CDB7DEB78DE191E00E9406086B857C8563
:100500008D859E850E94080888E291E00E948905F9
:100510008BE291E00E94060821966CAD7DAD8EAD18
:100520009FAD219742E050E00E942B0786E391E0C7
:100530000E94060869AD7AAD8BAD9CAD42E050E0FB
:100540000E942B0781E491E00E94060823966EAD7D
:100550007FAD2397072E000C880B990B0E9408088B
:1005600088E291E00E9489058CE491E00E940608EF
:100570006B897C898D899E894AE050E00E942B0717
:1005800087E591E00E9406086F85788989899A89B4
:100590004AE050E00E942B078E01055F1F4FC12CDF
:1005A000D12C7601C701B6010E94080882E691E0CD
:1005B0000E940608F80160897189828993894AE05E
:1005C00050E00E942B07C701B6010E9408088CE684
:1005D00091E00E940608F8016485758586859785F7
:1005E0004AE050E00E942B07FFEFCF1ADF0AEF0A24
:1005F000FF0A085F1F4F84E0C816D104E104F1042C
:1006000089F6DF91CF911F910F91FF90EF90DF90CE
:10061000CF9008954F925F926F927F928F929F92A8
:10062000AF92BF92CF92DF92EF92FF920F931F9300
:10063000CF93DF93CDB7DEB7A0970FB6F894DEBFA8
:100640000FBECDBF29873A874B875C8727013801CA
:10065000AD8ABE8ACF8AD88E2BED3FE049E450E4C4
:100660000E94251520E030E044E353E40E94AB12E1
:100670006B017C012BED3FE049E450E469857A850C
:100680008B859C850E942515698F7A8F8B8F9C8F17
:10069000C701B6010E945C144B015C0120E73DE6F6
:1006A00042EC5AE4C301B2010E94AB122B013C019F
:1006B0000E94A61269877A878B879C87C701B6013B
:1006C0000E94A6126D877E878F87988BC301B20127
:1006D0000E945C14698B7A8B8B8B9C8B6D897E89D5
:1006E0008F89988D0E94A6122B013C0129853A859D
:1006F0004B855C85C501B4010E9425156B017C0109
:1007000029893A894B895C896D857E858F85988991
:100710000E942515A30192010E9425159B01AC01A1
:10072000C701B6010E94AD110E9419126B017C0134
:100730000E945C149B01AC016D897E898F89988D24
:100740002D8F3E8F4F8F58A30E945C142B013C01CC
:100750002D8D3E8D4F8D58A1C501B4010E942515E8
:100760009B01AC0169857A858B859C850E94AC11C3
:100770004B015C0129893A894B895C89C301B2012B
:100780000E9425152D853E854F8558890E94251587
:10079000A50194010E9447124B015C0120E030E06A
:1007A00044E353E4698D7A8D8B8D9C8D0E94AB124E
:1007B000A50194010E94AD1120E030E044E353E430
:1007C0000E9425152BED3FE049E450E40E94AB1256
:1007D0000E941E07B62E872E982EA92E20E030E00C
:1007E00044E353E4C701B6010E9425152BED3FE019
:1007F00049E450E40E94AB120E941E07E62F272F07
:100800004B2D582D692D7A2D49835A836B837C8318
:100810004E2F522FBC014D835E836F8378872B2D23
:100820003A814B815C816E2F7E818F819885A09665
:100830000FB6F894DEBF0FBECDBFDF91CF911F91F1
:100840000F91FF90EF90DF90CF90BF90AF909F906F
:100850008F907F906F905F904F9008951F920F92AE
:100860000FB60F9211242F933F934F935F936F9383
:100870007F938F939F93AF93BF93EF93FF9383ECFB
:1008800092E00E941001FF91EF91BF91AF919F9173
:100890008F917F916F915F914F913F912F910F9029
:1008A0000FBE0F901F9018951F920F920FB60F92C8
:1008B00011242F938F939F93EF93FF93E091D30293
:1008C000F091D4028081E091D902F091DA0282FDA8
:1008D00012C090818091DC028F5F8F732091DD02C6
:1008E000821751F0E091DC02F0E0ED53FD4F958F5F
:1008F0008093DC0201C08081FF91EF919F918F91E5
:100900002F910F900FBE0F901F90189590E0FC0153
:10091000E051FF4F3491FC01E15CFE4F2491FC015A
:10092000E55DFE4FE491EE2309F43BC0332339F13A
:10093000333091F038F43130A9F0323001F584B51C
:100940008F7D12C0373091F03830A1F03430B9F4D7
:10095000809180008F7D03C0809180008F7780938D
:1009600080000DC084B58F7784BD09C08091B00030
:100970008F7703C08091B0008F7D8093B000F0E04E
:10098000EE0FFF1FE95EFE4FA591B4918FB7F8946B
:10099000EC91611103C020952E2301C02E2B2C93C6
:1009A0008FBF08953FB7F8948091B6029091B70237
:1009B000A091B802B091B90226B5A89B05C02F3FFF
:1009C00019F00196A11DB11D3FBFBA2FA92F982F75
:1009D0008827820F911DA11DB11DBC01CD0142E0F0
:1009E000660F771F881F991F4A95D1F708952FB773
:1009F000F8946091B2027091B3028091B402909128
:100A0000B5022FBF08951F920F920FB60F921124B7
:100A10002F933F938F939F93AF93BF938091B20295
:100A20009091B302A091B402B091B5023091B1029D
:100A300023E0230F2D3720F40196A11DB11D05C021
:100A400026E8230F0296A11DB11D2093B1028093C9
:100A5000B2029093B302A093B402B093B502809116
:100A6000B6029091B702A091B802B091B902019676
:100A7000A11DB11D8093B6029093B702A093B80256
:100A8000B093B902BF91AF919F918F913F912F91F8
:100A90000F900FBE0F901F9018958EBD00000DB4E3
:100AA00007FEFDCF8EB508951F920F920FB60F92DD
:100AB00011240F900FBE0F901F901895CF92DF92C8
:100AC000EF92FF920F931F93CF93DF936C017A0104
:100AD0008B01C0E0D0E0CE15DF0589F0D8016D9123
:100AE0008D01D601ED91FC910190F081E02DC601C0
:100AF0000995892B11F47E0102C02196ECCFC70124
:100B0000DF91CF911F910F91FF90EF90DF90CF90E9
:100B10000895009769F0FC0101900020E9F73197F2
:100B2000AF01481B590BBC0183EC92E00C945E05AD
:100B300080E090E008958F929F92AF92BF920F93C2
:100B40001F93CF93DF93CDB7DEB7A1970FB6F8947D
:100B5000DEBF0FBECDBF19A2423008F44AE08E01BD
:100B60000F5D1F4F842E912CA12CB12CA501940157
:100B70000E948411E62FB901CA0101501109EA301F
:100B800014F4E05D01C0E95CD801EC93232B242B25
:100B9000252B61F7C8010E948905A1960FB6F8942C
:100BA000DEBF0FBECDBFDF91CF911F910F91BF90E0
:100BB000AF909F908F900895CF93DF930E94890507
:100BC000EC0188E291E00E9489058C0F9D1FDF9166
:100BD000CF9108959CB59F7D9CBD9CB5937F9CBD96
:100BE0009CB59C7F9CBD9DB591609DBD682F8091FB
:100BF00061030E9486048FE090E00197F1F7089569
:100C000081E00C94EA0580E00C94EA05CF93DF9331
:100C10001F92CDB7DEB70E94030681EE0E944D05FC
:100C200089830E94000689810F90DF91CF910895FA
:100C3000CF93DF931F92CDB7DEB789830E9403065F
:100C400089818F710E944D058FEF0E944D05898328
:100C50000E94000689810F90DF91CF9108951F9324
:100C6000CF93DF9300D0CDB7DEB76A8389830E942C
:100C7000030689818F7180620E944D05182F6A8159
:100C8000862F0E944D050E940006812F0F900F9025
:100C9000DF91CF911F910895EF92FF920F931F93D1
:100CA000CF93DF9300D01F92CDB7DEB7162F4A83C4
:100CB0007B8389830E94030689818F7180620E94F1
:100CC0004D05082FE12E7B81F72E4A81140F1E154A
:100CD00031F0F70181917F010E944D05F8CF0E940C
:100CE0000006802F0F900F900F90DF91CF911F91F2
:100CF0000F91FF90EF900895682F8091600390917D
:100D0000610389130C94860408958F929F92AF9289
:100D1000BF92CF92DF92EF92FF920E94D2044B01DA
:100D20005C0185E0C82ED12CE12CF12C0E94D2046C
:100D3000DC01CB0188199909AA09BB09883E9340B7
:100D4000A105B10558F021E0C21AD108E108F10867
:100D500088EE880E83E0981EA11CB11CC114D1043A
:100D6000E104F10419F7FF90EF90DF90CF90BF906E
:100D7000AF909F908F90089580E00E94180681FDAB
:100D800007C0682F626080E00E942F060C948506E1
:100D900008950E94BC0680E00E941806682F6160DA
:100DA00080E00E942F0660E787E00E942F0681E026
:100DB0000E947C0680916703882341F040916C0378
:100DC00067E673E08AE00E944C0612C082E00E944F
:100DD0001806E3E5F1E0E49121E030E001C0220FE4
:100DE000EA95EAF72095622F682382E00E942F0699
:100DF0008DE10E94180681FD0C940606089590E08E
:100E0000FC01E15CFE4F2491FC01E55DFE4F849105
:100E1000882399F090E0880F991FFC01EF5DFE4F49
:100E2000A591B491FC01E95EFE4F859194918FB735
:100E3000F894EC91E22BEC938FBF089520E030E51D
:100E400043EC57E40E94251520E030E543EC57E4DD
:100E50000E94AB1208954F925F926F927F928F9291
:100E60009F92AF92BF92CF92DF92EF92FF92CF9379
:100E7000DF936B017C01B42E9B01AC010E94AE1488
:100E8000882319F08DEA91E01AC026013701E89411
:100E900077F82FEF3FEF4FE75FE7C301B2010E9402
:100EA000AE14811110C02FEF3FEF4FE75FE7C30192
:100EB000B2010E94BF14181634F481EB91E00E9435
:100EC0008905EC018EC02FEF3FEF4FE75FE4C701CC
:100ED000B6010E944F1418161CF485EB91E0EFCF79
:100EE0002FEF3FEF4FE75FECC701B6010E94BF1441
:100EF00087FDF3CF20E030E0A901C701B6010E94D1
:100F0000BF1487FF11C0E091C302F091C4020190A9
:100F1000F081E02D6DE283EC92E00995EC01F7FAA7
:100F2000F094F7F8F09402C0C0E0D0E0A12C60E0AB
:100F300070E080E09FE3AB1440F420E030E040E25A
:100F400051E40E94AB12A394F6CF9B01AC01C70100
:100F5000B6010E94AD112B013C010E9424136B01CC
:100F60007C010E94C4149B01AC01C301B2010E9428
:100F7000AC112B013C014AE0C701B6010E949B0560
:100F8000C80FD91FBB2031F089EB91E00E94890581
:100F9000C80FD91FFB2CFF2021F120E030E040E2F8
:100FA00051E4C301B2010E9425152B013C010E94AE
:100FB00024134B01A12CB12C4AE0C501B4010E94BD
:100FC0009B05C80FD91FC501B4010E94C4149B0121
:100FD000AC01C301B2010E94AC112B013C01FA9497
:100FE000DACF88E291E00E9489058C0F9D1FDF9186
:100FF000CF91FF90EF90DF90CF90BF90AF909F90F8
:101000008F907F906F905F904F9008950C9489051A
:10101000CF92DF92EF92FF92CF93DF9397FF21C0A1
:101020006B017C01E091C302F091C4020190F08158
:10103000E02D6DE283EC92E00995EC0166277727BD
:10104000CB016C197D098E099F094AE00E949B051E
:101050008C0F9D1FDF91CF91FF90EF90DF90CF908D
:1010600008954AE0DF91CF91FF90EF90DF90CF900D
:101070000C949B05CF93DF93CDB7DEB7C152D1401F
:101080000FB6F894DEBF0FBECDBF789484B58260F2
:1010900084BD84B5816084BD85B5826085BD85B51C
:1010A000816085BD80916E00816080936E0010929A
:1010B0008100809181008260809381008091810015
:1010C00081608093810080918000816080938000A6
:1010D0008091B10084608093B1008091B000816004
:1010E0008093B00080917A00846080937A00809130
:1010F0007A00826080937A0080917A008160809388
:101100007A0080917A00806880937A001092C10002
:1011100081E090E09093CB038093CA03E091D302E7
:10112000F091D40282E08083E091CF02F091D0026E
:101130001082E091D102F091D20280E1808310927E
:10114000DB02E091D702F091D80286E08083E09143
:10115000D502F091D602808180618083E091D50232
:10116000F091D602808188608083E091D502F09171
:10117000D602808180688083E091D502F091D6020A
:1011800080818F7D808389E00E94FF0684E00E9439
:10119000FF0686E00E94FF0685E00E94FF06809120
:1011A00060039091610389130E94FF06809161039F
:1011B0009091600398130E94FF061FB7F8948091E6
:1011C000BA02811124C0E5E3F1E08491E9E4F1E0A1
:1011D0009491E82FF0E0EE0FFF1FEF5DFE4FA59119
:1011E000B491EC91E92321F461E08AE00E94860445
:1011F0008AE00E94FF068CB580618CBD8CB580644E
:101200008CBD8DE00E94FF068BE00E94FF0680915E
:10121000BA028F5F8093BA021FBF80E00E947C06F3
:1012200081E00E94EA050E9485066CE080E00E9451
:101230002F066FE584E00E942F0686E00E941806C4
:10124000877D182F10628BE990E0A0E0B0E08093DA
:101250006D0390936E03A0936F03B0937003612F9F
:1012600086E00E942F0686E00E941806811709F486
:10127000E4C586E00E94180686E00E94180645E54F
:1012800050E060E070E040936D0350936E03609314
:101290006F0370937003682F677D86E00E942F06AE
:1012A00086E00E9418060E94030680E50E944D0514
:1012B00083E70E944D050E94000660E08DE10E94D8
:1012C0002F0660E08CE10E942F0660E787E00E9415
:1012D0002F066CE485E00E942F060E94030682EE32
:1012E0000E944D050E9400060E9406060E94BC0650
:1012F00080E00E941806682F6E7F80E00E942F0613
:1013000040916C0360E071E08AE00E944C064091DD
:101310006C0360E071E080E10E944C06609165031F
:1013200081E10E942F06EBE0F1E0849140916C0393
:1013300060E071E00E944C06E5E0F1E0849160918C
:1013400065030E942F0682E00E941806E4E5F1E0A2
:10135000E49161E070E001C0660FEA95EAF7682B5E
:1013600082E00E942F060E94C90625EB30E02C0F78
:101370003D1F205E3F4FC15EDE4F39832883CF5132
:10138000D1400E94F7040091090110910A012091B7
:101390000B0130910C01DC01CB01801B910BA20BE6
:1013A000B30B803D9740A105B10528F060E0809126
:1013B00007010E9486040E94F7042091BF02309129
:1013C000C0024091C1025091C202C95FDE4F288322
:1013D00039834A835B83C750D140DC01CB01821B38
:1013E000930BA40BB50B81319742A105B10520F0F9
:1013F00060E089E00E94860462E87FE189E292E48D
:101400000E941E0760939C0370939D0380939E032C
:1014100090939F036AE378E786EA92EC0E941E07A6
:10142000609398037093990380939A0390939B031E
:1014300060E274E68CE991E40E941E076093C603A3
:101440007093C7038093C8039093C90360E070E072
:10145000CB010E941E076093C2037093C303809365
:10146000C4039093C50320E030E044EB53E460E014
:1014700070E084EB92E40E945E13CD5EDE4F6883E1
:1014800079838A839B83C351D1405B016C01E12C3A
:10149000F12C00EC1FE32AE338E746EA52EC62E85D
:1014A0007FE189E292E40E940A0320938A03309349
:1014B0008B0340938C0350938D0360938E03709342
:1014C0008F03809390039093910320E030E044EBEE
:1014D00053E460E070E087E893E40E945E132B0120
:1014E0003C015B016C012AE338E746EA52EC62E812
:1014F0007FE189E292E40E940A0320937203309311
:101500007303409374035093750360937603709351
:1015100077038093780390937903A12CB12C650114
:1015200010E2E12E14E6F12E0CE912E42AE338E78A
:1015300046EA52EC62E87FE189E292E40E940A0303
:10154000C150DF4F2883CF5FD040C050DF4F38837A
:10155000C050D140CF5FDE4F4883C150D140CE5FF5
:10156000DE4F5883C250D140CD5FDE4F6883C350F9
:10157000D140CC5FDE4F7883C450D140CB5FDE4F8B
:101580008883C550D140CA5FDE4F9883C650D14092
:10159000C150DF4F88819981AA81BB81CF5FD04044
:1015A000C15FDE4F88839983AA83BB83CF50D1402C
:1015B000CD5FDE4F288139814A815B81C350D140A4
:1015C000C55FDE4F288339834A835B83CB50D1408C
:1015D000CD5EDE4FA880B980CA80DB80C351D14088
:1015E000E12CF12C00EC1FE39C01AD01C55FDE4F47
:1015F000688179818A819B81CB50D1400E940A0306
:101600002093820330938303409384035093850394
:101610006093860370938703809388039093890374
:1016200063015201C15FDE4F288139814A815B81AC
:10163000CF50D140C55FDE4F688179818A819B811F
:10164000CB50D1400E940A0320937A0330937B034E
:1016500040937C0350937D0360937E0370937F03DC
:10166000809380039093810382E2E2E7F3E0A0EAB3
:10167000B3E001900D928A95E1F70E94F704009182
:10168000BB021091BC022091BD023091BE02DC0170
:10169000CB01801B910BA20BB30B81329E44A105A1
:1016A000B10508F4FCC00E94F704DC01CB01C95F5E
:1016B000DE4F288139814A815B81C750D140821B2E
:1016C000930BA40BB50B81319742A105B10540F0F6
:1016D00086E791E00E94DC0560E089E00E948604D4
:1016E00080E00E947C0680916D0390916E038230B1
:1016F000910538F0880F991F880F991F059701975A
:10170000F1F78DE10E94180681FF10C080916D03F2
:1017100090916E038230910538F0880F991F880FE1
:10172000991F05970197F1F70E94060680E00E9435
:101730001806682F6E7F80E00E942F0682E00E94CC
:101740001806E3E5F1E0E49161E070E001C0660FA6
:10175000EA95EAF7682B82E00E942F060E94D204E5
:101760008091940390919503A0919603B091970373
:101770000196A11DB11D8093940390939503A093AE
:101780009603B093970310916503012F1D3308F062
:101790000CE380916603811102C0101B01C010E0B0
:1017A0000E94030680EA0E944D0524E9E22E23E010
:1017B000F22E015030F0D7018D917D010E944D0530
:1017C000F8CF112329F080E00E944D051150F9CF88
:1017D0000E94000681E00E947C060E9403068FEFB3
:1017E0000E944D05CF5DDE4F8883C152D1400E94DB
:1017F0000006CF5DDE4F8881C152D140807369F30E
:1018000080E00E947C0660E787E00E942F0684FF4C
:101810001CC00E94060600E111E0F801649161110C
:1018200005C088E291E00E9489050FC0E091C302E3
:10183000F091C4020190F081E02D83EC92E00995D3
:101840000F5F1F4F892B49F7ECCF0E94C90684E830
:1018500091E00E94DC052DB73EB72C5331090FB63D
:10186000F8943EBF0FBE2DBFADB7BEB711968CE347
:10187000E4E9F3E001900D928A95E1F70E9470028D
:101880000FB6F894DEBF0FBECDBF0E94F704609381
:10189000BB027093BC028093BD029093BE0287E1AD
:1018A0000E94180680FFCDC2C5C20E94000660E7F4
:1018B00087E00E942F0687E10E94180680FFD0C2B1
:1018C00061E089E00E9486040E94F7046093BF02F1
:1018D0007093C0028093C1029093C2028FE991E09D
:1018E0000E94DC05EDB7FEB7FC970FB6F894FEBF7B
:1018F0000FBEEDBFADB7BEB711968CE3FE01E75842
:10190000FF4F01900D928A95E1F70E9470028CE3DF
:10191000FE01E758FF4FDE01DD9601900D928A959A
:10192000E1F7C555DF4FC880D980EA80FB80CB5AEC
:10193000D0400FB6F894DEBF0FBECDBF20E030E040
:1019400040E85FE3C701B6010E944F1418160CF07F
:1019500071C2E396CCAEDDAEEEAEFFAEE3978CE3A4
:10196000FE01FD96DE01119601900D928A95E1F738
:1019700082E2FE013D96DE01AB54BF4F01900D9215
:101980008A95E1F7E2E7F3E0C15FDE4FF983E88390
:10199000CF50D1409E012B543F4F1901C15FDE4F04
:1019A000A881B981CF50D1402D913D914D915C914D
:1019B0001397C95FDE4F288339834A835B83C750FF
:1019C000D14014964D905D906D907C901797F101E9
:1019D000C080D180E280F3802481358146815781A7
:1019E000C55EDE4F288339834A835B83CB51D14068
:1019F000C151DF4F488259826A827B82CF5ED040DC
:101A0000C95FDE4F288139814A815B81C750D1404F
:101A1000CD50DF4F288339834A835B83C35FD04037
:101A2000C55EDE4F88819981AA81BB81CB51D140AF
:101A3000C152DF4F88839983AA83BB83CF5DD04097
:101A4000CD51DF4FC882D982EA82FB82C35ED0408B
:101A5000FE01E950FF4FDE01A952BF4F88E001901F
:101A60000D928A95E1F7C95FDE4F288139814A815D
:101A70005B81C750D140CA01B9010E94AC114B0132
:101A80005C01A3019201C301B2010E94AC11C95EC5
:101A9000DE4F688379838A839B83C751D140A3013A
:101AA0009201C55EDE4F688179818A819B81CB512D
:101AB000D1400E94AC119B01AC01C501B4010E9450
:101AC0002515C55FDE4F688379838A839B83CB505E
:101AD000D140C95FDE4F288139814A815B81C7507F
:101AE000D140C701B6010E94AC119B01AC01C95E97
:101AF000DE4F688179818A819B81C751D1400E94E4
:101B000025159B01AC01C55FDE4F688179818A8113
:101B10009B81CB50D1400E94AC110E941D136115D6
:101B2000710509F4C5C10CF0C6C102E010E0C9524C
:101B3000DF4F288139814A815B81C75DD040CD5E0E
:101B4000DE4F288339834A835B83C351D140C5521A
:101B5000DF4F88819981AA81BB81CB5DD040C55F71
:101B6000DE4F88839983AA83BB83CB50D140A301E6
:101B70009201CD5EDE4F688179818A819B81C3515C
:101B8000D1400E94AC119B01AC01C501B4010E947F
:101B900025154B015C01C95FDE4F288139814A81DF
:101BA0005B81C750D140C55FDE4F688179818A81F2
:101BB0009B81CB50D1400E94AC119B01AC01C95E0E
:101BC000DE4F688179818A819B81C751D1400E9413
:101BD00025159B01AC01C501B4010E94AC110E9406
:101BE0001D136115710509F469C10CF06EC1A2E005
:101BF000B0E0C95EDE4FB983A883C751D140A701C9
:101C00009601C55FDE4F688179818A819B81CB50C7
:101C1000D1400E94AC116B017C01CD5EDE4F28816A
:101C200039814A815B81C351D140C301B2010E9415
:101C3000AC119B01AC01C701B6010E9425156B01D7
:101C40007C01C55EDE4F288139814A815B81CB51A1
:101C5000D140CD5EDE4F688179818A819B81C351FD
:101C6000D1400E94AC114B015C01C55FDE4F288161
:101C700039814A815B81CB50D140C95FDE4F688199
:101C800079818A819B81C750D1400E94AC119B0110
:101C9000AC01C501B4010E9425159B01AC01C7012F
:101CA000B6010E94AC110E941D136115710509F463
:101CB00015C10CF01CC192E0892E912C22E030E07D
:101CC000C55FDE4F39832883CB50D140012B09F00B
:101CD00022C1C951DF4F488259826A827B82C75E26
:101CE000D040C95FDE4F88819981AA81BB81C750EE
:101CF000D140C551DF4F88839983AA83BB83CB5ED4
:101D0000D040ADB7BEB718970FB6F894BEBF0FBEA0
:101D1000ADBF1196FE01E951FF4F88E001900D9291
:101D20008A95E1F7C152DF4FA880CF5DD040C05205
:101D3000DF4FB880C05ED040CF51DF4FC880C15E5A
:101D4000D040CE51DF4FD880C25ED040CD51DF4F62
:101D5000E880C35ED040CC51DF4FF880C45ED040F5
:101D6000CB51DF4F0881C55ED040CA51DF4F18818B
:101D7000C65ED040C151DF4F2881CF5ED040C051F8
:101D8000DF4F3881C05FD040CF50DF4F4881C15F07
:101D9000D040CE50DF4F5881C25FD040CD50DF4F92
:101DA0006881C35FD040CC50DF4F7881C45FD040A2
:101DB000CB50DF4F8881C55FD040CA50DF4F98813C
:101DC000C65FD0400E94A4010FB6F894DEBF0FBEDC
:101DD000CDBF882309F49FC080E991E00E94DC0513
:101DE0000E94F7040091090110910A0120910B0152
:101DF00030910C01DC01CB01801B910BA20BB30BCA
:101E0000803D9740A105B10508F47DC084E090E0D5
:101E100090930801809307010E94F70460930901E1
:101E200070930A0180930B0190930C0161E084E0B0
:101E30000E9486040E949A01A4CA81E080936403F0
:101E400018CAED961CAE1DAE1EAE1FAEED9784E017
:101E500090E0CB55DF4F99838883C55AD0402BCD76
:101E6000109165031C3310F10CE38091660381111E
:101E700002C0101B01C010E00E94030681E60E9410
:101E80004D05CE0187589F4F7C01015038F08FEFF0
:101E90000E944D05D7018D937D01F7CF112309F4E1
:101EA00004CD8FEF0E944D051150F8CF012FDDCFEB
:101EB00000E010E03CCE01E010E039CEC95EDE4F1C
:101EC00019821882C751D1409ACEE1E0F0E0C95E94
:101ED000DE4FF983E883C751D14091CE812C912CFC
:101EE000C55FDE4F19821882CB50D140EFCE8824D7
:101EF0008394912CA1E0B0E0C55FDE4FB983A88345
:101F0000CB50D140E3CE8091070190910801049716
:101F10000CF090CF7BCFC95EDE4F48815981C7510D
:101F2000D140452B09F085C0C951DF4F4882598205
:101F30006A827B82C75ED040C95FDE4F28813981CB
:101F40004A815B81C750D140C551DF4F2883398317
:101F50004A835B83CB5ED0404DB75EB74850510992
:101F60000FB6F8945EBF0FBE4DBFADB7BEB71196AA
:101F7000FE01E951FF4F88E001900D928A95E1F74B
:101F8000C952DF4FA880C75DD040C852DF4FB8802C
:101F9000C85DD040C752DF4FC880C95DD040C6522F
:101FA000DF4FD880CA5DD040C552DF4FE880CB5D9F
:101FB000D040C452DF4FF880CC5DD040C352DF4FD9
:101FC0000881CD5DD040C252DF4F1881CE5DD04038
:101FD000C151DF4F2881CF5ED040C051DF4F3881E3
:101FE000C05FD040CF50DF4F4881C15FD040CE505E
:101FF000DF4F5881C25FD040CD50DF4F6881C35F53
:10200000D040CC50DF4F7881C45FD040CB50DF4F01
:102010008881C55FD040CA50DF4F9881C65FD040ED
:102020000E94A4010FB6F894DEBF0FBECDBF811190
:10203000D3CE892809F06CC0EDB7FEB738970FB63C
:10204000F894FEBF0FBEEDBFADB7BEB71196FE014F
:10205000E952FF4F88E001900D928A95E1F7C15156
:10206000DF4FA880CF5ED040C051DF4FB880C05F47
:10207000D040CF50DF4FC880C15FD040CE50DF4F3F
:10208000D880C25FD040CD50DF4FE880C35FD040E2
:10209000CC50DF4FF880C45FD040CB50DF4F088179
:1020A000C55FD040CA50DF4F1881C65FD040C152D3
:1020B000DF4F2881CF5DD040C052DF4F3881C05EF6
:1020C000D040CF51DF4F4881C15ED040CE51DF4F6D
:1020D0005881C25ED040CD51DF4F6881C35ED04091
:1020E000CC51DF4F7881C45ED040CB51DF4F888127
:1020F000C55ED040CA51DF4F9881C65ED0400E9475
:10210000A4010FB6F894DEBF0FBECDBF811164CE1F
:10211000C55FDE4F88819981CB50D140892B09F072
:1021200082C0C951DF4F488259826A827B82C75E72
:10213000D040C95FDE4F88819981AA81BB81C75099
:10214000D140C551DF4F88839983AA83BB83CB5E7F
:10215000D040ADB7BEB718970FB6F894BEBF0FBE4C
:10216000ADBF1196FE01E952FF4F88E001900D923C
:102170008A95E1F7C951DF4FA880C75ED040C851AA
:10218000DF4FB880C85ED040C751DF4FC880C95EFE
:10219000D040C651DF4FD880CA5ED040C551DF4F16
:1021A000E880CB5ED040C451DF4FF880CC5ED04099
:1021B000C351DF4F0881CD5ED040C251DF4F18813F
:1021C000CE5ED040C152DF4F2881CF5DD040C0529B
:1021D000DF4F3881C05ED040CF51DF4F4881C15EB4
:1021E000D040CE51DF4F5881C25ED040CD51DF4F3D
:1021F0006881C35ED040CC51DF4F7881C45ED0404F
:10220000CB51DF4F8881C55ED040CA51DF4F9881E6
:10221000C65ED0400E94A4010FB6F894DEBF0FBE88
:10222000CDBF8111D9CD38E0230E311CC15EDE4F08
:1022300048815981CF51D1402416350609F0AECBE3
:10224000C15FDE4F88819981CF50D1400896C15F30
:10225000DE4F99838883CF50D1408259934009F053
:1022600099CBE8CDE3ECF2E01382128288EE93E0A2
:10227000A0E0B0E084839583A683B78381E191E0F9
:102280009183808385EC90E09587848784EC90E04F
:102290009787868780EC90E0918B808B81EC90E033
:1022A000938B828B82EC90E0958B848B86EC90E014
:1022B000978B868B118E128E138E148EE4E9F3E0C9
:1022C000108211821282138284E090E095A784A785
:1022D0009093930380939203E0E6F3E087E080839A
:1022E00088E08183148280E28583168285E084877A
:1022F00017820E94F7046093D0037093D1038093F8
:10230000D2039093D3030895A1E21A2EAA1BBB1BFC
:10231000FD010DC0AA1FBB1FEE1FFF1FA217B307B1
:10232000E407F50720F0A21BB30BE40BF50B661FC7
:10233000771F881F991F1A9469F76095709580958B
:1023400090959B01AC01BD01CF010895EE0FFF1FD9
:102350000590F491E02D09945058BB27AA270E94BC
:10236000C4110C94A9150E949B1538F00E94A21567
:1023700020F039F49F3F19F426F40C9498150EF4CC
:10238000E095E7FB0C949215E92F0E94BA1558F3DB
:10239000BA17620773078407950720F079F4A6F54A
:1023A0000C94DC150EF4E0950B2EBA2FA02D0B012A
:1023B000B90190010C01CA01A0011124FF27591B8A
:1023C00099F0593F50F4503E68F11A16F040A22F90
:1023D000232F342F4427585FF3CF46953795279501
:1023E000A795F0405395C9F77EF41F16BA0B620B00
:1023F000730B840BBAF09150A1F0FF0FBB1F661F47
:10240000771F881FC2F70EC0BA0F621F731F841F89
:1024100048F4879577956795B795F7959E3F08F0AF
:10242000B0CF9395880F08F09927EE0F9795879571
:1024300008959F939F77EEE389379E0728F4E8E697
:10244000F0E00E94FC130CC00E94A7139058A2EA6F
:102450002AED3FE049EC5FE30E94C4110E94A915F8
:102460000F9007FC905808950E949B1560F080E83B
:1024700091E009F49EEF0E94A21528F040E851E097
:1024800071F45EEF0CC00C9498150C94DC15E92FD8
:10249000E0780E94BA1540F3092E052AB1F32617F9
:1024A00037074807590738F00E2E07F8E02569F07E
:1024B000E025E0640AC0EF6307F8009407FADB0147
:1024C000B9019D01DC01CA01AD01EF930E94C21266
:1024D0000E94A9150E9477125F91552339F02BEDC8
:1024E0003FE049E450FD49EC0C94AD110895DF93B1
:1024F000DD27B92FBF7740E85FE3161617064807B8
:102500005B0718F4D92F0E9454149F938F937F93E5
:102510006F930E94AA14ECE7F0E00E94D5130E948A
:10252000A9152F913F914F915F910E943815DD239E
:1025300051F09058A2EA2AED3FE049EC5FE3D078F1
:102540005D270E94C411DF910C94A9150E941214FA
:10255000E3950C943B140E94BF120C94A9150E94A1
:10256000A21558F00E949B1540F029F45F3F29F016
:102570000C94921551110C94DD150C9498150E9431
:10258000BA1568F39923B1F3552391F3951B550BB5
:10259000BB27AA2762177307840738F09F5F5F4F36
:1025A000220F331F441FAA1FA9F335D00E2E3AF075
:1025B000E0E832D091505040E695001CCAF72BD08D
:1025C000FE2F29D0660F771F881FBB1F26173707DE
:1025D0004807AB07B0E809F0BB0B802DBF01FF2710
:1025E00093585F4F3AF09E3F510578F00C94921546
:1025F0000C94DD155F3FE4F3983ED4F38695779510
:102600006795B795F7959F5FC9F7880F911D9695C8
:10261000879597F90895E1E0660F771F881FBB1F24
:10262000621773078407BA0720F0621B730B840BD1
:10263000BA0BEE1F88F7E09508950E942413689462
:10264000B1110C94DD1508950E94C21588F09F57B2
:1026500098F0B92F9927B751B0F0E1F0660F771FC6
:10266000881F991F1AF0BA95C9F714C0B13091F0BC
:102670000E94DC15B1E008950C94DC15672F782FCB
:102680008827B85F39F0B93FCCF386957795679581
:10269000B395D9F73EF490958095709561957F4FED
:1026A0008F4F9F4F08950E949B1520F019F00E94B4
:1026B000A21550F40C9498150C94DD15E92F0E9486
:1026C000BA1588F35523B1F3E7FB62177307840744
:1026D0009507A8F189F3E92FFF2788232AF031977E
:1026E000660F771F881FDAF7952F5527442332F09E
:1026F00091505040220F331F441FD2F7BB27E91BD4
:10270000F50B621B730B840BB109B1F222F4620F5B
:10271000731F841FB11D31972AF0660F771F881F22
:10272000BB1FEFCF9150504062F041F0882332F050
:10273000660F771F881F91505040C1F793950C94F6
:10274000C7138695779567959F5FD9F7F7CFDF9386
:10275000CF931F930F938B01EC01E9EAF0E00E9405
:10276000D5130E94A9159801AE018B01EC0160E020
:1027700070E080E89FE30E94AC110E946A14980107
:10278000AE010F911F91CF91DF910C9438159F3FAF
:1027900031F0915020F4879577956795B795880F1C
:1027A000911D9695879597F90895DF93CF931F9381
:1027B0000F93FF92EF92DF927B018C01689406C029
:1027C000DA2EEF010E943815FE01E894A5912591BB
:1027D000359145915591A6F3EF010E94C411FE0178
:1027E0009701A801DA9469F7DF90EF90FF900F91BD
:1027F0001F91CF91DF9108959F938F937F936F9354
:10280000FF93EF939B01AC010E942515EF91FF917F
:102810000E94D5132F913F914F915F910C942515F4
:102820000C9498150E94C215D8F3E894E0E0BB27F9
:102830009F57F0F02AED3FE049EC06C0EE0FBB0FCA
:10284000661F771F881F28F0B23A62077307840754
:1028500028F0B25A620B730B840BE3959A9572F7CA
:10286000803830F49A95BB0F661F771F881FD2F708
:1028700090480C94C913EF93E0FF07C0A2EA2AED39
:102880003FE049EC5FEB0E94C4110E94A9150F9034
:10289000039401FC9058E1EDF0E00C94FC130E94CD
:1028A000011508F48FEF08959B01AC0160E070E022
:1028B00080E89FE30C94AB129F930E9412140F9038
:1028C00007FCEE5F0C943B1419F416F40C94981565
:1028D0000C94C7130E94C215B8F39923C9F3B6F339
:1028E0009F57550B87FF0E94B3140024A0E640EACF
:1028F000900180585695979528F4805C660F771F55
:10290000881F20F026173707480730F4621B730B27
:10291000840B202931294A2BA6951794079420254A
:1029200031254A2758F7660F771F881F20F0261792
:102930003707480730F4620B730B840B200D311DF1
:10294000411DA09581F7B901842F9158880F969564
:10295000879508959B01AC010C9425150E940115E3
:10296000880B990B089591505040660F771F881F70
:10297000D2F7089581E090E0F8940C94E3150E945A
:10298000011508F481E00895E89409C097FB3EF42E
:1029900090958095709561957F4F8F4F9F4F9923AC
:1029A000A9F0F92F96E9BB279395F695879577952A
:1029B0006795B795F111F8CFFAF4BB0F11F460FFEA
:1029C0001BC06F5F7F4F8F4F9F4F16C0882311F042
:1029D00096E911C0772321F09EE8872F762F05C056
:1029E000662371F096E8862F70E060E02AF09A95F1
:1029F000660F771F881FDAF7880F9695879597F9E6
:102A00000895990F0008550FAA0BE0E8FEEF16167F
:102A10001706E807F907C0F012161306E407F507D2
:102A200098F0621B730B840B950B39F40A2661F046
:102A3000232B242B252B21F408950A2609F4A140E9
:102A4000A6958FEF811D811D08950E9438150C9465
:102A5000A9150E949B1538F00E94A21520F095231D
:102A600011F00C9492150C94981511240C94DD150A
:102A70000E94BA1570F3959FC1F3950F50E0551F52
:102A8000629FF001729FBB27F00DB11D639FAA27C3
:102A9000F00DB11DAA1F649F6627B00DA11D661F12
:102AA000829F2227B00DA11D621F739FB00DA11D33
:102AB000621F839FA00D611D221F749F3327A00DED
:102AC000611D231F849F600D211D822F762F6A2F89
:102AD00011249F5750409AF0F1F088234AF0EE0FEE
:102AE000FF1FBB1F661F771F881F91505040A9F71B
:102AF0009E3F510580F00C9492150C94DD155F3FBC
:102B0000E4F3983ED4F3869577956795B795F79556
:102B1000E7959F5FC1F7FE2B880F911D96958795CE
:102B200097F9089597F99F6780E870E060E008954D
:102B30009FEF80EC089500240A94161617061806D5
:102B40000906089500240A941216130614060506B1
:102B50000895092E0394000C11F4882352F0BB0F42
:102B600040F4BF2B11F460FF04C06F5F7F4F8F4FA5
:102B70009F4F089557FD9058440F551F59F05F3FE0
:102B800071F04795880F97FB991F61F09F3F79F08F
:102B900087950895121613061406551FF2CF469511
:102BA000F1DF08C0161617061806991FF1CF869593
:102BB0007105610508940895E894BB276627772777
:0A2BC000CB0197F90895F894FFCFB8
:102BCA00416C6C56656800060000000000000000B9
:102BDA000031015E05FA00D800EC00780162736DDD
:102BEA0049642020203A20000D0A0053706565646C
:102BFA002020203A200068656164696E67203A20C7
:102C0A000076656849642020203A20006C617420AF
:102C1A00202020203A20006C6F6E67202020203A66
:102C2A0020006C6174202020203A20006C6F6E67AF
:102C3A002020203A2000726563656976696E6720F4
:102C4A006C6F770053656E64696E672042534D005E
:102C5A0063617220736F6D652077686572650072B3
:102C6A006563656976696E672042534D006E616ED1
:0C2C7A0000696E66006F7666002E000098
:00000001FF
