:100000000C94DA000C9402010C9402010C94DE04AE
:100010000C94DE040C94DE040C9402010C94020196
:100020000C9402010C9402010C9402010C94020144
:100030000C9402010C9402010C946E050C940201C4
:100040000C94C3030C9402010C949E020C9478024D
:100050000C9402010C9402010C9402010C94020114
:100060000C9402010C940201036EDB363D9A9999BF
:10007000993DABAAAA2A3E000000803F084AD73B20
:100080003BCE016E84BCBFFDC12F3D6C74319ABD67
:1000900056833DDA3D00C77F11BED9E4BB4C3E918B
:1000A0006BAAAABE000000803F072C7AA5BA6CC5D7
:1000B00090DA3B9365FC8BBC53F810FD3C56928361
:1000C0004DBD879D3AB63DCBC9BF5BBE73DA0FC944
:1000D0003F05A84CCDB2D44EB93836A9020C50B960
:1000E000918688083CA6AAAA2ABE000000803F008C
:1000F00000000000240027002A0011121314151616
:100100000A0B0C0D0E0F6661696C6564004E6F770B
:1001100020726563656976696E67203A2000000089
:1001200000080002010000030407000000000000B6
:100130000000000102030405000000002500280063
:100140002B00000000002300260029000404040402
:100150000404040402020202020203030303030371
:10016000010204081020408001020408102001024E
:10017000040810204E414E494E495459494E46CD2F
:10018000CCCC3D0AD7233C17B7D13877CC2B32954E
:1001900095E6241FB14F0A000020410000C842002C
:1001A000401C4620BCBE4CCA1B0E5AAEC59D7400F6
:1001B000671D5D1D11241FBECFEFD8E0DEBFCDBF90
:1001C00012E0A0E0B1E0EEEBFBE402C005900D927E
:1001D000AE3CB107D9F725E0AEECB2E001C01D920C
:1001E000AA3DB207E1F710E0C9EDD0E004C02197C5
:1001F000FE010E94F71EC83DD107C9F70E94B30B4C
:100200000C94D2250C940000FC01918D828D9817DE
:1002100061F0828DDF01A80FB11D5D968C91928DEA
:100220009F5F9F73928F90E008958FEF9FEF0895E7
:10023000FC01918D828D981731F0828DE80FF11DB0
:10024000858D90E008958FEF9FEF0895FC01918DCB
:10025000228D892F90E0805C9F4F821B91098F73C4
:100260009927089585E693E00E94260121E0892BD5
:1002700009F420E0822F0895FC01848DDF01A80F8E
:10028000B11DA35ABF4F2C91848D90E001968F73BE
:100290009927848FA689B7892C93A089B1898C91DD
:1002A00080648C93938D848D981306C00288F389A3
:1002B000E02D80818F7D80830895EF92FF920F93D0
:1002C0001F93CF93DF93EC0181E0888F9B8D8C8D02
:1002D000981305C0E889F989808185FD24C0F62E30
:1002E0000B8D10E00F5F1F4F0F731127E02E8C8DC9
:1002F000E8120CC00FB607FCFACFE889F9898081B3
:1003000085FFF5CFCE010E943C01F1CF8B8DFE0120
:10031000E80FF11DE35AFF4FF0820B8FEA89FB894A
:100320008081806207C0EE89FF896083E889F9894E
:1003300080818064808381E090E0DF91CF911F9184
:100340000F91FF90EF900895CF93DF93EC01888D8C
:100350008823C9F0EA89FB89808185FD05C0A889C9
:10036000B9898C9186FD0FC00FB607FCF5CF80814F
:1003700085FFF2CFA889B9898C9185FFEDCFCE0199
:100380000E943C01E7CFDF91CF91089580E090E09B
:10039000892B29F00E94320181110C9400000895EC
:1003A0002091D0023091D1022817390771F4909131
:1003B000CE028091CF02981741F0E091CE02F0E09A
:1003C000EB51FD4F808190E008958FEF9FEF0895EE
:1003D00008951F93CF93DF93DC015C962D913C91A0
:1003E0005D972115310539F481E090E013969C93D7
:1003F0008E9312973DC05196ED91FC915297509675
:100400009C915097892F80951FB75E964C915E976F
:1004100041FB772770F941FD6095F894408177237F
:1004200011F0492B01C048234083E9012197F1F7DE
:1004300048E0508160FF02C0592B01C0582350830F
:10044000E9012197F1F76695415099F7772321F05B
:1004500090818923808303C08081982B90831FBF64
:100460005C968D919C915D970197F1F721E030E0CA
:10047000C901DF91CF911F9108952091D002309151
:10048000D1022817390771F48091CF022091CE0252
:1004900090E0805C9F4F821B910960E470E00E94B5
:1004A000B01E089580E090E008952091D002309130
:1004B000D10228173907B9F49091CE028091CF026A
:1004C000981789F0E091CE02F0E0EB51FD4F80816A
:1004D0002091CE0230E02F5F3F4F2F7333272093C0
:1004E000CE0290E008958FEF9FEF08950E940B22B7
:1004F0001F920F920FB60F9211242F933F934F9399
:100500005F936F937F938F939F93AF93BF93EF937B
:10051000FF9385E693E00E943C01FF91EF91BF912C
:10052000AF919F918F917F916F915F914F913F918B
:100530002F910F900FBE0F901F9018951F920F9242
:100540000FB60F9211242F938F939F93EF93FF93E6
:10055000E0917503F09176038081E0917B03F09147
:100560007C0382FD12C0908180917E038F5F8F7328
:1005700020917F03821751F0E0917E03F0E0EB5968
:10058000FC4F958F80937E0301C08081FF91EF9196
:100590009F918F912F910F900FBE0F901F901895E4
:1005A00090E0FC01E25EFE4F3491FC01E05AFE4F08
:1005B0002491FC01E45BFE4FE491EE2309F43BC07F
:1005C000332339F1333091F038F43130A9F032303F
:1005D00001F584B58F7D12C0373091F03830A1F02D
:1005E0003430B9F4809180008F7D03C08091800009
:1005F0008F77809380000DC084B58F7784BD09C04C
:100600008091B0008F7703C08091B0008F7D809380
:10061000B000F0E0EE0FFF1FE85CFE4FA591B49133
:100620008FB7F894EC91611103C020952E2301C07F
:100630002E2B2C938FBF0895CF93DF9390E0FC0176
:10064000E05AFE4F2491FC01E45BFE4F8491882325
:1006500061F190E0880F991FFC01E051FF4FC591B7
:10066000D491FC01E85CFE4FA591B491611109C0E1
:100670009FB7F8948881209582238883EC912E235C
:100680000BC0623061F49FB7F8943881822F809557
:1006900083238883EC912E2B2C939FBF06C08FB7AA
:1006A000F894E8812E2B28838FBFDF91CF91089596
:1006B0003FB7F89480912A0390912B03A0912C03CB
:1006C000B0912D0326B5A89B05C02F3F19F00196C8
:1006D000A11DB11D3FBFBA2FA92F982F8827820FC8
:1006E000911DA11DB11DBC01CD0142E0660F771F18
:1006F000881F991F4A95D1F708958F929F92AF92C4
:10070000BF92CF92DF92EF92FF926B017C010E9429
:1007100058034B015C01C114D104E104F104F1F070
:100720000E945803DC01CB0188199909AA09BB0969
:10073000883E9340A105B10570F321E0C21AD108AB
:10074000E108F10888EE880E83E0981EA11CB11C18
:10075000C114D104E104F10419F7DDCFFF90EF904B
:10076000DF90CF90BF90AF909F908F9008952FB75C
:10077000F89460912603709127038091280390914B
:1007800029032FBF08951F920F920FB60F921124C5
:100790002F933F938F939F93AF93BF9380912603A3
:1007A00090912703A0912803B0912903309125034C
:1007B00023E0230F2D3720F40196A11DB11D05C0A4
:1007C00026E8230F0296A11DB11D209325038093D7
:1007D000260390932703A0932803B09329038091C5
:1007E0002A0390912B03A0912C03B0912D03019625
:1007F000A11DB11D80932A0390932B03A0932C037A
:10080000B0932D03BF91AF919F918F913F912F9105
:100810000F900FBE0F901F9018952F923F924F92FE
:100820005F926F927F928F929F92AF92BF92CF9280
:10083000DF92EF92FF920F931F93CF93DF93CDB789
:10084000DEB768970FB6F894DEBF0FBECDBF298321
:100850003A834B835C836D837E838F839887A986DD
:10086000BA86CB86DC86ED86FE860F87188B7901EB
:100870008A01698B7A8BAF81AB8BB885BC8B8985FC
:100880009A85AB85BC858D8B9E8BAF8BB88F4D8445
:100890005E846F847888ADA4BEA4CFA4D8A899A89C
:1008A0008AA83BA82CA89501A601B701C8010E94FF
:1008B000A02118162CF07A2D6B2D9C2D8D2D04C0A7
:1008C0007E2D6F2D902F812F272F362F492F582FB8
:1008D0006D897E898F89988D0E942B2418160CF4BF
:1008E0004BC09501A601B701C8010E942B2487FDCA
:1008F00002C0750186019701A8016D897E898F89E3
:10090000988D0E94A02187FD37C0292D382D432DB9
:10091000522D69897A898B899C890E94A021181699
:100920001CF0B401C10104C079896A899B898C8952
:10093000272F362F492F582FC301B2010E942B2495
:100940001816D4F0292D382D432D522D69897A8916
:100950008B899C890E942B2487FF04C099888A88F0
:100960003B882C8811E0292D382D432D522DC301B1
:10097000B2010E94A02187FD10E0812F68960FB67A
:10098000F894DEBF0FBECDBFDF91CF911F910F91C5
:10099000FF90EF90DF90CF90BF90AF909F908F909F
:1009A0007F906F905F904F903F902F9008958EBDF5
:1009B00000000DB407FEFDCF8EB508951F920F9273
:1009C0000FB60F9211242F933F934F935F936F9322
:1009D0007F938F939F93AF93BF93EF93FF93E09198
:1009E000D002F091D102309709F451C0968DA685BE
:1009F000B785858591FF04C09C91892329F447C060
:100A00009C91892309F043C0A389B4899C9185896D
:100A1000809589238C93868997890197F1F7608D5A
:100A2000718DA685B785558538E020E0CB0101970B
:100A3000F1F7822F90E095958795282F4C914523CB
:100A400009F02068315091F7868D81FD20958091C5
:100A5000CF0290E001968F7399273091CE0238171C
:100A600049F0A091CF02B0E0AB51BD4F2C938093E1
:100A7000CF0203C0868D8160868F828D938D019712
:100A8000F1F7A389B4899C918589892B8C93FF9177
:100A9000EF91BF91AF919F918F917F916F915F91F6
:100AA0004F913F912F910F900FBE0F901F9018956F
:100AB000E091D002F091D102E817F90769F4A38917
:100AC000B4899C918589809589238C931092D10259
:100AD0001092D00281E0089580E008951F920F9255
:100AE0000FB60F9211242F933F934F935F936F9301
:100AF0007F938F939F93AF93BF93EF93FF938091D7
:100B00005304811102C00E947507FF91EF91BF91BC
:100B1000AF919F918F917F916F915F914F913F9195
:100B20002F910F900FBE0F901F901895CF92DF92CC
:100B3000EF92FF920F931F93CF93DF93CDB7DEB762
:100B40006AE572E085E693E00E94B10B6B857C85D7
:100B50008D859E850E942C096BEC72E085E693E002
:100B60000E94290B65E672E085E693E00E94B10BD6
:100B700021966CAD7DAD8EAD9FAD219742E050E0EA
:100B80000E94470860E772E085E693E00E94B10B9F
:100B900069AD7AAD8BAD9CAD42E050E00E94470854
:100BA0006BE772E085E693E00E94B10B23966EAD91
:100BB0007FAD2397072E000C880B990B0E942C0900
:100BC0006BEC72E085E693E00E94290B66E872E028
:100BD00085E693E00E94B10B6B897C898D899E89A3
:100BE0004AE050E00E94470861E972E085E693E040
:100BF0000E94B10B6F85788989899A894AE050E013
:100C00000E9447088E01055F1F4FC12CD12C760131
:100C1000C701B6010E942C096CE972E085E693E0F9
:100C20000E94B10BF80160897189828993894AE039
:100C300050E00E944708C701B6010E942C0966EAED
:100C400072E085E693E00E94B10BF801648575853A
:100C5000868597854AE050E00E944708FFEFCF1A4B
:100C6000DF0AEF0AFF0A085F1F4F84E0C816D104AD
:100C7000E104F10469F6DF91CF911F910F91FF908C
:100C8000EF90DF90CF9008954F925F926F927F9296
:100C90008F929F92AF92BF92CF92DF92EF92FF928C
:100CA0000F931F93CF93DF93CDB7DEB7A0970FB607
:100CB000F894DEBF0FBECDBF29873A874B875C878C
:100CC00027013801AD8ABE8ACF8AD88E2BED3FE04E
:100CD00049E450E40E94912420E030E044E353E4EE
:100CE0000E94FC1F6B017C012BED3FE049E450E4C6
:100CF00069857A858B859C850E949124698F7A8F7E
:100D00008B8F9C8FC701B6010E94AD214B015C0106
:100D100020E73DE642EC5AE4C301B2010E94FC1F09
:100D20002B013C010E94F71F69877A878B879C877C
:100D3000C701B6010E94F71F6D877E878F87988B4A
:100D4000C301B2010E94AD21698B7A8B8B8B9C8B86
:100D50006D897E898F89988D0E94F71F2B013C0138
:100D600029853A854B855C85C501B4010E94912493
:100D70006B017C0129893A894B895C896D857E8567
:100D80008F8598890E949124A30192010E94912449
:100D90009B01AC01C701B6010E94FE1E0E946A1FA2
:100DA0006B017C010E94AD219B01AC016D897E89A4
:100DB0008F89988D2D8F3E8F4F8F58A30E94AD2124
:100DC0002B013C012D8D3E8D4F8D58A1C501B401E5
:100DD0000E9491249B01AC0169857A858B859C8555
:100DE0000E94FD1E4B015C0129893A894B895C896F
:100DF000C301B2010E9491242D853E854F855889FB
:100E00000E949124A50194010E94981F4B015C014E
:100E100020E030E044E353E4698D7A8D8B8D9C8D26
:100E20000E94FC1FA50194010E94FE1E20E030E0FC
:100E300044E353E40E9491242BED3FE049E450E465
:100E40000E94FC1F0E946807B62E872E982EA92E9E
:100E500020E030E044E353E4C701B6010E9491244E
:100E60002BED3FE049E450E40E94FC1F0E9468071C
:100E7000E62F272F4B2D582D692D7A2D49835A8324
:100E80006B837C834E2F522FBC014D835E836F8317
:100E900078872B2D3A814B815C816E2F7E818F81EB
:100EA0009885A0960FB6F894DEBF0FBECDBFDF9138
:100EB000CF911F910F91FF90EF90DF90CF90BF9057
:100EC000AF909F908F907F906F905F904F9008951C
:100ED00020E030E543EC57E40E94912420E030E527
:100EE00043EC57E40E94FC1F0895809154049091B4
:100EF0005504009781F0DC01ED91FC910480F581AF
:100F0000E02D0995892B11F480E008958091540417
:100F10009091550411C08091560490915704DC01C2
:100F2000ED91FC910480F581E02D0995892B61F309
:100F30008091560490915704DC01ED91FC9106805C
:100F4000F781E02D09958A3031F52091D505309152
:100F5000D6059091D705F901E90FF11D1082B5E092
:100F60002D353B0739F445EE54E05093D6054093B8
:100F7000D50508C02DE535E03093D6052093D5057D
:100F800025EE34E030930304209302041092D70539
:100F900091E090930404E091D505F091D6059091ED
:100FA000D70521E0290F2093D705E90FF11D808394
:100FB0009091D705983718F097E79093D705089543
:100FC000CF92DF92EF92FF920F931F93CF93DF9315
:100FD000EC016A017B01E889F98982E0808341158F
:100FE000514E61057105B1F060E079E08DE390E06C
:100FF000A70196010E945F2589019A0101501109FC
:1010000021093109369527951795079598010115FE
:101010001041A8F0E889F989108260E874E88EE14F
:1010200090E0A70196010E945F25DA01C9010197AE
:10103000A109B109B695A795979587959C01EC856F
:10104000FD853083EE85FF852083188EEC89FD8930
:1010500086E08083EA89FB89808180618083EA89D8
:10106000FB89808188608083EA89FB898081806830
:101070008083EA89FB8980818F7D8083DF91CF9196
:101080001F910F91FF90EF90DF90CF9008954F92B6
:101090005F926F927F928F929F92AF92BF92CF9208
:1010A000DF92EF92FF92CF93DF936B017C01B42E1E
:1010B0009B01AC010E94FF21882319F060EB72E0D4
:1010C0001AC026013701E89477F82FEF3FEF4FE77A
:1010D0005FE7C301B2010E94FF21811112C02FEF0F
:1010E0003FEF4FE75FE7C301B2010E942B241816C0
:1010F00044F464EB72E085E693E00E94290BEC0176
:1011000094C02FEF3FEF4FE75FE4C701B6010E94A5
:10111000A02118161CF468EB72E0EDCF2FEF3FEF23
:101120004FE75FECC701B6010E942B2487FDF3CF88
:1011300020E030E0A901C701B6010E942B2487FFFF
:1011400011C0E0916503F09166030190F081E02DFC
:101150006DE285E693E00995EC01F7FAF094F7F873
:10116000F09402C0C0E0D0E0A12C60E070E080E02C
:101170009FE3AB1440F420E030E040E251E40E94F1
:10118000FC1FA394F6CF9B01AC01C701B6010E94DE
:10119000FE1E2B013C010E9475206B017C010E9408
:1011A00030249B01AC01C301B2010E94FD1E2B0142
:1011B0003C012AE0B701A60185E693E00E943E0BC0
:1011C000C80FD91FBB2041F06CEB72E085E693E0BD
:1011D0000E94290BC80FD91FFB2CFF2031F120E002
:1011E00030E040E251E4C301B2010E9491242B019E
:1011F0003C010E9475204B01A12CB12C2AE0B501C5
:10120000A40185E693E00E943E0BC80FD91FC501DB
:10121000B4010E9430249B01AC01C301B2010E94C1
:10122000FD1E2B013C01FA94D8CF6BEC72E085E6F1
:1012300093E00E94290B8C0F9D1FDF91CF91FF90AF
:10124000EF90DF90CF90BF90AF909F908F907F9066
:101250006F905F904F900895CF92DF92EF92FF9240
:10126000CF93DF93AB01BC0177FF23C06A017B0101
:10127000E0916503F09166030190F081E02D6DE24D
:1012800085E693E00995EC0144275527BA014C19EE
:101290005D096E097F092AE085E693E00E943E0B16
:1012A0008C0F9D1FDF91CF91FF90EF90DF90CF903B
:1012B00008952AE085E693E0DF91CF91FF90EF90CB
:1012C000DF90CF900C943E0BBC0180915404909120
:1012D0005504009721F480915604909157040C9482
:1012E0009D0B9CB59F7D9CBD9CB5937F9CBD9CB583
:1012F0009C7F9CBD9DB591609DBD682F80917804B9
:101300000E94D0028FE090E00197F1F7089581E00C
:101310000C94710980E00C947109CF93DF931F92B4
:10132000CDB7DEB70E948A0981EE0E94D704898377
:101330000E94870989810F90DF91CF910895CF9303
:10134000DF931F92CDB7DEB789830E948A09898116
:101350008F710E94D7048FEF0E94D70489830E9467
:10136000870989810F90DF91CF9108951F93CF93C3
:10137000DF9300D0CDB7DEB76A8389830E948A09E4
:1013800089818F7180620E94D704182F6A81862F0D
:101390000E94D7040E948709812F0F900F90DF9140
:1013A000CF911F910895EF92FF920F931F93CF93C8
:1013B000DF9300D01F92CDB7DEB7162F4A837B8311
:1013C00089830E948A0989818F7180620E94D70473
:1013D000082FE12E7B81F72E4A81140F1E1531F064
:1013E000F70181917F010E94D704F8CF0E948709FD
:1013F000802F0F900F900F90DF91CF911F910F9141
:10140000FF90EF900895682F809177049091780471
:1014100089130C94D002089580E00E949F0981FDF9
:101420000BC0682F626080E00E94B60965E070E042
:1014300080E090E00C947D0308950E940C0A80E007
:101440000E949F09682F616080E00E94B60960E7F2
:1014500087E00E94B60981E00E94030A80917E0421
:10146000882341F0409183046EE774E08AE00E9493
:10147000D30912C082E00E949F09E2E3F1E0E49107
:1014800021E030E001C0220FEA95EAF72095622FB3
:10149000682382E00E94B6098DE10E949F0981FDC8
:1014A0000C948D090895CF93C82F8091330388231E
:1014B00009F456C080915F0390916003DC01ED91C7
:1014C000FC910480F581E02D0995892B99F309C0E1
:1014D0002637310509F445C02835310511F410923D
:1014E000330380915F0390916003DC01ED91FC91E7
:1014F0000480F581E02D0995181619068CF5809168
:101500005F0390916003DC01ED91FC910680F7810F
:10151000E02D09959C01332723363105C9F66EEB82
:1015200072E080915F03909160030E94B10B4C2F99
:1015300050E060E070E02AE080915F0390916003EA
:101540000E943E0B65EC72E080915F039091600316
:101550000E94B10B62E370E080E090E00E947D03A6
:1015600083E6CF9108950F931F930E94B7030091D4
:101570002F03109130032091310330913203DC01AD
:10158000CB01801B910BA20BB30BC297A105B10538
:1015900038F463E070E080E090E00E947D03E5CFE6
:1015A0000E94B70360932F0370933003809331033D
:1015B000909332031F910F910895CF92DF92EF9293
:1015C000FF920F931F93CF93DF936C017A018B01EE
:1015D000C0E0D0E0CE15DF0589F0D8016D918D0116
:1015E000D601ED91FC910190F081E02DC6010995A5
:1015F000892B11F47E0102C02196ECCFC701DF9147
:10160000CF911F910F91FF90EF90DF90CF900895B1
:101610000F931F93CF93DF938C01C0E0D0E0F801CC
:10162000EC0FFD1F6491662371F0E0916503F0916A
:1016300066030190F081E02D85E693E00995892B02
:1016400011F02196ECCFCE01DF91CF911F910F9138
:1016500008956115710579F0FB0101900020E9F70B
:101660003197AF01461B570BDC01ED91FC910280D5
:10167000F381E02D099480E090E008954F925F920D
:101680006F927F92EF92FF920F931F93CF93DF930E
:10169000CDB7DEB7A1970FB6F894DEBF0FBECDBFB2
:1016A0007C01FA01CB0119A2223008F42AE08E0154
:1016B0000F5D1F4F422E512C612C712CBF01A301D5
:1016C00092010E945F25F901CA01015011096A3097
:1016D00014F4605D01C0695CD8016C93232B242B4A
:1016E000252B61F7B801C7010E94290BA1960FB6FF
:1016F000F894DEBF0FBECDBFDF91CF911F910F9148
:10170000FF90EF907F906F905F904F900895CF93F0
:10171000DF93AC0160E070E02AE085E693E00E9490
:101720003E0BEC016BEC72E085E693E00E94290B26
:101730008C0F9D1FDF91CF9108950F931F93CF932F
:10174000DF93EC010E94290B8C016BEC72E0CE015F
:101750000E94290B800F911FDF91CF911F910F9154
:1017600008950C94290BCF93DF93CDB7DEB7CC51FE
:10177000D1400FB6F894DEBF0FBECDBF789484B5CC
:10178000826084BD84B5816084BD85B5826085BD7D
:1017900085B5816085BD80916E00816080936E000B
:1017A00010928100809181008260809381008091FD
:1017B00081008160809381008091800081608093AE
:1017C00080008091B10084608093B1008091B0006E
:1017D00081608093B00080917A00846080937A0069
:1017E00080917A00826080937A0080917A00816093
:1017F00080937A0080917A00806880937A001092BA
:10180000C100109261031092620310926303109260
:10181000640310922F031092300310923103109240
:10182000320360ED77E080E090E00E947D0385E682
:1018300093E09093600380935F0340E052EC61E09B
:1018400070E00E94E0070E94B30A6DE271E08091AF
:101850005F03909160030E94B10B6AE070E080E04A
:1018600090E00E947D0381E0809333036FE371E099
:1018700085E693E00E94B10B8AE390E00E94870B1B
:101880000E94B30A6CE471E080915F039091600361
:101890000E94B10B64E571E080915F039091600359
:1018A0000E94B10B65E070E080E090E00E947D0353
:1018B0006AE070E080E090E00E947D0382E00E9498
:1018C000530A6DE571E085E693E00E94B10B88E074
:1018D00090E00E94870B0E94B30A6CE671E0809151
:1018E0005F03909160030E94B10B64E571E0809109
:1018F0005F03909160030E94B10B65E070E080E0AF
:1019000090E00E947D036AE070E080E090E00E9439
:101910007D0383E00E94530A64E771E085E693E06B
:101920000E94B10B82E290E00E94870B0E94B30AF2
:1019300062E871E080915F03909160030E94B10BB7
:1019400064E571E080915F03909160030E94B10BA8
:1019500065E070E080E090E00E947D036AE070E066
:1019600080E090E00E947D0384E00E94530A6AE8D0
:1019700071E085E693E00E94B10B84E090E00E9464
:10198000870B0E94B30A68E971E080915F03909130
:1019900060030E94B10B64E571E080915F03909158
:1019A00060030E94B10B65E070E080E090E00E946F
:1019B0007D036AE070E080E090E00E947D0385E0B6
:1019C0000E94530A60EA71E085E693E00E94B10B41
:1019D00082E090E00E94870B0E94B30A6CEA71E0FB
:1019E00080915F03909160030E94B10B64E571E008
:1019F00080915F03909160030E94B10B65E070E0FD
:101A000080E090E00E947D036AE070E080E090E07A
:101A10000E947D0386E00E94530A0E94B30A64EB91
:101A200071E080915F03909160030E94B10B64E5C7
:101A300071E080915F03909160030E94B10B65E0BB
:101A400070E080E090E00E947D036AE070E080E05A
:101A500090E00E947D0387E00E94530A1092E20406
:101A60001092E10461E089E00E941C0361E084E0DF
:101A70000E941C0361E086E00E941C0361E085E097
:101A80000E941C0340E052EC61E070E085E693E0C8
:101A90000E94E0078091770490917804891719F0EB
:101AA00061E00E941C03809178049091770498175C
:101AB00019F061E00E941C031FB7F8948091D202D4
:101AC000811127C0E6E5F1E08491EAE6F1E0949126
:101AD000E82FF0E0EE0FFF1FE051FF4FA591B4910A
:101AE000EC91E92321F461E08AE00E94D00261E0F8
:101AF0008AE00E941C038CB580618CBD8CB580642B
:101B00008CBD61E08DE00E941C0361E08BE00E94CF
:101B10001C038091D2028F5F8093D2021FBF80E0AE
:101B20000E94030A81E00E94710965E070E080E094
:101B300090E00E947D036CE080E00E94B6096FE5B2
:101B400084E00E94B60986E00E949F09877D182FD5
:101B500010628BE990E0A0E0B0E080938404909361
:101B60008504A0938604B0938704612F86E00E94C9
:101B7000B60986E00E949F09811711F40C94481B56
:101B800086E00E949F0986E00E949F0945E550E09B
:101B900060E070E040938404509385046093860471
:101BA00070938704682F677D86E00E94B60986E0FF
:101BB0000E949F090E948A0980E50E94D70483E75A
:101BC0000E94D7040E94870960E08DE10E94B60957
:101BD00060E08CE10E94B60960E787E00E94B609E8
:101BE0006CE485E00E94B6090E948A0982EE0E9498
:101BF000D7040E9487090E948D090E940C0A80E088
:101C00000E949F09682F6E7F80E00E94B609409174
:101C1000830460E071E08AE00E94D309409183046C
:101C200060E071E080E10E94D30960917C0481E171
:101C30000E94B609E1E0F1E084914091830460E004
:101C400071E00E94D309EBEFF0E0849160917C0495
:101C50000E94B60982E00E949F09E3E3F1E0E4916B
:101C600061E070E001C0660FEA95EAF7682B82E058
:101C70000E94B6090E941D0A009154041091550457
:101C80000115110509F499C0D8015B961C921E92AA
:101C90005A9759961C921E92589757961C921E92CC
:101CA00056978DE991E05D969C938E935C971C9678
:101CB0008C911C97863108F058C02DEB30E0579678
:101CC0003C932E9356972BE931E059963C932E93F3
:101CD00058972CE231E05B963C932E935A97909163
:101CE0006800883050F021E08E3008F420E081E078
:101CF00001C0880F2A95EAF701C084E0892B809300
:101D00006800F8019485983038F09E3040F09631A4
:101D100048F020E030E008C02DE630E005C02BE6BA
:101D200030E002C02CE630E0D80154963C932E936C
:101D30005397983030F481E001C0880F9A95EAF704
:101D40000EC0292F30E09E3018F42850310902C00F
:101D50002E50310981E001C0880F2A95EAF7F80179
:101D6000858B848D958D0197F1F7D8015A968D91C9
:101D70009C915B97892B59F18091D0029091D1026F
:101D80008017910721F1009711F00E945805F80182
:101D9000868D8E7F868F1092CF021092CE02109386
:101DA000D1020093D0020388F489E02D9081D801FC
:101DB00055968C91892B80830AC040E855E260E0FB
:101DC00070E080915604909157040E94E0076AE009
:101DD00070E080E090E00E947D038CEB91E00E9437
:101DE00064098EEE91E00E9464098EEF91E00E94FA
:101DF00064098FEA87BD80916E00826080936E00D7
:101E000081E08093D30268EE73E080E090E00E946E
:101E10007D036DE072E088E594E00E949D0BEFEA9F
:101E2000F0E0EC0FFD1FB096C65EDE4FF983E8834D
:101E3000CA51D1400E94B703672B682B692B41F42C
:101E40000E94B703623071058105910508F470C0E6
:101E50000E94B7036093E0027093E1028093E20274
:101E60009093E3020091DC021091DD022091DE02EA
:101E70003091DF02601771078207930740F4609387
:101E8000DC027093DD028093DE029093DF0200910A
:101E9000DC021091DD022091DE023091DF026B0145
:101EA0007C01C01AD10AE20AF30A970186010A3FAF
:101EB000110521053105E0F16093DC027093DD022C
:101EC0008093DE029093DF020E94B30A69E172E020
:101ED00080915F03909160030E94B10B61E272E018
:101EE00080915F03909160030E94B10B0E94B70341
:101EF000AB01BC012AE080915F03909160030E94D6
:101F00003E0B64E571E080915F03909160030E9455
:101F1000B10B65E070E080E090E00E947D036AE034
:101F200070E080E090E00E947D0381E00E94530A0F
:101F30000E94B7030091090110910A0120910B0141
:101F400030910C01DC01CB01801B910BA20BB30B78
:101F5000803D9740A105B10528F060E08091070120
:101F60000E94D0020E94B7030091D8021091D902BA
:101F70002091DA023091DB02DC01CB01801B910B56
:101F8000A20BB30B81319742A105B10520F060E0AF
:101F900089E00E94D0028091D302811106C0809115
:101FA0005304811102C00E9475071091040411238B
:101FB00009F46FC710920404E0900204F090030447
:101FC000F70101900020E9F73197EE19FF09CF01E1
:101FD0000497D701A80FB91F2C912A32D9F5EE0D1D
:101FE000FF1DDF0113972C91203354F02A3314F492
:101FF000205307C03FEB320F363010F4275301C097
:1020000020E040E1249F9001112432974081403329
:1020100054F04A3314F4405307C05FEB540F56306A
:1020200010F4475301C040E0240F311D62E0462FF9
:1020300050E04817590758F4F701E40FF51F4081A5
:10204000042E000C550B242735276F5FF0CF232B70
:1020500009F057C763E272E0C7010E942A22892B68
:1020600009F494C26CE270E0C7010E94102201964C
:102070001C010E9444224B015C010E9475206B01EF
:102080007C0120E137E240E050E00E945F25209390
:102090000904A4E64A2E512C612C712CA301920153
:1020A0000E945F2520930A04C701B601A301920193
:1020B0000E945F2560930B0420E030E040E85FE37E
:1020C000C501B4010E94AF2020E030E04AE754E4AB
:1020D0000E9491240E9475207093100460930F0455
:1020E0006CE270E0C1010E9410226C017C018FEF54
:1020F000E81AF80AD60111968C918C3209F4B6C010
:1021000042E050E0B701CE018B589F4F0E941B2246
:10211000E8961FAEE897CE018B589F4F0E9466222B
:102120009B01AC0160E876E988E990E00E944F25C8
:102130002B013C01B6016D5F7F4F42E050E0CE01C4
:102140008B589F4F0E941B227601B6E0EB0EF11CCC
:1021500044E050E0B70185E790E08C0F9D1F0296A8
:102160000E941B22EC961FAEEC97CE018B589F4F1E
:102170000E9466229B01AC01A2E3B0E00E9481258F
:1021800023E030E040E050E00E94C41E49015A01C3
:10219000D301C201820F931FA41FB51F809319049E
:1021A00090931A04A0931B04B0931C04C301B201C2
:1021B00020EA36E841E050E00E94C41ECA01B9019D
:1021C0000E9432242B013C01C501B4010E9432243B
:1021D0002CE933E549EC56E30E9491249B01AC01C4
:1021E000C301B2010E94FE1E2B013C016093110449
:1021F00070931204809313049093140420E030E051
:1022000048EC52E40E94FC1F0E946E204B015C01CE
:1022100084E6889DB001899D700D1124072E000C65
:10222000880B990B0E9432249B01AC01C301B201BF
:102230000E94FD1E20E030E040E752E40E94FC1FB7
:102240002B013C01B401990C880B990B0E9432249C
:102250009B01AC01C301B2010E94FE1E60932104E8
:102260007093220480932304909324046CE270E022
:10227000C7010E941022FC019C012F5F3F4F81810A
:102280008C3201F1833589F440912104509122046C
:10229000609123047091240470584093210450935A
:1022A0002204609323047093240491819E3411F0DE
:1022B000933519F49093410405C09C3209F021C66E
:1022C000109241046CE270E0C9010E9410226C017E
:1022D0007C01EFEFEE1AFE0ADC0111968C918C3234
:1022E00009F4B6C043E050E0B701CE018B589F4FD0
:1022F0000E941B22E9961FAEE997CE018B589F4F93
:102300000E9466229B01AC0160E876E988E990E0D2
:102310000E944F252B013C01B6016C5F7F4F42E0CC
:1023200050E0CE018B589F4F0E941B227601B7E0F0
:10233000EB0EF11C44E050E0B70185E790E08C0F14
:102340009D1F02960E941B22EC961FAEEC97CE01B9
:102350008B589F4F0E9466229B01AC01A2E3B0E024
:102360000E94812523E030E040E050E00E94C41E3E
:1023700049015A01D301C201820F931FA41FB51F47
:1023800080931D0490931E04A0931F04B093200417
:10239000C301B20120EA36E841E050E00E94C41EC9
:1023A000CA01B9010E9432242B013C01C501B401CC
:1023B0000E9432242CE933E549EC56E30E94912433
:1023C0009B01AC01C301B2010E94FE1E2B013C0126
:1023D0006093150470931604809317049093180467
:1023E00020E030E048EC52E40E94FC1F0E946E2086
:1023F0004B015C0184E6889DB001899D700D11241C
:10240000072E000C880B990B0E9432249B01AC0113
:10241000C301B2010E94FD1E20E030E040E752E41B
:102420000E94FC1F2B013C01B401990C880B990BF5
:102430000E9432249B01AC01C301B2010E94FE1E26
:1024400060932504709326048093270490932804B6
:102450006CE270E0C7010E941022FC019C012F5F1A
:102460003F4F81818C3201F1873589F440912504F9
:10247000509126046091270470912804705840936D
:1024800025045093260460932704709328049181B7
:10249000973511F0953419F49093420405C09C329D
:1024A00009F02FC5109242046CE270E0C9010E944D
:1024B00010227C01EFEFEE1AFE0ADC0111968C91DE
:1024C0008C3229F0C7010E944822809345046CE2B7
:1024D00070E0C7010E9410227C01BFEFEB1AFB0ADB
:1024E000FC0181818C3229F0C7010E94482280932F
:1024F00046046CE270E0C7010E9410227C01FFEFED
:10250000EF1AFF0ADC0111968C918C3259F0C70149
:102510000E94442260933D0470933E0480933F04E4
:10252000909340046CE270E0C7010E9410227C018D
:10253000BFEFEB1AFB0AFC0181818C3259F0C70115
:102540000E94442260932D0470932E0480932F04E4
:10255000909330046CE270E0C7010E9410226CE29C
:1025600070E001960E941022DC0111962C912C3211
:1025700009F4A5C201960E94442260932904709335
:102580002A0480932B0490932C0499C26AE272E08F
:10259000C7010E942A22892B09F4B3C46CE270E0BF
:1025A000C7010E94102201961C010E9444224B0187
:1025B0005C010E9475206B017C0120E137E240E064
:1025C00050E00E945F2520930904F4E64F2E512C21
:1025D000612C712CA30192010E945F2520930A04B3
:1025E000C701B601A30192010E945F2560930B040D
:1025F00020E030E040E85FE3C501B4010E94AF2075
:1026000020E030E04AE754E40E9491240E947520C3
:102610007093100460930F046CE270E0C1010E949B
:102620001022FC012181213421F421E02093440473
:1026300005C0263509F065C4109244046CE270E0D0
:1026400001960E9410226C017C01FFEFEF1AFF0A35
:10265000DC0111968C918C3209F4B6C042E050E056
:10266000B701CE018B589F4F0E941B22E8961FAEE8
:10267000E897CE018B589F4F0E9466229B01AC01C8
:1026800060E876E988E990E00E944F252B013C0143
:10269000B6016D5F7F4F42E050E0CE018B589F4FF7
:1026A0000E941B227601B6E0EB0EF11C44E050E0E4
:1026B000B70185E790E08C0F9D1F02960E941B22B8
:1026C000EC961FAEEC97CE018B589F4F0E9466226E
:1026D0009B01AC01A2E3B0E00E94812523E030E041
:1026E00040E050E00E94C41E49015A01D301C201DA
:1026F000820F931FA41FB51F8093190490931A048F
:10270000A0931B04B0931C04C301B20120EA36E875
:1027100041E050E00E94C41ECA01B9010E94322467
:102720002B013C01C501B4010E9432242CE933E5A0
:1027300049EC56E30E9491249B01AC01C301B20114
:102740000E94FE1E2B013C01609311047093120441
:10275000809313049093140420E030E048EC52E49A
:102760000E94FC1F0E946E204B015C0184E6889D44
:10277000B001899D700D1124072E000C880B990B58
:102780000E9432249B01AC01C301B2010E94FD1ED4
:1027900020E030E040E752E40E94FC1F2B013C01A6
:1027A000B401990C880B990B0E9432249B01AC0157
:1027B000C301B2010E94FE1E6093210470932204A3
:1027C00080932304909324046CE270E0C7010E947C
:1027D0001022FC019C012F5F3F4F81818C3201F15F
:1027E000833589F44091210450912204609123049F
:1027F00070912404705840932104509322046093F4
:1028000023047093240491819E3411F0933519F4BC
:102810009093410405C09C3209F073C310924104A7
:102820006CE270E0C9010E9410226C017C01EFEFA4
:10283000EE1AFE0ADC0111968C918C3209F4B6C0B6
:1028400043E050E0B701CE018B589F4F0E941B22FE
:10285000E9961FAEE997CE018B589F4F0E946622E2
:102860009B01AC0160E876E988E990E00E944F2581
:102870002B013C01B6016C5F7F4F42E050E0CE017E
:102880008B589F4F0E941B227601B7E0EB0EF11C84
:1028900044E050E0B70185E790E08C0F9D1F029661
:1028A0000E941B22EC961FAEEC97CE018B589F4FD7
:1028B0000E9466229B01AC01A2E3B0E00E94812548
:1028C00023E030E040E050E00E94C41E49015A017C
:1028D000D301C201820F931FA41FB51F80931D0453
:1028E00090931E04A0931F04B0932004C301B2016F
:1028F00020EA36E841E050E00E94C41ECA01B90156
:102900000E9432242B013C01C501B4010E943224F3
:102910002CE933E549EC56E30E9491249B01AC017C
:10292000C301B2010E94FE1E2B013C0160931504FD
:1029300070931604809317049093180420E030E0FD
:1029400048EC52E40E94FC1F0E946E204B015C0187
:1029500084E6889DB001899D700D1124072E000C1E
:10296000880B990B0E9432249B01AC01C301B20178
:102970000E94FD1E20E030E040E752E40E94FC1F70
:102980002B013C01B401990C880B990B0E94322455
:102990009B01AC01C301B2010E94FE1E609325049D
:1029A0007093260480932704909328046CE270E0CF
:1029B000C7010E941022FC019C012F5F3F4F8181C3
:1029C0008C3201F1873589F4409125045091260419
:1029D0006091270470912804705840932504509307
:1029E000260460932704709328049181973511F091
:1029F000953419F49093420405C09C3209F081C2C9
:102A0000109242046CE270E0C9010E9410227C0125
:102A1000EFEFEE1AFE0ADC0111968C918C3259F020
:102A2000C7010E9444226093310470933204809362
:102A30003304909334046CE270E0C7010E941022CA
:102A40007C01BFEFEB1AFB0AFC0181818C3259F04B
:102A5000C7010E944422609335047093360480932A
:102A60003704909338046CE270E0C7010E94102292
:102A7000DC0111962C912C3211F101960E94442216
:102A80000E9475204B015C0120E137E240E050E0FC
:102A90000E945F2520930E04E4E6CE2ED12CE12C7B
:102AA000F12CA70196010E945F2520930D04C5011A
:102AB000B401A70196010E945F2560930C041123C5
:102AC00009F41FC2809141048E3469F420E030E0A3
:102AD00048EC52E460911104709112048091130447
:102AE000909114040FC08091110490911204A09150
:102AF0001304B0911404BC01CD01905820E030E0E3
:102B000048EC52E40E94FC1F2B013C0180914204DE
:102B1000853469F420E030E048EC52E4609115041B
:102B20007091160480911704909118040FC0809141
:102B3000150490911604A0911704B0911804BC01DB
:102B4000CD01905820E030E048EC52E40E94FC1F98
:102B5000CF5FDE4F688379838A839B83C150D140E6
:102B6000C301B2010E9468076093B3047093B40478
:102B70008093B5049093B604CF5FDE4F688179816E
:102B80008A819B81C150D1400E9468076093AF0445
:102B90007093B0048093B1049093B20422EA32EBB4
:102BA00043E05FE36091310470913204809133041B
:102BB000909134040E949124CB5FDE4F6883798327
:102BC0008A839B83C550D14020E030E040E85FE33A
:102BD0000E94A02118165CF4CB5FDE4F68817981DA
:102BE0008A819B81C550D1400E94680703C060E084
:102BF00070E0CB016093DD047093DE048093DF040A
:102C00009093E004C0903504D0903604E0903704EF
:102C1000F0903804C75FDE4FC882D982EA82FB8217
:102C2000C950D140C701B6010E9468076093D9041A
:102C30007093DA048093DB049093DC0420E030E0AE
:102C400044EB52E4C701B6010E94FE1E20E030E0D2
:102C500044EB53E40E94AF20C35FDE4F6883798367
:102C60008A839B83CD50D1405B016C01E12CF12C18
:102C700000EC1FE3CF5FDE4F288139814A815B8101
:102C8000C150D140C301B2010E9444062093A10467
:102C90003093A2044093A3045093A4046093A5042A
:102CA0007093A6048093A7049093A80420E030E0DA
:102CB00044EB52E4C75FDE4F688179818A819B8152
:102CC000C950D1400E94FD1E20E030E044EB53E4A7
:102CD0000E94FE1E20E030E044EB53E40E94AF204F
:102CE000CF5EDE4F688379838A839B83C151D14055
:102CF0005B016C01CF5FDE4F288139814A815B81A6
:102D0000C150D140C301B2010E94440620938904FE
:102D100030938A0440938B0450938C0460938D0409
:102D200070938E0480938F049093900420E030E0A1
:102D300040EA50E4CB5FDE4F688179818A819B81D4
:102D4000C550D1400E949124C75FDE4FA880B98052
:102D5000CA80DB80C950D1407B018C01CF5FDE4F40
:102D6000288139814A815B81C150D140C301B201C0
:102D70000E944406C750DF4F2883C95FD040C65029
:102D8000DF4F3883CA5FD040C550DF4F4883CB5FE9
:102D9000D040C450DF4F5883CC5FD040C350DF4F8A
:102DA0006883CD5FD040C250DF4F7883CE5FD04084
:102DB000C150DF4F8883CF5FD040C050DF4F988332
:102DC000C050D140C750DF4F88819981AA81BB8113
:102DD000C95FD040CF5FDE4F88839983AA83BB83CE
:102DE000C150D140C350DF4F488059806A807B80FA
:102DF000CD5FD040C35FDE4FA880B980CA80DB8042
:102E0000CD50D140E12CF12C00EC1FE39C01AD0131
:102E1000C301B2010E9444062093990430939A049E
:102E200040939B0450939C0460939D0470939E0474
:102E300080939F049093A004CF5EDE4FA880B9805A
:102E4000CA80DB80C151D140CF5FDE4F28813981FC
:102E50004A815B81C150D140C301B2010E94440646
:102E600020939104309392044093930450939404DC
:102E700060939504709396048093970490939804BC
:102E800082E2E9E8F4E0A7EBB4E001900D928A95C4
:102E9000E1F7C0900504D0900604E0900704F0909C
:102EA00008040E94B7036C157D058E059F0550F43C
:102EB0000E94B7036093050470930604809307048F
:102EC000909308040E94B703009105041091060432
:102ED0002091070430910804DC01CB01801B910B89
:102EE000A20BB30B813D9740A105B10550F00E94A4
:102EF000B7036093050470930604809307049093CE
:102F00000804F0914404C75EDE4FF883C951D140F4
:102F1000FF2309F4B9C30E94B7030091D4021091B2
:102F2000D5022091D6023091D702DC01CB01801B63
:102F3000910BA20BB30B81329E44A105B10508F49D
:102F4000D0C080E00E94030A80918404909185049F
:102F50008230910538F0880F991F880F991F0597C7
:102F60000197F1F78DE10E949F0981FF10C08091C8
:102F70008404909185048230910538F0880F991F60
:102F8000880F991F05970197F1F70E948D0980E03E
:102F90000E949F09682F6E7F80E00E94B60982E040
:102FA0000E949F09E2E3F1E0E49161E070E001C07A
:102FB000660FEA95EAF7682B82E00E94B6090E9444
:102FC000580310917C04012F1B3308F00AE3809111
:102FD0007D04811102C0101B01C010E00E948A090B
:102FE00080EA0E94D7042BEAE22E24E0F22E015060
:102FF00030F0D7018D917D010E94D704F8CF1123C5
:1030000029F080E00E94D7041150F9CF0E9487096F
:1030100081E00E94030A0E948A098FEF0E94D70470
:10302000C45EDE4F8883CC51D1400E948709C45EC4
:10303000DE4F8881CC51D140807369F380E00E94DB
:10304000030A60E787E00E94B60984FF0CC00E9473
:103050008D0986E091E00E94080B6BEC72E085E63A
:1030600093E00E94290B0E941D0A8091AB0490916D
:10307000AC04A091AD04B091AE040196A11DB11DA8
:103080008093AB049093AC04A093AD04B093AE04D2
:1030900061E372E085E693E00E949D0BEDB7FEB719
:1030A000FA970FB6F894FEBF0FBEEDBFADB7BEB72F
:1030B00011968AE3EBEAF4E001900D928A95E1F72C
:1030C0000E9496050FB6F894DEBF0FBECDBF0E94DA
:1030D000B7036093D4027093D5028093D602909385
:1030E000D70287E10E949F0980FFD7C2CDC20E940C
:1030F000870960E787E00E94B60987E10E949F097F
:1031000080FFF7C261E089E00E94D0020E94B7030D
:103110006093D8027093D9028093DA029093DB0215
:103120006CE472E085E693E00E949D0B2DB73EB7FC
:103130002A5331090FB6F8943EBF0FBE2DBFADB76D
:10314000BEB711968AE3FE01EB58FF4F01900D9236
:103150008A95E1F70E9496058AE3FE01EB58FF4F3E
:10316000DE01DB9601900D928A95E1F7C955DF4F9C
:10317000C880D980EA80FB80C75AD0400FB6F89447
:10318000DEBF0FBECDBF20E030E040E85FE3C70107
:10319000B6010E94A02118160CF076C2E196CCAEC2
:1031A000DDAEEEAEFFAEE1978AE3FE01FB96DE01F7
:1031B000119601900D928A95E1F782E2FE013D960B
:1031C000DE01A155BF4F01900D928A95E1F7E9E824
:1031D000F4E0C75FDE4FF983E883C950D1409E0118
:1031E00021553F4F1901C75FDE4FA881B981C950F2
:1031F000D140CD90DD90ED90FC901397CF5FDE4FE6
:10320000C882D982EA82FB82C150D14014964D9087
:103210005D906D907C901797F101C080D180E28025
:10322000F38084819581A681B781CB5FDE4F88834F
:103230009983AA83BB83C550D140C751DF4F4882D1
:1032400059826A827B82C95ED040CF5FDE4F88811F
:103250009981AA81BB81C150D140C351DF4F88837E
:103260009983AA83BB83CD5ED040CB5FDE4F88813C
:103270009981AA81BB81C550D140C752DF4F888355
:103280009983AA83BB83C95DD040C352DF4FC882F4
:10329000D982EA82FB82CD5DD040FE01EF50FF4F24
:1032A000DE01AF52BF4F88E001900D928A95E1F7A1
:1032B000CF5FDE4F288139814A815B81C150D14087
:1032C000CA01B9010E94FD1E4B015C01A3019201DC
:1032D000C301B2010E94FD1EC35FDE4F6883798384
:1032E0008A839B83CD50D140A3019201CB5FDE4FF7
:1032F000688179818A819B81C550D1400E94FD1EE1
:103300009B01AC01C501B4010E949124CF5EDE4F48
:10331000688379838A839B83C151D140CF5FDE4F1D
:10332000288139814A815B81C150D140C701B601F2
:103330000E94FD1E9B01AC01C35FDE4F6881798155
:103340008A819B81CD50D1400E9491249B01AC0188
:10335000CF5EDE4F688179818A819B81C151D140E6
:103360000E94FD1E0E946E206115710509F4A2C124
:103370000CF0A3C102E010E0CF52DF4F88819981A9
:10338000AA81BB81C15DD040CB5EDE4F888399832B
:10339000AA83BB83C551D140CB52DF4F888199812D
:1033A000AA81BB81C55DD040CF5EDE4F8883998303
:1033B000AA83BB83C151D140A3019201CB5EDE4FF2
:1033C000688179818A819B81C551D1400E94FD1E0F
:1033D0009B01AC01C501B4010E9491244B015C0129
:1033E000CF5FDE4F288139814A815B81C150D14056
:1033F000CF5EDE4F688179818A819B81C151D14046
:103400000E94FD1E9B01AC01C35FDE4F6881798184
:103410008A819B81CD50D1400E9491249B01AC01B7
:10342000C501B4010E94FD1E0E946E206115710548
:1034300009F446C10CF04BC1A2E0B0E0C35FDE4F1F
:10344000B983A883CD50D140A7019601CF5EDE4F4E
:10345000688179818A819B81C151D1400E94FD1E82
:103460006B017C01CB5EDE4F288139814A815B8113
:10347000C551D140C301B2010E94FD1E9B01AC01A8
:10348000C701B6010E9491246B017C01CB5FDE4F26
:10349000288139814A815B81C550D140CB5EDE4FA6
:1034A000688179818A819B81C551D1400E94FD1E2E
:1034B0004B015C01CF5EDE4F288139814A815B81FF
:1034C000C151D140CF5FDE4F688179818A819B8174
:1034D000C150D1400E94FD1E9B01AC01C501B40149
:1034E0000E9491249B01AC01C701B6010E94FD1E00
:1034F0000E946E206115710509F0F2C0812C912C9B
:10350000CB5FDE4F19821882C550D140012B09F0E4
:103510002CC1CF51DF4F488259826A827B82C15EC3
:10352000D040CF5FDE4F88819981AA81BB81C15095
:10353000D140CB51DF4F88839983AA83BB83C55E7B
:10354000D040ADB7BEB718970FB6F894BEBF0FBE48
:10355000ADBF1196FE01EF51FF4F88E001900D9233
:103560008A95E1F7C752DF4FA880C95DD040C652A7
:10357000DF4FB880CA5DD040C552DF4FC880CB5DF9
:10358000D040C452DF4FD880CC5DD040C352DF4F13
:10359000E880CD5DD040C252DF4FF880CE5DD04094
:1035A000C152DF4F0881CF5DD040C052DF4F18813C
:1035B000C05ED040C751DF4F2881C95ED040C651A0
:1035C000DF4F3881CA5ED040C551DF4F4881CB5EA6
:1035D000D040C451DF4F5881CC5ED040C351DF4F43
:1035E0006881CD5ED040C251DF4F7881CE5ED04041
:1035F000C151DF4F8881CF5ED040C051DF4F9881ED
:10360000C05FD0400E940D040FB6F894DEBF0FBE1D
:10361000CDBF882309F4A9C0C75EDE4F3881C951E8
:10362000D140332309F4BDC16DE372E085E693E038
:103630000E949D0B0E94B7030091090110910A019D
:1036400020910B0130910C01DC01CB01801B910B0F
:10365000A20BB30B803D9740A105B10508F47DC0D6
:1036600084E090E090930801809307010E94B703E3
:103670006093090170930A0180930B0190930C01F0
:1036800061E084E00E94D0020E94C6010C941A0FEF
:1036900081E080937B040C94C00D8DE091E00E944A
:1036A000080B85E090E0CF55DF4F99838883C15A9E
:1036B000D04023CD00E010E05FCE01E010E05CCE12
:1036C000C35FDE4F19821882CD50D140BDCEE1E0FC
:1036D000F0E0C35FDE4FF983E883CD50D140B4CE34
:1036E0001616170674F192E0892E912C22E030E034
:1036F0002DC010917C041A3310F10AE380917D04EF
:10370000811102C0101B01C010E00E948A0981E6ED
:103710000E94D704CE018B589F4F7C01015038F096
:103720008FEF0E94D704D7018D937D01F7CF11232E
:1037300009F4DDCC8FEF0E94D7041150F8CF012F90
:10374000DDCF88248394912C21E030E0CB5FDE4FE5
:1037500039832883C550D140D9CE809107019091FB
:10376000080104970CF090CF7BCFC35FDE4FA88198
:10377000B981CD50D140AB2B09F085C0CF51DF4F7F
:10378000488259826A827B82C15ED040CF5FDE4F21
:10379000C880D980EA80FB80C150D140CB51DF4F37
:1037A000C882D982EA82FB82C55ED0402DB73EB77F
:1037B000285031090FB6F8943EBF0FBE2DBFADB7EC
:1037C000BEB71196FE01EF51FF4F88E001900D92B8
:1037D0008A95E1F7CF52DF4FA880C15DD040CE522D
:1037E000DF4FB880C25DD040CD52DF4FC880C35D8F
:1037F000D040CC52DF4FD880C45DD040CB52DF4F99
:10380000E880C55DD040CA52DF4FF880C65DD04029
:10381000C952DF4F0881C75DD040C852DF4F1881C1
:10382000C85DD040C751DF4F2881C95ED040C65126
:10383000DF4F3881CA5ED040C551DF4F4881CB5E33
:10384000D040C451DF4F5881CC5ED040C351DF4FD0
:103850006881CD5ED040C251DF4F7881CE5ED040CE
:10386000C151DF4F8881CF5ED040C051DF4F98817A
:10387000C05FD0400E940D040FB6F894DEBF0FBEAB
:10388000CDBF8111C9CE892809F4AAC0CB5FDE4F14
:10389000E881F981C550D140EF2B09F082C0CF51AA
:1038A000DF4F488259826A827B82C15ED040CF5FFF
:1038B000DE4F88819981AA81BB81C150D140CB5113
:1038C000DF4F88839983AA83BB83C55ED040ADB7A1
:1038D000BEB718970FB6F894BEBF0FBEADBF119616
:1038E000FE01EF52FF4F88E001900D928A95E1F7BB
:1038F000CF51DF4FA880C15ED040CE51DF4FB8809E
:10390000C25ED040CD51DF4FC880C35ED040CC51A5
:10391000DF4FD880C45ED040CB51DF4FE880C55E1A
:10392000D040CA51DF4FF880C65ED040C951DF4F4A
:103930000881C75ED040C851DF4F1881C85ED040B3
:10394000C752DF4F2881C95DD040C652DF4F388152
:10395000CA5DD040C552DF4F4881CB5DD040C452D4
:10396000DF4F5881CC5DD040C352DF4F6881CD5DC1
:10397000D040C252DF4F7881CE5DD040C152DF4F80
:103980008881CF5DD040C052DF4F9881C05ED0406B
:103990000E940D040FB6F894DEBF0FBECDBF81119B
:1039A0003BCE38E0230E311CC65EDE4F8881998104
:1039B000CA51D1402816390609F015CCC75FDE4F31
:1039C000A881B981C950D1401896C75FDE4FB9832D
:1039D000A883C950D140A95AB44009F000CC54CEB4
:1039E000EDB7FEB738970FB6F894FEBF0FBEEDBF28
:1039F000ADB7BEB71196FE01EF52FF4F88E00190C0
:103A00000D928A95E1F7C751DF4FA880C95ED0407B
:103A1000C651DF4FB880CA5ED040C551DF4FC88065
:103A2000CB5ED040C451DF4FD880CC5ED040C35174
:103A3000DF4FE880CD5ED040C251DF4FF880CE5ED0
:103A4000D040C151DF4F0881CF5ED040C051DF4F21
:103A50001881C05FD040C752DF4F2881C95DD04078
:103A6000C652DF4F3881CA5DD040C552DF4F488112
:103A7000CB5DD040C452DF4F5881CC5DD040C352A3
:103A8000DF4F6881CD5DD040C252DF4F7881CE5D7F
:103A9000D040C152DF4F8881CF5DD040C052DF4F50
:103AA0009881C05ED0400E940D040FB6F894DEBF2E
:103AB0000FBECDBF8111B0CDE9CE81E291E09093F0
:103AC00059048093580488E594E00C9458051092AA
:103AD00068031092670388EE93E0A0E0B0E0809363
:103AE000690390936A03A0936B03B0936C0321E185
:103AF00031E0309366032093650325EC30E030938A
:103B000072032093710324EC30E03093740320930C
:103B1000730320EC30E0309376032093750321EC9F
:103B200030E0309378032093770322EC30E0309339
:103B30007A032093790326EC30E030937C032093C2
:103B40007B0310927E0310927F03109280031092E9
:103B5000810325E030E03093D8042093D7043093DC
:103B6000AA042093A90427E02093770428E0209357
:103B7000780410927B0420E220937C0410927D0450
:103B800025E02093830410927E0410925B0410922F
:103B90005A0480935C0490935D04A0935E04B093F8
:103BA0005F0481E291E0909359048093580410924D
:103BB0006F0410926E0410927104109270041092AF
:103BC0007304109272041092750410927404609140
:103BD00076046E7F6D7F609376046695617081E0F8
:103BE000682782E00E94D00261E082E00E941C030C
:103BF000E2E6F1E0E491E0936804EEE4F1E0E491C0
:103C0000F0E0EE0FFF1FE85CFE4F859194919093DA
:103C10006A048093690460E083E00E941C03809141
:103C2000760481FD04C061E083E00E94D00283E05D
:103C300080936404E3E6F1E0E491E0936504EFE44B
:103C4000F1E0E491F0E0EE0FFF1FEE5BFE4F859197
:103C50009491909367048093660410925704109295
:103C6000560410920404109253041092D7058DE567
:103C700095E09093D6058093D50585EE94E09093DA
:103C8000030480930204109246041092450410929B
:103C90000E0410920D0410920C0410920B0410925A
:103CA0000A041092090410924304109242041092E4
:103CB0004104109244041092100410920F041092C8
:103CC0003D0410923E0410923F0410924004109262
:103CD000390410923A0410923B0410923C04109262
:103CE0003504109236041092370410923804109262
:103CF0003104109232041092330410923404109262
:103D00002D0410922E0410922F0410923004109261
:103D1000290410922A0410922B0410922C04109261
:103D200015041092160410921704109218041092A1
:103D3000110410921204109213041092140488E5D6
:103D400094E090935504809354040E94B7036093C9
:103D50000504709306048093070490930804089563
:103D600097FB072E16F4009407D077FD09D00E9428
:103D7000E31E07FC05D03EF4909581959F4F089572
:103D8000709561957F4F0895052E97FB1EF4009462
:103D90000E94DB1E57FD07D00E945F2507FC03D061
:103DA0004EF40C94DB1E50954095309521953F4F75
:103DB0004F4F5F4F089590958095709561957F4F17
:103DC0008F4F9F4F0895AA1BBB1B51E107C0AA1F2D
:103DD000BB1FA617B70710F0A61BB70B881F991FAC
:103DE0005A95A9F780959095BC01CD010895EE0FE5
:103DF000FF1F0590F491E02D09945058BB27AA2786
:103E00000E94151F0C9415250E94072538F00E946A
:103E10000E2520F039F49F3F19F426F40C94042564
:103E20000EF4E095E7FB0C94FE24E92F0E94262572
:103E300058F3BA17620773078407950720F079F4DF
:103E4000A6F50C9448250EF4E0950B2EBA2FA02D64
:103E50000B01B90190010C01CA01A0011124FF2737
:103E6000591B99F0593F50F4503E68F11A16F04032
:103E7000A22F232F342F4427585FF3CF4695379531
:103E80002795A795F0405395C9F77EF41F16BA0BF6
:103E9000620B730B840BBAF09150A1F0FF0FBB1FA4
:103EA000661F771F881FC2F70EC0BA0F621F731FED
:103EB000841F48F4879577956795B795F7959E3F4A
:103EC00008F0B0CF9395880F08F09927EE0F9795DB
:103ED000879508959F939F77EEE389379E0728F48F
:103EE000E8E6F0E00E944D210CC00E94F8209058B6
:103EF000A2EA2AED3FE049EC5FE30E94151F0E9411
:103F000015250F9007FC905808950E94072560F032
:103F100080E891E009F49EEF0E940E2528F040E829
:103F200051E071F45EEF0CC00C9404250C9448250C
:103F3000E92FE0780E94262540F3092E052AB1F3E7
:103F4000261737074807590738F00E2E07F8E025DF
:103F500069F0E025E0640AC0EF6307F8009407FA0F
:103F6000DB01B9019D01DC01CA01AD01EF930E94A3
:103F700013200E9415250E94C81F5F91552339F018
:103F80002BED3FE049E450FD49EC0C94FE1E0895F2
:103F9000DF93DD27B92FBF7740E85FE316161706DA
:103FA00048075B0718F4D92F0E94A5219F938F9390
:103FB0007F936F930E94FB21ECE7F0E00E942621A3
:103FC0000E9415252F913F914F915F910E94A4244B
:103FD000DD2351F09058A2EA2AED3FE049EC5FE37F
:103FE000D0785D270E94151FDF910C9415250E9443
:103FF0006321E3950C948C210E9410200C941525CC
:104000000E940E2558F00E94072540F029F45F3FDA
:1040100029F00C94FE2451110C9449250C9404258C
:104020000E94262568F39923B1F3552391F3951B3C
:10403000550BBB27AA2762177307840738F09F5FC9
:104040005F4F220F331F441FAA1FA9F335D00E2E36
:104050003AF0E0E832D091505040E695001CCAF7A3
:104060002BD0FE2F29D0660F771F881FBB1F261766
:1040700037074807AB07B0E809F0BB0B802DBF013D
:10408000FF2793585F4F3AF09E3F510578F00C940C
:10409000FE240C9449255F3FE4F3983ED4F38695C3
:1040A00077956795B795F7959F5FC9F7880F911D2D
:1040B0009695879597F90895E1E0660F771F881F19
:1040C000BB1F621773078407BA0720F0621B730BCC
:1040D000840BBA0BEE1F88F7E09508950E947520B7
:1040E0006894B1110C94492508950E942E2588F0FA
:1040F0009F5798F0B92F9927B751B0F0E1F0660FAC
:10410000771F881F991F1AF0BA95C9F714C0B130EC
:1041100091F00E944825B1E008950C944825672F3E
:10412000782F8827B85F39F0B93FCCF3869577951B
:104130006795B395D9F73EF4909580957095619504
:104140007F4F8F4F9F4F08950E94072520F019F051
:104150000E940E2550F40C9404250C944925E92F57
:104160000E94262588F35523B1F3E7FB62177307F6
:1041700084079507A8F189F3E92FFF2788232AF000
:104180003197660F771F881FDAF7952F552744233D
:1041900032F091505040220F331F441FD2F7BB27FB
:1041A000E91BF50B621B730B840BB109B1F222F40E
:1041B000620F731F841FB11D31972AF0660F771F9E
:1041C000881FBB1FEFCF9150504062F041F0882311
:1041D00032F0660F771F881F91505040C1F79395BA
:1041E0000C9418218695779567959F5FD9F7F7CF3F
:1041F000DF93CF931F930F938B01EC01E9EAF0E07B
:104200000E9426210E9415259801AE018B01EC0128
:1042100060E070E080E89FE30E94FD1E0E94BB21E9
:104220009801AE010F911F91CF91DF910C94A424BE
:104230009F3F31F0915020F4879577956795B7951A
:10424000880F911D9695879597F90895DF93CF93E1
:104250001F930F93FF92EF92DF927B018C01689482
:1042600006C0DA2EEF010E94A424FE01E894A59175
:104270002591359145915591A6F3EF010E94151FA7
:10428000FE019701A801DA9469F7DF90EF90FF90A3
:104290000F911F91CF91DF9108959F938F937F93FB
:1042A0006F93FF93EF939B01AC010E949124EF91D8
:1042B000FF910E9426212F913F914F915F910C9485
:1042C00091240C9404250E942E25D8F3E894E0E074
:1042D000BB279F57F0F02AED3FE049EC06C0EE0FF8
:1042E000BB0F661F771F881F28F0B23A620773075B
:1042F000840728F0B25A620B730B840BE3959A95EE
:1043000072F7803830F49A95BB0F661F771F881FAD
:10431000D2F790480C941A21EF93E0FF07C0A2EA6D
:104320002AED3FE049EC5FEB0E94151F0E94152526
:104330000F90039401FC9058E1EDF0E00C944D21B6
:104340000E946D2408F48FEF08959B01AC0160E09A
:1043500070E080E89FE30C94FC1F9F930E94632110
:104360000F9007FCEE5F0C948C2119F416F40C945A
:1043700004250C9418210E942E25B8F39923C9F323
:10438000B6F39F57550B87FF0E9404220024A0E636
:1043900040EA900180585695979528F4805C660F06
:1043A000771F881F20F026173707480730F4621B55
:1043B000730B840B202931294A2BA6951794079457
:1043C000202531254A2758F7660F771F881F20F0D0
:1043D00026173707480730F4620B730B840B200D48
:1043E000311D411DA09581F7B901842F9158880F87
:1043F0009695879508959B01AC010C9491240E9499
:104400006D24880B990B089591505040660F771FCB
:10441000881FD2F7089581E090E0F8940C94D2259B
:10442000FC018191861721F08823D9F799270895F7
:104430003197CF010895FB01DC014150504048F015
:1044400001900D920020C9F701C01D9241505040CB
:10445000E0F70895FB0151915523A9F0BF01DC015C
:104460004D9145174111E1F759F4CD01019000201C
:1044700049F04D9140154111C9F3FB014111EFCFB6
:1044800081E090E001970895662777270C94B32286
:10449000FC0188279927E89421912032E9F32930FB
:1044A00010F02E30C8F32B3241F02D3239F46894DD
:1044B00004C00E94AB22820F911D219120532A300B
:1044C000C0F31EF4909581959F4F08951F93FC01B2
:1044D00099278827BC01E89411911032E9F319302B
:1044E00010F01E30C8F31B3251F01D3249F46894AD
:1044F00006C00E949622610F711D811D911D1191B0
:1045000010531A30B0F33EF49095809570956195F4
:104510007F4F8F4F9F4F1F91089591110C9410243E
:10452000803219F089508550C8F70895592F482FC7
:10453000372F262F660F771F881F991F660F771F4B
:10454000881F991F620F731F841F951F660F771FA7
:10455000881F991F08957AE0979F902D879F802D3F
:10456000910D11240895A0E0B0E0E9EBF2E20C9483
:104570009025EC017B016115710519F0DB018D932C
:104580009C938E010F5F1F4F7880872D90E00E94D3
:104590008D22892B11F0E801F4CFBDE27B1205C01A
:1045A0000F5F1F4F7980C1E008C0EBE27E1204C0AC
:1045B0008E010E5F1F4F7980C0E06801F1E0CF1AD5
:1045C000D10843E050E06CE771E0C6010E9413247B
:1045D000892BF1F4680122E0C20ED11C45E050E0C5
:1045E00067E771E0C6010E941324892B21F468015A
:1045F00087E0C80ED11CE114F10419F0D701CD9267
:10460000DC92C111FFC060E070E080E89FE703C169
:1046100043E050E064E771E0C6010E941324892B57
:1046200051F4E114F10409F4F2C00E5F1F4FF701D9
:1046300011830083ECC0680160E070E0CB0100E012
:1046400010E0F601D0EDD70DDA3058F52C2F2260AE
:10465000622E2C2F2870C2FF05C0211128C00F5FC9
:104660001F4F25C0222311F001501109A5E0B0E031
:104670009B01AC010E9481254B015C01880C991CB7
:10468000AA1CBB1CC501B4016D0F711D811D911DBC
:104690006839A9E97A078A07A9E19A0740F0C66054
:1046A00005C0DE3F51F4C3FD44C0C8606C2EBFEFAF
:1046B000CB1ADB0A7080C62DC4CF2D2F2F7D25315C
:1046C000C1F540814D3211F4C06106C04B3221F07A
:1046D000319621E030E006C03296D60111964C9119
:1046E00022E030E0A0EDA40FAA3018F0E21BF30B9B
:1046F00020C040E050E04038BCE05B075CF49A0129
:10470000220F331F220F331F420F531F440F551F19
:104710004A0F511D3196DF0111972C91A0EDA20F88
:10472000AA3048F3C4FF03C0519541955109040FC5
:10473000151FC1FF07C0E114F10421F03197D70123
:10474000ED93FC930E943024C370C33019F06B01C9
:104750007C0106C06B017C01F7FAF094F7F8F09445
:1047600020E030E0A901C701B6010E942B24882374
:1047700009F445C017FF06C0119501951109C3E959
:10478000D1E002C0CBEAD1E05E01B8E1AB1AB108DA
:104790004601BE2DAF2D90E2E92EF12C0E151F051E
:1047A00084F0FE012591359145915491B4018B2FF0
:1047B0009A2F0E9491244B01B82FA92F0E191F097F
:1047C000EDCF2497F594E794CA15DB0539F764011A
:1047D000EB2EFA2E8E2D880F8F2D881F8F3F49F0DC
:1047E00020E030E0A901C701B6010E942B2481110D
:1047F00006C082E290E09093D9058093D805C70166
:10480000B60109C060E070E080E89FEF04C060E09E
:1048100070E080EC9FE7CDB7DEB7EEE00C94AC25FE
:10482000992788270895FB01DC014150504088F00A
:104830008D9181341CF08B350CF4805E6591613470
:104840001CF06B350CF4605E861B611171F3990BE3
:104850000895881BFCCF0E946D2408F481E0089520
:10486000E89409C097FB3EF490958095709561950A
:104870007F4F8F4F9F4F9923A9F0F92F96E9BB27C0
:104880009395F695879577956795B795F111F8CF3C
:10489000FAF4BB0F11F460FF1BC06F5F7F4F8F4FA7
:1048A0009F4F16C0882311F096E911C0772321F09D
:1048B0009EE8872F762F05C0662371F096E8862F35
:1048C00070E060E02AF09A95660F771F881FDAF78C
:1048D000880F9695879597F90895990F0008550FB9
:1048E000AA0BE0E8FEEF16161706E807F907C0F076
:1048F00012161306E407F50798F0621B730B840B7E
:10490000950B39F40A2661F0232B242B252B21F457
:1049100008950A2609F4A140A6958FEF811D811DF7
:1049200008950E94A4240C9415250E94072538F0B0
:104930000E940E2520F0952311F00C94FE240C9477
:10494000042511240C9449250E94262570F3959F77
:10495000C1F3950F50E0551F629FF001729FBB2776
:10496000F00DB11D639FAA27F00DB11DAA1F649F12
:104970006627B00DA11D661F829F2227B00DA11DC5
:10498000621F739FB00DA11D621F839FA00D611D4B
:10499000221F749F3327A00D611D231F849F600D6C
:1049A000211D822F762F6A2F11249F5750409AF095
:1049B000F1F088234AF0EE0FFF1FBB1F661F771F21
:1049C000881F91505040A9F79E3F510580F00C94EC
:1049D000FE240C9449255F3FE4F3983ED4F386957A
:1049E00077956795B795F795E7959F5FC1F7FE2B8C
:1049F000880F911D9695879597F9089597F99F6768
:104A000080E870E060E008959FEF80EC0895002456
:104A10000A941616170618060906089500240A9423
:104A200012161306140605060895092E0394000CA9
:104A300011F4882352F0BB0F40F4BF2B11F460FF38
:104A400004C06F5F7F4F8F4F9F4F089557FD905861
:104A5000440F551F59F05F3F71F04795880F97FB42
:104A6000991F61F09F3F79F08795089512161306FC
:104A70001406551FF2CF4695F1DF08C0161617062B
:104A80001806991FF1CF8695710561050894089560
:104A9000E894BB2766277727CB0197F90895DB01B8
:104AA0008F939F930E948125BF91AF91A29F800D0C
:104AB000911DA39F900DB29F900D11240895A1E226
:104AC0001A2EAA1BBB1BFD010DC0AA1FBB1FEE1F88
:104AD000FF1FA217B307E407F50720F0A21BB30BD3
:104AE000E40BF50B661F771F881F991F1A9469F74F
:104AF00060957095809590959B01AC01BD01CF01AB
:104B000008950E94C325A59F900DB49F900DA49F6A
:104B1000800D911D112408952F923F924F925F9224
:104B20006F927F928F929F92AF92BF92CF92DF92BD
:104B3000EF92FF920F931F93CF93DF93CDB7DEB722
:104B4000CA1BDB0B0FB6F894DEBF0FBECDBF0994B6
:104B50002A88398848885F846E847D848C849B840D
:104B6000AA84B984C884DF80EE80FD800C811B811B
:104B7000AA81B981CE0FD11D0FB6F894DEBF0FBE4A
:104B8000CDBFED010895A29FB001B39FC001A39FC7
:104B9000700D811D1124911DB29F700D811D112476
:104BA000911D089510E0C9EDD0E004C0FE010E94FF
:0E4BB000F71E2196CA3DD107C9F7F894FFCF32
:104BBE00416C6C56656800060000000000000000A5
:104BCE00005D01DD0A260104011801A401000000A8
:104BDE0000E901DD0A3D025502D001E801564D44BF
:104BEE0050565F317C315F564D4450560D0A00735E
:104BFE00697A656F662862736D662900564D44505A
:104C0E00455F32005F564D4450450D0A0073697A78
:104C1E00656F662867656F646F742900564D445042
:104C2E00455F330073697A656F662863706F6C79C0
:104C3E002900564D4450455F340073697A656F669E
:104C4E0028666C6F61742900564D4450455F3500DF
:104C5E0073697A656F6628696E742900564D4450E3
:104C6E00455F3600564D4450455F370024504D5435
:104C7E004B3331342C302C312C302C312C302C3019
:104C8E002C302C302C302C302C302C302C302C3036
:104C9E002C302C302C302C302C302A323800245032
:104CAE004D544B3232302C3130302A3246002450A3
:104CBE0047434D442C33332C312A36430024504D78
:104CCE00544B3630352A333100564D4450455F3102
:104CDE00007C0024475047474100244750524D4323
:104CEE000053656E64696E672042534D00636172B6
:104CFE0020736F6D652077686572650072656365F8
:104D0E006976696E672042534D0062736D49642067
:104D1E0020203A200053706565642020203A200040
:104D2E0068656164696E67203A200076656849643B
:104D3E002020203A20006C617420202020203A2070
:104D4E00006C6F6E67202020203A20006C6174206A
:104D5E002020203A20006C6F6E672020203A200021
:104D6E006E616E00696E66006F7666002E00564D9F
:0E4D7E004450435F005F564D4450430D0A0001
:00000001FF
