:100000000C94AE000C94D6000C94D6000C941706F9
:100010000C9417060C9417060C94D6000C94D6007A
:100020000C94D6000C94D6000C94D6000C94D600F8
:100030000C94D6000C94D6000C94D6000C94D600E8
:100040000C94D9030C94D6000C94F0020C94CA02C0
:100050000C94D6000C94D6000C94D6000C94D600C8
:100060000C94D6000C94D600036EDB363D9A999919
:10007000993DABAAAA2A3E000000803F084AD73B20
:100080003BCE016E84BCBFFDC12F3D6C74319ABD67
:1000900056833DDA3D00C77F11BED9E4BB4C3E918B
:1000A0006BAAAABE000000803F072C7AA5BA6CC5D7
:1000B00090DA3B9365FC8BBC53F810FD3C56928361
:1000C0004DBD879D3AB63DCBC9BF5BBE73DA0FC944
:1000D0003F05A84CCDB2D44EB93836A9020C50B960
:1000E000918688083CA6AAAA2ABE000000803F008C
:1000F0001112131415160A0B0C0D0E0F6661696CA4
:10010000656400000000080002010000030407000D
:1001100000000000000000000102030405000000D0
:1001200000250028002B0000000000240027002AE2
:100130000004040404040404040202020202020390
:10014000030303030301020408102040800102049A
:1001500008102001020408102000ED1111241FBE18
:10016000CFEFD8E0DEBFCDBF11E0A0E0B1E0EAE91B
:10017000FEE202C005900D92A43AB107D9F723E040
:10018000A4EAB1E001C01D92AB38B207E1F710E07C
:10019000CEEAD0E004C02197FE010E944F12CD3A72
:1001A000D107C9F70E94B0080C944B170C940000BB
:1001B000FC01918D828D981761F0828DDF01A80F6F
:1001C000B11D5D968C91928D9F5F9F73928F90E091
:1001D00008958FEF9FEF0895FC01918D828D981700
:1001E00031F0828DE80FF11D858D90E008958FEF3D
:1001F0009FEF0895FC01918D228D892F90E0805C06
:100200009F4F821B91098F739927089588ED92E083
:100210000E94FA0021E0892B09F420E0822F089542
:10022000FC01848DDF01A80FB11DA35ABF4F2C9193
:10023000848D90E001968F739927848FA689B78962
:100240002C93A089B1898C9180648C93938D848D3B
:10025000981306C00288F389E02D80818F7D80830A
:100260000895EF92FF920F931F93CF93DF93EC01CA
:1002700081E0888F9B8D8C8D981305C0E889F98962
:10028000808185FD24C0F62E0B8D10E00F5F1F4F7F
:100290000F731127E02E8C8DE8120CC00FB607FCEF
:1002A000FACFE889F989808185FFF5CFCE010E94D8
:1002B0001001F1CF8B8DFE01E80FF11DE35AFF4FC6
:1002C000F0820B8FEA89FB898081806207C0EE890A
:1002D000FF896083E889F98980818064808381E077
:1002E00090E0DF91CF911F910F91FF90EF900895D3
:1002F000CF93DF93EC01888D8823C9F0EA89FB89CD
:10030000808185FD05C0A889B9898C9186FD0FC0C3
:100310000FB607FCF5CF808185FFF2CFA889B98998
:100320008C9185FFEDCFCE010E941001E7CFDF91C8
:10033000CF91089580E090E0892B29F00E9406017A
:1003400081110C94000008950E9463154F925F92F2
:100350006F927F928F929F92AF92BF92CF92DF92D5
:10036000EF92FF920F931F93CF93DF93CDB7DEB73A
:10037000A0970FB6F894DEBF0FBECDBF29873A878E
:100380004B875C8727013801AD8ABE8ACF8AD88E19
:100390002BED3FE049E450E40E942A1620E030E0D3
:1003A00044E353E40E9454136B017C012BED3FE0C6
:1003B00049E450E469857A858B859C850E942A16DC
:1003C000698F7A8F8B8F9C8FC701B6010E940515AC
:1003D0004B015C0120E73DE642EC5AE4C301B20167
:1003E0000E9454132B013C010E944F1369877A87A6
:1003F0008B879C87C701B6010E944F136D877E874C
:100400008F87988BC301B2010E940515698B7A8B87
:100410008B8B9C8B6D897E898F89988D0E944F1361
:100420002B013C0129853A854B855C85C501B401CA
:100430000E942A166B017C0129893A894B895C89C3
:100440006D857E858F8598890E942A16A301920169
:100450000E942A169B01AC01C701B6010E945612E8
:100460000E94C2126B017C010E9405159B01AC0128
:100470006D897E898F89988D2D8F3E8F4F8F58A3E0
:100480000E9405152B013C012D8D3E8D4F8D58A1ED
:10049000C501B4010E942A169B01AC0169857A85C9
:1004A0008B859C850E9455124B015C0129893A89F4
:1004B0004B895C89C301B2010E942A162D853E85B5
:1004C0004F8558890E942A16A50194010E94F012B6
:1004D0004B015C0120E030E044E353E4698D7A8D08
:1004E0008B8D9C8D0E945413A50194010E9456127D
:1004F00020E030E044E353E40E942A162BED3FE075
:1005000049E450E40E9454130E945F07B62E872EE0
:10051000982EA92E20E030E044E353E4C701B60151
:100520000E942A162BED3FE049E450E40E94541348
:100530000E945F07E62F272F4B2D582D692D7A2D0E
:1005400049835A836B837C834E2F522FBC014D838A
:100550005E836F8378872B2D3A814B815C816E2F70
:100560007E818F819885A0960FB6F894DEBF0FBE6E
:10057000CDBFDF91CF911F910F91FF90EF90DF9052
:10058000CF90BF90AF909F908F907F906F905F9033
:100590004F9008951F920F920FB60F9211242F9330
:1005A0003F934F935F936F937F938F939F93AF93FB
:1005B000BF93EF93FF9388ED92E00E941001FF91AB
:1005C000EF91BF91AF919F918F917F916F915F91CB
:1005D0004F913F912F910F900FBE0F901F90189544
:1005E0001F920F920FB60F9211242F938F939F9308
:1005F000EF93FF93E091E802F091E9028081E091AE
:10060000EE02F091EF0282FD12C090818091F10222
:100610008F5F8F732091F202821751F0E091F10207
:10062000F0E0E852FD4F958F8093F10201C0808188
:10063000FF91EF919F918F912F910F900FBE0F908F
:100640001F90189590E0FC01ED5FFE4F3491FC0186
:10065000EB5BFE4F2491FC01EF5CFE4FE491EE2337
:1006600009F43BC0332339F1333091F038F43130A1
:10067000A9F0323001F584B58F7D12C0373091F08A
:100680003830A1F03430B9F4809180008F7D03C000
:10069000809180008F77809380000DC084B58F7724
:1006A00084BD09C08091B0008F7703C08091B000F5
:1006B0008F7D8093B000F0E0EE0FFF1FE35EFE4FF2
:1006C000A591B4918FB7F894EC91611103C0209576
:1006D0002E2301C02E2B2C938FBF08953FB7F89483
:1006E0008091D4029091D502A091D602B091D70208
:1006F00026B5A89B05C02F3F19F00196A11DB11D7D
:100700003FBFBA2FA92F982F8827820F911DA11DB7
:10071000B11DBC01CD0142E0660F771F881F991FF4
:100720004A95D1F708958F929F92AF92BF92CF9240
:10073000DF92EF92FF926B017C010E946E034B01EE
:100740005C01C114D104E104F104F1F00E946E03D4
:10075000DC01CB0188199909AA09BB09883E93409D
:10076000A105B10570F321E0C21AD108E108F10832
:1007700088EE880E83E0981EA11CB11CC114D10420
:10078000E104F10419F7DDCFFF90EF90DF90CF90F7
:10079000BF90AF909F908F9008952FB7F89460917D
:1007A000D0027091D1028091D2029091D3022FBFDA
:1007B00008951F920F920FB60F9211242F933F931B
:1007C0008F939F93AF93BF938091D0029091D1026A
:1007D000A091D202B091D3023091CF0223E0230F37
:1007E0002D3720F40196A11DB11D05C026E8230F69
:1007F0000296A11DB11D2093CF028093D002909349
:10080000D102A093D202B093D3028091D4029091EE
:10081000D502A091D602B091D7020196A11DB11DBB
:100820008093D4029093D502A093D602B093D702BE
:10083000BF91AF919F918F913F912F910F900FBEDC
:100840000F901F9018952F923F924F925F926F9248
:100850007F928F929F92AF92BF92CF92DF92EF9250
:10086000FF920F931F93CF93DF93CDB7DEB76897B7
:100870000FB6F894DEBF0FBECDBF29833A834B83FA
:100880005C836D837E838F839887A986BA86CB86A7
:10089000DC86ED86FE860F87188B79018A01698BCD
:1008A0007A8BAF81AB8BB885BC8B89859A85AB85FC
:1008B000BC858D8B9E8BAF8BB88F4D845E846F848F
:1008C0007888ADA4BEA4CFA4D8A899A88AA83BA82C
:1008D0002CA89501A601B701C8010E94F8141816AA
:1008E0002CF07A2D6B2D9C2D8D2D04C07E2D6F2D1F
:1008F000902F812F272F362F492F582F6D897E89D2
:100900008F89988D0E94C41518160CF44BC0950160
:10091000A601B701C8010E94C41587FD02C0750178
:1009200086019701A8016D897E898F89988D0E9423
:10093000F81487FD37C0292D382D432D522D698994
:100940007A898B899C890E94F81418161CF0B401CE
:10095000C10104C079896A899B898C89272F362F28
:10096000492F582FC301B2010E94C4151816D4F0A4
:10097000292D382D432D522D69897A898B899C899F
:100980000E94C41587FF04C099888A883B882C88F8
:1009900011E0292D382D432D522DC301B2010E94A3
:1009A000F81487FD10E0812F68960FB6F894DEBF2B
:1009B0000FBECDBFDF91CF911F910F91FF90EF90B0
:1009C000DF90CF90BF90AF909F908F907F906F906F
:1009D0005F904F903F902F9008952F923F924F92AB
:1009E0005F926F927F928F929F92AF92BF92CF92BF
:1009F000DF92EF92FF920F931F93CF93DF93CDB7C8
:100A0000DEB7A4970FB6F894DEBF0FBECDBF1C01B2
:100A100009871A872B873C874D875E876F87788B7E
:100A2000C9A2DAA2EBA2FCA28D8A9E8AAF8AB88EF6
:100A30004D845E846F84788889859A85AB85BC8572
:100A4000898B9A8BAB8BBC8B20E030E044EB52E47B
:100A5000C501B4010E94561220E030E044EB53E49B
:100A60000E940714698F7A8F8B8F9C8F5B016C01BA
:100A7000E12CF12C00EC1FE329893A894B895C8930
:100A8000C301B2010E94A601D10158962C93589738
:100A900059963C9359975A964C935A975B965C9308
:100AA0005B975C966C935C975D967C935D975E9686
:100AB0008C935E975F969C9320E030E044EB52E489
:100AC0006D897E898F89988D0E94551220E030E0D3
:100AD00044EB53E40E94561220E030E044EB53E430
:100AE0000E9407146D8F7E8F8F8F98A35B016C011E
:100AF00029893A894B895C89C301B2010E94A60108
:100B0000F101208331834283538364837583868319
:100B1000978322EA32EB43E05FE369A17AA18BA1DC
:100B20009CA10E942A1620E030E040E051E40E949F
:100B30002A16AD88BE88CF88D88C7B018C01298984
:100B40003A894B895C89C301B2010E94A6012983BD
:100B50003A834B835C836D837E838F8398878981FF
:100B60009A81AB81BC81898B9A8BAB8BBC8B4D807E
:100B70005E806F807884A98CBA8CCB8CDC8CE12C65
:100B8000F12C00EC1FE39C01AD01C301B2010E94F6
:100B9000A601D10150962C93509751963C935197B2
:100BA00052964C93529753965C93539754966C93EA
:100BB000549755967C93559756968C93569757967F
:100BC0009C93AD8CBE8CCF8CD8A029893A894B8957
:100BD0005C89C301B2010E94A601F101208731871F
:100BE000428753876487758786879787C101A49654
:100BF0000FB6F894DEBF0FBECDBFDF91CF911F912E
:100C00000F91FF90EF90DF90CF90BF90AF909F90AB
:100C10008F907F906F905F904F903F902F900895AE
:100C20008EBD00000DB407FEFDCF8EB508951F9256
:100C30000F920FB60F9211240F900FBE0F901F90BE
:100C40001895CF92DF92EF92FF920F931F93CF935D
:100C5000DF936C017A018B01C0E0D0E0CE15DF0597
:100C600089F0D8016D918D01D601ED91FC91019033
:100C7000F081E02DC6010995892B11F47E0102C097
:100C80002196ECCFC701DF91CF911F910F91FF907B
:100C9000EF90DF90CF900895009769F0FC010190EC
:100CA0000020E9F73197AF01481B590BBC0188EDD3
:100CB00092E00C94210680E090E0089590E0FC0121
:100CC000EB5BFE4F2491FC01EF5CFE4F8491882387
:100CD00099F090E0880F991FFC01E95DFE4FA59106
:100CE000B491FC01E35EFE4F859194918FB7F89427
:100CF000EC91E22BEC938FBF08959CB59F7D9CBD3A
:100D00009CB5937F9CBD9CB59C7F9CBD9DB591601F
:100D10009DBD682F809176030E9422038FE090E0B2
:100D20000197F1F7089581E00C947D0680E00C9422
:100D30007D06CF93DF931F92CDB7DEB70E94960654
:100D400081EE0E94100689830E94930689810F908C
:100D5000DF91CF910895CF93DF931F92CDB7DEB788
:100D600089830E94960689818F710E9410068FEFF9
:100D70000E94100689830E94930689810F90DF915B
:100D8000CF9108951F93CF93DF9300D0CDB7DEB7F7
:100D90006A8389830E94960689818F7180620E948E
:100DA0001006182F6A81862F0E9410060E94930653
:100DB000812F0F900F90DF91CF911F910895EF92A7
:100DC000FF920F931F93CF93DF9300D01F92CDB765
:100DD000DEB7162F4A837B8389830E94960689811A
:100DE0008F7180620E941006082FE12E7B81F72E02
:100DF0004A81140F1E1531F0F70181917F010E9485
:100E00001006F8CF0E949306802F0F900F900F903E
:100E1000DF91CF911F910F91FF90EF900895682F70
:100E2000809175039091760389130C9422030895A1
:100E300080E00E94AB0681FD0BC0682F626080E0FD
:100E40000E94C20665E070E080E090E00C9493039D
:100E500008950E94180780E00E94AB06682F616029
:100E600080E00E94C20660E787E00E94C20681E03F
:100E70000E940F0780917C03882341F040918103F9
:100E80006CE773E08AE00E94DF0612C082E00E94F5
:100E9000AB06E7E1F1E0E49121E030E001C0220F90
:100EA000EA95EAF72095622F682382E00E94C20645
:100EB0008DE10E94AB0681FD0C949906089520E017
:100EC00030E543EC57E40E942A1620E030E543EC7D
:100ED00057E40E9454130895E091D802F091D9028A
:100EE0000190F081E02D682F88ED92E009948F92B7
:100EF0009F92AF92BF920F931F93CF93DF93CDB783
:100F0000DEB7A1970FB6F894DEBF0FBECDBF19A212
:100F1000423008F44AE08E010F5D1F4F842E912C61
:100F2000A12CB12CA50194010E941A17E62FB9013A
:100F3000CA0101501109EA3014F4E05D01C0E95C16
:100F4000D801EC93232B242B252B61F7C8010E9499
:100F50004C06A1960FB6F894DEBF0FBECDBFDF9151
:100F6000CF911F910F91BF90AF909F908F90089558
:100F70004F925F926F927F928F929F92AF92BF92A9
:100F8000CF92DF92EF92FF926B017C01B42E9B0116
:100F9000AC010E945715882319F086E991E027C01B
:100FA00026013701E89477F82FEF3FEF4FE75FE72F
:100FB000C301B2010E94571581110DC02FEF3FEF01
:100FC0004FE75FE7C301B2010E94C41518161CF475
:100FD0008AE991E00CC02FEF3FEF4FE75FE4C701D4
:100FE000B6010E94F814181684F48EE991E0FF907F
:100FF000EF90DF90CF90BF90AF909F908F907F90B9
:101000006F905F904F900C944C062FEF3FEF4FE79F
:101010005FECC701B6010E94C41587FDE6CF20E052
:1010200030E0A901C701B6010E94C41587FF09C0BD
:101030008DE20E946C074C01F7FAF094F7F8F094F7
:1010400002C0812C912CA12C60E070E080E09FE335
:10105000AB1441F020E030E040E251E40E94541330
:10106000A394F6CF9B01AC01C701B6010E945612B2
:101070002B013C010E94CD136B017C010E94C9151C
:101080009B01AC01C301B2010E9455122B013C012E
:101090004AE0C701B6010E9477077C01E80CF91C01
:1010A000BB2031F082EA91E00E944C06E80EF91E66
:1010B000DB2CDD2021F120E030E040E251E4C301EF
:1010C000B2010E942A162B013C010E94CD134B0154
:1010D000A12CB12C4AE0C501B4010E947707E80EAB
:1010E000F91EC501B4010E94C9159B01AC01C301E1
:1010F000B2010E9455122B013C01DA94DACFC701EC
:10110000FF90EF90DF90CF90BF90AF909F908F9027
:101110007F906F905F904F9008950C944C06CF9302
:10112000DF930E94B807EC0184E391E00E944C0633
:101130008C0F9D1FDF91CF910895FC010FB6F8949D
:1011400060918703709188038091890390918A034D
:101150000FBE309721F0608371838283938308955B
:10116000CF93DF93CDB7DEB7C550D1400FB6F8941B
:10117000DEBF0FBECDBF789484B5826084BD84B5D8
:10118000816084BD85B5826085BD85B5816085BD82
:1011900080916E00816080936E001092810080913A
:1011A00081008260809381008091810081608093C2
:1011B0008100809180008160809380008091B100E7
:1011C00084608093B1008091B00081608093B00012
:1011D00080917A00846080937A0080917A008260A6
:1011E00080937A0080917A00816080937A00809168
:1011F0007A00806880937A001092C10080E090E0CD
:101200000E949D08CB010E94B915E091E802F0917F
:10121000E90282E08083E091E402F091E50210822D
:10122000E091E602F091E70280E180831092F00203
:10123000E091EC02F091ED0286E08083E091EA0219
:10124000F091EB02808180618083E091EA02F0916D
:10125000EB02808188608083E091EA02F091EB02EA
:10126000808180688083E091EA02F091EB028081C6
:101270008F7D808382E090E09093BA018093B901E2
:10128000809175039091760389130E945E06809188
:1012900076039091750398130E945E061FB7F89429
:1012A0008091A401811124C0EBE3F1E08491EFE48B
:1012B000F1E09491E82FF0E0EE0FFF1FE95DFE4FA3
:1012C000A591B491EC91E92321F461E08AE00E94B8
:1012D00022038AE00E945E068CB580618CBD8CB5CD
:1012E00080648CBD8DE00E945E068BE00E945E06ED
:1012F0008091A4018F5F8093A4011FBF80E00E94B2
:101300000F0781E00E947D0665E070E080E090E0DC
:101310000E9493036CE080E00E94C2066FE584E0C7
:101320000E94C20686E00E94AB06877D182F1062DD
:101330008BE990E0A0E0B0E0809382039093830378
:10134000A0938403B0938503612F86E00E94C206B8
:1013500086E00E94AB06811709F422C686E00E944F
:10136000AB0686E00E94AB0645E550E060E070E029
:1013700040938203509383036093840370938503A7
:10138000682F677D86E00E94C20686E00E94AB0659
:101390000E94960680E50E94100683E70E941006D0
:1013A0000E94930660E08DE10E94C20660E08CE13D
:1013B0000E94C20660E787E00E94C2066CE485E0F6
:1013C0000E94C2060E94960682EE0E9410060E94AB
:1013D00093060E9499060E94180780E00E94AB06BF
:1013E000682F6E7F80E00E94C2064091810360E01A
:1013F00071E08AE00E94DF064091810360E071E0C5
:1014000080E10E94DF0660917A0381E10E94C206BA
:10141000E7EFF0E084914091810360E071E00E9489
:10142000DF06E1EFF0E0849160917A030E94C2064A
:1014300082E00E94AB06E8E1F1E0E49101E010E017
:10144000980101C0220FEA95EAF7682F622B82E02B
:101450000E94C2060E94290786E290E09093C20192
:101460008093C1018AEB90E2A4E8B5E48093C301C4
:101470009093C401A093C501B093C6018EE48093FC
:10148000C70188E09EE0A2E0B6E48093C801909393
:10149000C901A093CA01B093CB0187E58093CC0129
:1014A00080E090E0A4EBB2E48093CD019093CE0174
:1014B000A093CF01B093D0011093D2010093D1013A
:1014C0008AE090E09093D4018093D30189E00E9458
:1014D0005E0684E00E945E0686E00E945E0685E06D
:1014E0000E945E069E012F5D3F4FCF51DF4F398333
:1014F0002883C15ED040C9018096CD5FDE4F9983BD
:101500008883C350D1408091D9018111BDC08091A1
:10151000C7018E3469F420E030E048EC52E4609179
:10152000C3017091C4018091C5019091C6010FC0A3
:101530008091C3019091C401A091C501B091C601F1
:10154000BC01CD01905820E030E048EC52E40E940C
:1015500054134B015C018091CC01853469F420E087
:1015600030E048EC52E46091C8017091C90180916B
:10157000CA019091CB010FC08091C8019091C9011F
:10158000A091CA01B091CB01BC01CD01905820E0DF
:1015900030E048EC52E40E9454136B017C0181E27C
:1015A00091E00E948D0844E0C501B4010E94B80793
:1015B0008091C7010E946C0781E391E00E948D0831
:1015C00044E0C701B6010E94B8078091CC010E9497
:1015D0006C0784E391E00E944C06C501B4010E94AF
:1015E0005F076093AD017093AE018093AF0190935C
:1015F000B001C701B6010E945F076093A901709313
:10160000AA018093AB019093AC016091C1017091EC
:10161000C201072E000C880B990B0E94CB1522EA01
:1016200032EB43E05FE30E942A166B017C0120E06D
:1016300030E040E85FE30E94F81418162CF4C7016C
:10164000B6010E945F0703C060E070E0CB016093C9
:10165000B5017093B6018093B7019093B801609182
:10166000CD017091CE018091CF019091D0010E9467
:101670005F076093B1017093B2018093B3019093BF
:10168000B40181E08093D9010E94CD03009109014A
:1016900010910A0120910B0130910C01DC01CB016A
:1016A000801B910BA20BB30B803D9740A105B105A8
:1016B00028F060E0809107010E9422030E94CD0380
:1016C0000091D5011091D6012091D7013091D80118
:1016D000DC01CB01801B910BA20BB30B8131974234
:1016E000A105B10520F060E089E00E94220380910D
:1016F000D1019091D201892B09F44FC40E94CD03EE
:101700000091BD011091BE012091BF013091C00137
:10171000DC01CB01801B910BA20BB30B893C910523
:10172000A105B10508F4CDC080E00E940F078091AB
:101730008203909183038230910538F0880F991FBE
:10174000880F991F05970197F1F78DE10E94AB066D
:1017500081FF10C0809182039091830382309105B4
:1017600038F0880F991F880F991F05970197F1F797
:101770000E94990680E00E94AB06682F6E7F80E091
:101780000E94C20682E00E94AB06E7E1F1E0E4912C
:1017900061E070E001C0660FEA95EAF7682B82E02D
:1017A0000E94C2060E946E0310917A03012F193124
:1017B00008F008E180917B03811102C0101B01C079
:1017C00010E00E94960680EA0E94100685EAE82E44
:1017D00081E0F82E015030F0D7018D917D010E94FB
:1017E0001006F8CF112329F080E00E941006115056
:1017F000F9CF0E94930681E00E940F070E9496068F
:101800008FEF0E941006CB5FDE4F8883C550D1401A
:101810000E949306CB5FDE4F8881C550D140807314
:1018200069F380E00E940F0760E787E00E94C2062C
:1018300084FF28C00E9499060CEF10E0F801649123
:10184000611111C084E391E00E944C060E94B4151E
:1018500064E170E00E942712BC01990F880B990B7C
:101860000E9493030FC0E091D802F091D902019039
:10187000F081E02D88ED92E009950F5F1F4F892BD5
:10188000E9F6E0CF0E9429078091A5019091A60179
:10189000A091A701B091A8010196A11DB11D80934F
:1018A000A5019093A601A093A701B093A8010E945F
:1018B000CD036093BD017093BE018093BF019093EF
:1018C000C00187E10E94AB0680FD67C387E10E94EB
:1018D000AB0680FF78C361E089E00E9422030E948A
:1018E000CD036093D5017093D6018093D701909377
:1018F000D8018DE791E00E944C0684E391E00E94BC
:101900004C06CF55DF4F488059806A807B80C15A92
:10191000D040CB55DF4F88819981AA81BB81C55AC0
:10192000D040C951DF4F88839983AA83BB83C75EA8
:10193000D040C755DF4F88809980AA80BB80C95AA4
:10194000D040C355DF4FC880D980EA80FB80CD5A94
:10195000D040CF54DF4F88819981AA81BB81C15B80
:10196000D040CD51DF4F88839983AA83BB83C35E68
:10197000D040CB54DF4F08811981C55BD0408BE844
:1019800091E00E948D0877FE0FC38DE20E946C07E4
:1019900066277727CB0164197509860997094AE0FC
:1019A0000E94770784E391E00E944C0687E391E070
:1019B0000E948D0842E050E0CD51DF4F688179816F
:1019C0008A819B81C35ED0400E948F0882E491E0AF
:1019D0000E948D0842E050E0C701B6010E948F08C6
:1019E0008DE491E00E948D086801110FEE08FF0858
:1019F000F7FEDEC28DE20E946C0766277727CB01D7
:101A00006C197D098E099F094AE00E94770784E3DB
:101A100091E00E944C0688E591E00E948D084AE022
:101A200050E0C501B4010E948F0883E691E00E9456
:101A30008D084AE050E0C951DF4F688179818A8181
:101A40009B81C75ED0400E948F0888E1E5EAF1E003
:101A5000DE01A757BF4F01900D928A95E1F788E10B
:101A6000FE01EF55FF4FDE01AF58BF4F01900D92C1
:101A70008A95E1F7CF54DF4FC880D980EA80FB8098
:101A8000C15BD04020E030E040E85FE3C701B60131
:101A90000E94F81418160CF080C288E1FE01E75786
:101AA000FF4FDE01A75ABF4F01900D928A95E1F7D3
:101AB000CB56DF4F488059806A807B80C559D04023
:101AC000C756DF4F88819981AA81BB81C959D0400F
:101AD000CD51DF4F88839983AA83BB83C35ED040F7
:101AE000CF57DF4FC882D982EA82FB82C158D040EB
:101AF00088E1FE01EF58FF4FDE01AF5BBF4F019061
:101B00000D928A95E1F7C358DF4F88809980AA80AB
:101B1000BB80CD57D04026960FAD269727961FAD98
:101B2000279728962FAD289729963FAD29972A9673
:101B30004FAD2A972B965FAD2B972C966FAD2C97B8
:101B40002D967FAD2D97CE0181960E94ED04530115
:101B50004201CD51DF4FC880D980EA80FB80C35E4F
:101B6000D0406E960FAD6E976F961FAD6F97A09693
:101B70002FADA097A1963FADA197A2964FADA2978A
:101B8000A3965FADA397A4966FADA497A5967FADDE
:101B9000A597CE0101960E94ED04DE011196C95170
:101BA000DF4FB983A883C75ED0409E012F5D3F4FB2
:101BB0001901C951DF4FE881F981C75ED0404080EB
:101BC00051806280738084819581A681B781CD51D7
:101BD000DF4F88839983AA83BB83C35ED040D10142
:101BE0008D919D910D90BC91A02DC151DF4F8883A7
:101BF0009983AA83BB83CF5ED040F101C480D58096
:101C0000E680F780CD51DF4F88819981AA81BB8121
:101C1000C35ED040CF52DF4F88839983AA83BB83B2
:101C2000C15DD040CB52DF4F488259826A827B82AD
:101C3000C55DD040CF53DF4FC882D982EA82FB8294
:101C4000C15CD040C151DF4F88819981AA81BB819D
:101C5000CF5ED040CB53DF4F88839983AA83BB8369
:101C6000C55CD040FE01E752FF4FDE01A754BF4FD5
:101C700088E001900D928A95E1F7A3019201C301DA
:101C8000B2010E945512C950DF4F688379838A835D
:101C90009B83C75FD040CD51DF4F288139814A8176
:101CA0005B81C35ED040CA01B9010E945512C55084
:101CB000DF4F688379838A839B83CB5FD040C7548F
:101CC000DF4F88819981AA81BB81C95BD040CD500B
:101CD000DF4F88839983AA83BB83C35FD040C354FB
:101CE000DF4F88819981AA81BB81CD5BD040C551EE
:101CF000DF4F88839983AA83BB83CB5ED040C151D9
:101D0000DF4F288139814A815B81CF5ED040BC01A1
:101D1000CD010E9455124B015C01CD50DF4F28814F
:101D200039814A815B81C35FD040CD51DF4F6881EB
:101D300079818A819B81C35ED0400E9455129B01AC
:101D4000AC01C501B4010E942A164B015C01A70138
:101D50009601CD50DF4F688179818A819B81C35F75
:101D6000D0400E945512C150DF4F688379838A8327
:101D70009B83CF5FD040C551DF4F288139814A8195
:101D80005B81CB5ED040C301B2010E9455129B0122
:101D9000AC01C150DF4F688179818A819B81CF5F1F
:101DA000D0400E942A169B01AC01C501B4010E94DB
:101DB00055120E94C6134B01CD51DF4F2881398146
:101DC0004A815B81C35ED040C701B6010E945512B3
:101DD0009B01AC01C950DF4F688179818A819B8169
:101DE000C75FD0400E942A166B017C01A3019201BB
:101DF000C151DF4F688179818A819B81CF5ED0405C
:101E00000E9455129B01AC01C550DF4F688179815A
:101E10008A819B81CB5FD0400E942A169B01AC0136
:101E2000C701B6010E9455120E94C613672B09F024
:101E3000F8C0CD51DF4F88819981AA81BB81C35EF3
:101E4000D040C753DF4F88839983AA83BB83C95C83
:101E5000D040C353DF4F488259826A827B82CD5C77
:101E6000D040ADB7BEB718970FB6F894BEBF0FBE3F
:101E7000ADBF1196FE01E753FF4F88E001900D9230
:101E80008A95E1F7CF53DF4FA880C15CD040CE5395
:101E9000DF4FB880C25CD040CD53DF4FC880C35CF9
:101EA000D040CC53DF4FD880C45CD040CB53DF4F01
:101EB000E880C55CD040CA53DF4FF880C65CD04094
:101EC000C953DF4F0881C75CD040C853DF4F18812A
:101ED000C85CD040CF52DF4F2881C15DD040CE5288
:101EE000DF4F3881C25DD040CD52DF4F4881C35DA6
:101EF000D040CC52DF4F5881C45DD040CB52DF4F31
:101F00006881C55DD040CA52DF4F7881C65DD04040
:101F1000C952DF4F8881C75DD040C852DF4F9881DA
:101F2000C85DD0400E9423040FB6F894DEBF0FBEF8
:101F3000CDBF882309F475C08EE691E00E944C065F
:101F400084E391E00E944C060E94CD0300910901B8
:101F500010910A0120910B0130910C01DC01CB01A1
:101F6000801B910BA20BB30B803D9740A105B105DF
:101F700018F184E090E090930801809307010E949B
:101F8000CD036093090170930A0180930B01909334
:101F90000C0161E084E00E9422030E949A01B3CA0E
:101FA00081E080937903DAC94AE0C301B201F8CC39
:101FB0004AE0C701B60129CD80910701909108013F
:101FC00004975CF7D6CF10917A03183110F008E12E
:101FD00001C0012F80917B03811102C0101B01C041
:101FE00010E00E94960681E60E9410069E012F5581
:101FF0003F4F7901015038F08FEF0E941006D70152
:102000008D937D01F7CF112329F08FEF0E941006E9
:102010001150F9CF0E94930660E787E00E94C20644
:1020200055CCCD51DF4F288139814A815B81C35E18
:10203000D040CD50DF4F688179818A819B81C35F19
:10204000D0400E9455129B01AC01C950DF4F6881FE
:1020500079818A819B81C75FD0400E942A166B01DB
:102060007C01A3019201C551DF4F688179818A818A
:102070009B81CB5ED0400E9455129B01AC01C550A4
:10208000DF4F688179818A819B81CB5FD0400E943C
:102090002A169B01AC01C701B6010E9455120E948D
:1020A000C613672B09F082C0CD51DF4F888199811B
:1020B000AA81BB81C35ED040C753DF4F8883998319
:1020C000AA83BB83C95CD040C353DF4F4882598287
:1020D0006A827B82CD5CD040ADB7BEB718970FB691
:1020E000F894BEBF0FBEADBF1196FE01E753FF4F80
:1020F00088E001900D928A95E1F7C754DF4FA880E0
:10210000C95BD040C654DF4FB880CA5BD040C554CD
:10211000DF4FC880CB5BD040C454DF4FD880CC5B4E
:10212000D040C354DF4FE880CD5BD040C254DF4F76
:10213000F880CE5BD040C154DF4F0881CF5BD040E8
:10214000C054DF4F1881C05CD040CF52DF4F288190
:10215000C15DD040CE52DF4F3881C25DD040CD52FC
:10216000DF4F4881C35DD040CC52DF4F5881C45D02
:10217000D040CB52DF4F6881C55DD040CA52DF4F9F
:102180007881C65DD040C952DF4F8881C75DD0409D
:10219000C852DF4F9881C85DD0400E9423040FB61B
:1021A000F894DEBF0FBECDBF8111C6CE892809F0DD
:1021B000EFC02DB73EB7285031090FB6F8943EBF97
:1021C0000FBE2DBFADB7BEB71196FE01E754FF4F4E
:1021D00088E001900D928A95E1F7CF52DF4FA880F9
:1021E000C15DD040CE52DF4FB880C25DD040CD52ED
:1021F000DF4FC880C35DD040CC52DF4FD880C45D74
:10220000D040CB52DF4FE880C55DD040CA52DF4F8F
:10221000F880C65DD040C952DF4F0881C75DD0400D
:10222000C852DF4F1881C85DD040CF53DF4F28819F
:10223000C15CD040CE53DF4F3881C25CD040CD531B
:10224000DF4F4881C35CD040CC53DF4F5881C45C22
:10225000D040CB53DF4F6881C55CD040CA53DF4FBD
:102260007881C65CD040C953DF4F8881C75CD040BD
:10227000C853DF4F9881C85CD0400E9423040FB63A
:10228000F894DEBF0FBECDBF811156CECD51DF4FCA
:1022900088819981AA81BB81C35ED040C753DF4F3B
:1022A00088839983AA83BB83C95CD040C353DF4F23
:1022B000488259826A827B82CD5CD040ADB7BEB77E
:1022C00018970FB6F894BEBF0FBEADBF1196FE01B2
:1022D000E754FF4F88E001900D928A95E1F7C753CC
:1022E000DF4FA880C95CD040C653DF4FB880CA5CBE
:1022F000D040C553DF4FC880CB5CD040C453DF4FC4
:10230000D880CC5CD040C353DF4FE880CD5CD04058
:10231000C253DF4FF880CE5CD040C153DF4F0881FD
:10232000CF5CD040C053DF4F1881C05DD040CF5349
:10233000DF4F2881C15CD040CE53DF4F3881C25C73
:10234000D040CD53DF4F4881C35CD040CC53DF4FEA
:102350005881C45CD040CB53DF4F6881C55CD0400E
:10236000CA53DF4F7881C65CD040C953DF4F8881A4
:10237000C75CD040C853DF4F9881C85CD0400E94F2
:1023800023040FB6F894DEBF0FBECDBF8111D4CDAC
:1023900038E0230E311CCD5FDE4F88819981C35018
:1023A000D1402816390609F004CCC951DF4FA88165
:1023B000B981C75ED0401896C951DF4FB983A88351
:1023C000C75ED040CF51DF4FE881F981C15ED04078
:1023D000AE17BF0709F0E9CBE0CDE8EDF2E01382DC
:1023E000128288EE93E0A0E0B0E084839583A68318
:1023F000B78385E191E09183808385EC90E09587B8
:10240000848784EC90E09787868780EC90E0918BBE
:10241000808B81EC90E0938B828B82EC90E0958BAB
:10242000848B86EC90E0978B868B118E128E138EA8
:10243000148EE5E7F3E087E0808388E081831482EF
:1024400080E28583168285E084871782089597FB52
:10245000072E16F4009407D077FD09D00E943B1296
:1024600007FC05D03EF4909581959F4F0895709597
:1024700061957F4F0895AA1BBB1B51E107C0AA1F9E
:10248000BB1FA617B70710F0A61BB70B881F991F15
:102490005A95A9F780959095BC01CD010895EE0F4E
:1024A000FF1F0590F491E02D09945058BB27AA27EF
:1024B0000E946D120C94AE160E94A01638F00E9475
:1024C000A71620F039F49F3F19F426F40C949D16BA
:1024D0000EF4E095E7FB0C949716E92F0E94BF16C7
:1024E00058F3BA17620773078407950720F079F449
:1024F000A6F50C94E1160EF4E0950B2EBA2FA02D44
:102500000B01B90190010C01CA01A0011124FF27A0
:10251000591B99F0593F50F4503E68F11A16F0409B
:10252000A22F232F342F4427585FF3CF469537959A
:102530002795A795F0405395C9F77EF41F16BA0B5F
:10254000620B730B840BBAF09150A1F0FF0FBB1F0D
:10255000661F771F881FC2F70EC0BA0F621F731F56
:10256000841F48F4879577956795B795F7959E3FB3
:1025700008F0B0CF9395880F08F09927EE0F979544
:10258000879508959F939F77EEE389379E0728F4F8
:10259000E8E6F0E00E94A5140CC00E945014905888
:1025A000A2EA2AED3FE049EC5FE30E946D120E942F
:1025B000AE160F9007FC905808950E94A01660F088
:1025C00080E891E009F49EEF0E94A71628F040E809
:1025D00051E071F45EEF0CC00C949D160C94E11662
:1025E000E92FE0780E94BF1640F3092E052AB1F3C7
:1025F000261737074807590738F00E2E07F8E02549
:1026000069F0E025E0640AC0EF6307F8009407FA78
:10261000DB01B9019D01DC01CA01AD01EF930E940C
:102620006B130E94AE160E9420135F91552339F060
:102630002BED3FE049E450FD49EC0C94561208950F
:10264000DF93DD27B92FBF7740E85FE31616170643
:1026500048075B0718F4D92F0E94FD149F938F93AE
:102660007F936F930E945315ECE7F0E00E947E1475
:102670000E94AE162F913F914F915F910E943D169F
:10268000DD2351F09058A2EA2AED3FE049EC5FE3E8
:10269000D0785D270E946D12DF910C94AE160E94D7
:1026A000BB14E3950C94E4140E9468130C94AE16CA
:1026B0000E94A71658F00E94A01640F029F45F3F30
:1026C00029F00C94971651110C94E2160C949D1657
:1026D0000E94BF1668F39923B1F3552391F3951B1C
:1026E000550BBB27AA2762177307840738F09F5F33
:1026F0005F4F220F331F441FAA1FA9F335D00E2EA0
:102700003AF0E0E832D091505040E695001CCAF70C
:102710002BD0FE2F29D0660F771F881FBB1F2617CF
:1027200037074807AB07B0E809F0BB0B802DBF01A6
:10273000FF2793585F4F3AF09E3F510578F00C9475
:1027400097160C94E2165F3FE4F3983ED4F3869517
:1027500077956795B795F7959F5FC9F7880F911D96
:102760009695879597F90895E1E0660F771F881F82
:10277000BB1F621773078407BA0720F0621B730B35
:10278000840BBA0BEE1F88F7E09508950E94CD13D5
:102790006894B1110C94E21608950E94C71688F04F
:1027A0009F5798F0B92F9927B751B0F0E1F0660F15
:1027B000771F881F991F1AF0BA95C9F714C0B13056
:1027C00091F00E94E116B1E008950C94E116672F94
:1027D000782F8827B85F39F0B93FCCF38695779585
:1027E0006795B395D9F73EF490958095709561956E
:1027F0007F4F8F4F9F4F08950E94A01620F019F031
:102800000E94A71650F40C949D160C94E216E92F22
:102810000E94BF1688F35523B1F3E7FB62177307D5
:1028200084079507A8F189F3E92FFF2788232AF069
:102830003197660F771F881FDAF7952F55274423A6
:1028400032F091505040220F331F441FD2F7BB2764
:10285000E91BF50B621B730B840BB109B1F222F477
:10286000620F731F841FB11D31972AF0660F771F07
:10287000881FBB1FEFCF9150504062F041F088237A
:1028800032F0660F771F881F91505040C1F7939523
:102890000C9470148695779567959F5FD9F7F7CF5D
:1028A000DF93CF931F930F938B01EC01E9EAF0E0E4
:1028B0000E947E140E94AE169801AE018B01EC01BD
:1028C00060E070E080E89FE30E9455120E941315BB
:1028D0009801AE010F911F91CF91DF910C943D169D
:1028E0009F3F31F0915020F4879577956795B79584
:1028F000880F911D9695879597F90895DF93CF934B
:102900001F930F93FF92EF92DF927B018C016894EB
:1029100006C0DA2EEF010E943D16FE01E894A59153
:102920002591359145915591A6F3EF010E946D12C5
:10293000FE019701A801DA9469F7DF90EF90FF900C
:102940000F911F91CF91DF9108959F938F937F9364
:102950006F93FF93EF939B01AC010E942A16EF91B6
:10296000FF910E947E142F913F914F915F910C94A3
:102970002A160C949D160E94C716D8F3E894E0E03E
:10298000BB279F57F0F02AED3FE049EC06C0EE0F61
:10299000BB0F661F771F881F28F0B23A62077307C4
:1029A000840728F0B25A620B730B840BE3959A9557
:1029B00072F7803830F49A95BB0F661F771F881F17
:1029C000D2F790480C947214EF93E0FF07C0A2EA8C
:1029D0002AED3FE049EC5FEB0E946D120E94AE16BB
:1029E0000F90039401FC9058E1EDF0E00C94A514D5
:1029F0000E94061608F48FEF08959B01AC0160E079
:102A000070E080E89FE30C9454139F930E94BB14E2
:102A10000F9007FCEE5F0C94E41419F416F40C9478
:102A20009D160C9470140E94C716B8F39923C9F32D
:102A3000B6F39F57550B87FF0E945C150024A0E654
:102A400040EA900180585695979528F4805C660F6F
:102A5000771F881F20F026173707480730F4621BBE
:102A6000730B840B202931294A2BA69517940794C0
:102A7000202531254A2758F7660F771F881F20F039
:102A800026173707480730F4620B730B840B200DB1
:102A9000311D411DA09581F7B901842F9158880FF0
:102AA0009695879508959B01AC010C942A160E9477
:102AB0000616880B990B089591505040660F771FAA
:102AC000881FD2F7089581E090E0F8940C944B179A
:102AD0008F929F92AF92BF92CF92DF92EF92FF922E
:102AE000CF93DF93EC01688179818A819B816115A5
:102AF00071058105910521F464E279ED8BE597E09C
:102B00002DE133EF41E050E00E94E81649015A01FF
:102B10009B01AC01A7EAB1E40E9407176B017C019D
:102B2000ACEEB4EFA50194010E941517DC01CB01B6
:102B30008C0D9D1DAE1DBF1DB7FF03C00197A109E0
:102B4000B04888839983AA83BB839F77DF91CF9115
:102B5000FF90EF90DF90CF90BF90AF909F908F90BD
:102B600008950E94681508958DE091E00E9468150F
:102B70000895A0E0B0E080930D0190930E01A09322
:102B80000F01B093100108950E94061608F481E029
:102B90000895E89409C097FB3EF490958095709550
:102BA00061957F4F8F4F9F4F9923A9F0F92F96E999
:102BB000BB279395F695879577956795B795F1110E
:102BC000F8CFFAF4BB0F11F460FF1BC06F5F7F4FAB
:102BD0008F4F9F4F16C0882311F096E911C07723BD
:102BE00021F09EE8872F762F05C0662371F096E8C6
:102BF000862F70E060E02AF09A95660F771F881F95
:102C0000DAF7880F9695879597F90895990F000838
:102C1000550FAA0BE0E8FEEF16161706E807F907AE
:102C2000C0F012161306E407F50798F0621B730B49
:102C3000840B950B39F40A2661F0232B242B252BCA
:102C400021F408950A2609F4A140A6958FEF811D6D
:102C5000811D08950E943D160C94AE160E94A01688
:102C600038F00E94A71620F0952311F00C949716C7
:102C70000C949D1611240C94E2160E94BF1670F35A
:102C8000959FC1F3950F50E0551F629FF001729F11
:102C9000BB27F00DB11D639FAA27F00DB11DAA1F20
:102CA000649F6627B00DA11D661F829F2227B00D6D
:102CB000A11D621F739FB00DA11D621F839FA00DF8
:102CC000611D221F749F3327A00D611D231F849F48
:102CD000600D211D822F762F6A2F11249F5750409F
:102CE0009AF0F1F088234AF0EE0FFF1FBB1F661F1A
:102CF000771F881F91505040A9F79E3F510580F0E3
:102D00000C9497160C94E2165F3FE4F3983ED4F3CC
:102D1000869577956795B795F795E7959F5FC1F786
:102D2000FE2B880F911D9695879597F9089597F931
:102D30009F6780E870E060E008959FEF80EC089561
:102D400000240A941616170618060906089500248A
:102D50000A9412161306140605060895092E039404
:102D6000000C11F4882352F0BB0F40F4BF2B11F478
:102D700060FF04C06F5F7F4F8F4F9F4F089557FDD7
:102D80009058440F551F59F05F3F71F04795880FD9
:102D900097FB991F61F09F3F79F087950895121670
:102DA00013061406551FF2CF4695F1DF08C016161C
:102DB00017061806991FF1CF8695710561050894CD
:102DC0000895E894BB2766277727CB0197F90895E4
:102DD000052E97FB1EF400940E94FF1657FD07D0A6
:102DE0000E941A1707FC03D04EF40C94FF1650955E
:102DF0004095309521953F4F4F4F5F4F08959095E7
:102E00008095709561957F4F8F4F9F4F08950E94D9
:102E10003C17A59F900DB49F900DA49F800D911D10
:102E200011240895B7FF0C9407170E940717821BFF
:102E3000930B0895A1E21A2EAA1BBB1BFD010DC026
:102E4000AA1FBB1FEE1FFF1FA217B307E407F5075A
:102E500020F0A21BB30BE40BF50B661F771F881F36
:102E6000991F1A9469F760957095809590959B01CC
:102E7000AC01BD01CF010895A29FB001B39FC00175
:102E8000A39F700D811D1124911DB29F700D811D96
:0A2E90001124911D0895F894FFCF5E
:102E9A00416C6C56656800060000000000010000E5
:102EAA00000000000031012106FA00D800EC007889
:102EBA000143414C43204C6F636174696F6E3A2041
:102ECA00002C20000D0A0053706565642020203A0A
:102EDA00200068656164696E67203A20007665683B
:102EEA0049642020203A20006C6174202020202090
:102EFA003A20006C6F6E67202020203A2000636120
:102F0A007220736F6D6520776865726500726563FC
:102F1A00656976696E672042534D0062736D496434
:102F2A002020203A20006E616E00696E66006F767E
:042F3A0066002E00FF
:00000001FF
