:100000000C94D1000C94F9000C94F9000C941C078A
:100010000C941C070C941C070C94F9000C94F90028
:100020000C94F9000C94F9000C94F9000C94F9006C
:100030000C94F9000C94F9000C94AC070C94F900A2
:100040000C94DE040C94F9000C94B9030C94930303
:100050000C94F9000C94F9000C94F9000C94F9003C
:100060000C94F9000C94F900036EDB363D9A9999D3
:10007000993DABAAAA2A3E000000803F084AD73B20
:100080003BCE016E84BCBFFDC12F3D6C74319ABD67
:1000900056833DDA3D00C77F11BED9E4BB4C3E918B
:1000A0006BAAAABE000000803F072C7AA5BA6CC5D7
:1000B00090DA3B9365FC8BBC53F810FD3C56928361
:1000C0004DBD879D3AB63DCBC9BF5BBE73DA0FC944
:1000D0003F05A84CCDB2D44EB93836A9020C50B960
:1000E000918688083CA6AAAA2ABE000000803F008C
:1000F00000000000240027002A0011121314151616
:100100000A0B0C0D0E0F6661696C6564000000003F
:1001100008000201000003040700000000000000C6
:100120000000010203040500000000250028002B48
:100130000000000000230026002900040404040439
:100140000404040202020202020303030303030184
:10015000020408102040800102040810200102045B
:100160000810204E414E494E495459494E46CDCC77
:10017000CC3D0AD7233C17B7D13877CC2B32959595
:10018000E6241FB14F0A000020410000C842004091
:100190001C4620BCBE4CCA1B0E5AAEC59D74621ACA
:1001A000581A11241FBECFEFD8E0DEBFCDBF12E03A
:1001B000A0E0B1E0E8E6F6E402C005900D92A636B4
:1001C000B107D9F724E0A6E6B2E001C01D92A33F33
:1001D000B207E1F710E0C0EDD0E004C02197FE01C6
:1001E0000E94D91BCF3CD107C9F70E94D90A0C94B1
:1001F00027230C940000FC01918D828D981761F0EB
:10020000828DDF01A80FB11D5D968C91928D9F5F4D
:100210009F73928F90E008958FEF9FEF0895FC01F8
:10022000918D828D981731F0828DE80FF11D858DAB
:1002300090E008958FEF9FEF0895FC01918D228D3E
:10024000892F90E0805C9F4F821B91098F739927C3
:10025000089586ED92E00E941D0121E0892B09F4AA
:1002600020E0822F0895FC01848DDF01A80FB11DCD
:10027000A35ABF4F2C91848D90E001968F739927DC
:10028000848FA689B7892C93A089B1898C918064C9
:100290008C93938D848D981306C00288F389E02D8A
:1002A00080818F7D80830895EF92FF920F931F933B
:1002B000CF93DF93EC0181E0888F9B8D8C8D981319
:1002C00005C0E889F989808185FD24C0F62E0B8D53
:1002D00010E00F5F1F4F0F731127E02E8C8DE81277
:1002E0000CC00FB607FCFACFE889F989808185FF39
:1002F000F5CFCE010E943301F1CF8B8DFE01E80FC7
:10030000F11DE35AFF4FF0820B8FEA89FB89808150
:10031000806207C0EE89FF896083E889F98980815E
:100320008064808381E090E0DF91CF911F910F91F5
:10033000FF90EF900895CF93DF93EC01888D882391
:10034000C9F0EA89FB89808185FD05C0A889B98942
:100350008C9186FD0FC00FB607FCF5CF808185FF1D
:10036000F2CFA889B9898C9185FFEDCFCE010E948B
:100370003301E7CFDF91CF91089580E090E0892BA2
:1003800029F00E94290181110C9400000895209108
:100390006802309169022817390771F4909166025A
:1003A00080916702981741F0E0916602F0E0E35710
:1003B000FD4F808190E008958FEF9FEF089508959D
:1003C0001F93CF93DF93DC015C962D913C915D9759
:1003D0002115310539F481E090E013969C938E93BA
:1003E00012973DC05196ED91FC91529750969C9179
:1003F0005097892F80951FB75E964C915E9741FB71
:10040000772770F941FD6095F8944081772311F0CA
:10041000492B01C048234083E9012197F1F748E0C7
:10042000508160FF02C0592B01C058235083E9015D
:100430002197F1F76695415099F7772321F0908144
:100440008923808303C08081982B90831FBF5C9693
:100450008D919C915D970197F1F721E030E0C90102
:10046000DF91CF911F910895209168023091690228
:100470002817390771F4809167022091660290E095
:10048000805C9F4F821B910960E470E00E94B11B69
:10049000089580E090E0089520916802309169020B
:1004A00028173907B9F4909166028091670298176E
:1004B00089F0E0916602F0E0E357FD4F80812091E2
:1004C000660230E02F5F3F4F2F7333272093660281
:1004D00090E008958FEF9FEF08950E94ED1E4F92D8
:1004E0005F926F927F928F929F92AF92BF92CF92C4
:1004F000DF92EF92FF920F931F93CF93DF93CDB7CD
:10050000DEB7A0970FB6F894DEBF0FBECDBF298728
:100510003A874B875C8727013801AD8ABE8ACF8A2C
:10052000D88E2BED3FE049E450E40E94CC2120E03E
:1005300030E044E353E40E94DE1C6B017C012BEDB0
:100540003FE049E450E469857A858B859C850E946B
:10055000CC21698F7A8F8B8F9C8FC701B6010E9447
:100560008F1E4B015C0120E73DE642EC5AE4C301DB
:10057000B2010E94DE1C2B013C010E94D91C69873C
:100580007A878B879C87C701B6010E94D91C6D872B
:100590007E878F87988BC301B2010E948F1E698B63
:1005A0007A8B8B8B9C8B6D897E898F89988D0E942D
:1005B000D91C2B013C0129853A854B855C85C501F9
:1005C000B4010E94CC216B017C0129893A894B89B5
:1005D0005C896D857E858F8598890E94CC21A301D9
:1005E00092010E94CC219B01AC01C701B6010E947F
:1005F000E01B0E944C1C6B017C010E948F1E9B0122
:10060000AC016D897E898F89988D2D8F3E8F4F8F9C
:1006100058A30E948F1E2B013C012D8D3E8D4F8DC6
:1006200058A1C501B4010E94CC219B01AC01698590
:100630007A858B859C850E94DF1B4B015C01298993
:100640003A894B895C89C301B2010E94CC212D8576
:100650003E854F8558890E94CC21A50194010E94B6
:100660007A1C4B015C0120E030E044E353E4698DE7
:100670007A8D8B8D9C8D0E94DE1CA50194010E94B9
:10068000E01B20E030E044E353E40E94CC212BED5A
:100690003FE049E450E40E94DE1C0E944F08B62E61
:1006A000872E982EA92E20E030E044E353E4C701C2
:1006B000B6010E94CC212BED3FE049E450E40E94BA
:1006C000DE1C0E944F08E62F272F4B2D582D692D39
:1006D0007A2D49835A836B837C834E2F522FBC0122
:1006E0004D835E836F8378872B2D3A814B815C81AC
:1006F0006E2F7E818F819885A0960FB6F894DEBF0D
:100700000FBECDBFDF91CF911F910F91FF90EF9062
:10071000DF90CF90BF90AF909F908F907F906F9021
:100720005F904F9008951F920F920FB60F92112471
:100730002F933F934F935F936F937F938F939F93E9
:10074000AF93BF93EF93FF9386ED92E00E94330146
:10075000FF91EF91BF91AF919F918F917F916F9199
:100760005F914F913F912F910F900FBE0F901F906F
:1007700018951F920F920FB60F9211242F938F93FB
:100780009F93EF93FF93E091E602F091E70280815F
:10079000E091EC02F091ED0282FD12C09081809117
:1007A000EF028F5F8F732091F002821751F0E0917A
:1007B000EF02F0E0EA52FD4F958F8093EF0201C007
:1007C0008081FF91EF919F918F912F910F900FBE9C
:1007D0000F901F90189590E0FC01E35FFE4F34915D
:1007E000FC01E15BFE4F2491FC01E55CFE4FE491CE
:1007F000EE2309F43BC0332339F1333091F038F460
:100800003130A9F0323001F584B58F7D12C0373018
:1008100091F03830A1F03430B9F4809180008F7DB0
:1008200003C0809180008F77809380000DC084B5D5
:100830008F7784BD09C08091B0008F7703C080910D
:10084000B0008F7D8093B000F0E0EE0FFF1FE95DF8
:10085000FE4FA591B4918FB7F894EC91611103C04C
:1008600020952E2301C02E2B2C938FBF0895CF935C
:10087000DF9390E0FC01E15BFE4F2491FC01E55C1D
:10088000FE4F8491882361F190E0880F991FFC014D
:10089000E051FF4FC591D491FC01E95DFE4FA59158
:1008A000B491611109C09FB7F89488812095822383
:1008B0008883EC912E230BC0623061F49FB7F894CB
:1008C0003881822F809583238883EC912E2B2C9363
:1008D0009FBF06C08FB7F894E8812E2B28838FBF67
:1008E000DF91CF9108953FB7F8948091D202909113
:1008F000D302A091D402B091D50226B5A89B05C021
:100900002F3F19F00196A11DB11D3FBFBA2FA92F8E
:10091000982F8827820F911DA11DB11DBC01CD010B
:1009200042E0660F771F881F991F4A95D1F70895F7
:100930008F929F92AF92BF92CF92DF92EF92FF92EF
:100940006B017C010E9473044B015C01C114D10452
:10095000E104F104F1F00E947304DC01CB01881979
:100960009909AA09BB09883E9340A105B10570F316
:1009700021E0C21AD108E108F10888EE880E83E070
:10098000981EA11CB11CC114D104E104F10419F793
:10099000DDCFFF90EF90DF90CF90BF90AF909F9012
:1009A0008F9008952FB7F8946091CE027091CF0286
:1009B0008091D0029091D1022FBF08951F920F9283
:1009C0000FB60F9211242F933F938F939F93AF9362
:1009D000BF938091CE029091CF02A091D002B091AE
:1009E000D1023091CD0223E0230F2D3720F4019660
:1009F000A11DB11D05C026E8230F0296A11DB11D42
:100A00002093CD028093CE029093CF02A093D00288
:100A1000B093D1028091D2029091D302A091D402DE
:100A2000B091D5020196A11DB11D8093D202909381
:100A3000D302A093D402B093D502BF91AF919F91FE
:100A40008F913F912F910F900FBE0F901F9018958F
:100A50002F923F924F925F926F927F928F929F92CE
:100A6000AF92BF92CF92DF92EF92FF920F931F93BC
:100A7000CF93DF93CDB7DEB768970FB6F894DEBF9C
:100A80000FBECDBF29833A834B835C836D837E8306
:100A90008F839887A986BA86CB86DC86ED86FE860C
:100AA0000F87188B79018A01698B7A8BAF81AB8BA9
:100AB000B885BC8B89859A85AB85BC858D8B9E8BD3
:100AC000AF8BB88F4D845E846F847888ADA4BEA44C
:100AD000CFA4D8A899A88AA83BA82CA89501A601BC
:100AE000B701C8010E94821E18162CF07A2D6B2DBA
:100AF0009C2D8D2D04C07E2D6F2D902F812F272FA3
:100B0000362F492F582F6D897E898F89988D0E94A5
:100B1000662118160CF44BC09501A601B701C80157
:100B20000E94662187FD02C0750186019701A80118
:100B30006D897E898F89988D0E94821E87FD37C0BE
:100B4000292D382D432D522D69897A898B899C89CD
:100B50000E94821E18161CF0B401C10104C07989DC
:100B60006A899B898C89272F362F492F582FC301DB
:100B7000B2010E9466211816D4F0292D382D432D7C
:100B8000522D69897A898B899C890E94662187FF09
:100B900004C099888A883B882C8811E0292D382D3B
:100BA000432D522DC301B2010E94821E87FD10E029
:100BB000812F68960FB6F894DEBF0FBECDBFDF91D0
:100BC000CF911F910F91FF90EF90DF90CF90BF904A
:100BD000AF909F908F907F906F905F904F903F90DD
:100BE0002F9008952F923F924F925F926F927F9233
:100BF0008F929F92AF92BF92CF92DF92EF92FF922D
:100C00000F931F93CF93DF93CDB7DEB7A4970FB6A3
:100C1000F894DEBF0FBECDBF1C0109871A872B8752
:100C20003C874D875E876F87788BC9A2DAA2EBA2DB
:100C3000FCA28D8A9E8AAF8AB88E4D845E846F84B2
:100C4000788889859A85AB85BC85898B9A8BAB8B97
:100C5000BC8B20E030E044EB52E4C501B4010E94BB
:100C6000E01B20E030E044EB53E40E94911D698FCB
:100C70007A8F8B8F9C8F5B016C01E12CF12C00EC47
:100C80001FE329893A894B895C89C301B2010E941B
:100C90006F02D10158962C93589759963C935997C7
:100CA0005A964C935A975B965C935B975C966C93C1
:100CB0005C975D967C935D975E968C935E975F964E
:100CC0009C9320E030E044EB52E46D897E898F896B
:100CD000988D0E94DF1B20E030E044EB53E40E943B
:100CE000E01B20E030E044EB53E40E94911D6D8F47
:100CF0007E8F8F8F98A35B016C0129893A894B897C
:100D00005C89C301B2010E946F02F101208331832B
:100D100042835383648375838683978322EA32EB0D
:100D200043E05FE369A17AA18BA19CA10E94CC2141
:100D300020E030E040E051E40E94CC21AD88BE8844
:100D4000CF88D88C7B018C0129893A894B895C89B1
:100D5000C301B2010E946F0229833A834B835C83F3
:100D60006D837E838F83988789819A81AB81BC81D3
:100D7000898B9A8BAB8BBC8B4D805E806F80788427
:100D8000A98CBA8CCB8CDC8CE12CF12C00EC1FE311
:100D90009C01AD01C301B2010E946F02D1015096C6
:100DA0002C93509751963C93519752964C9352974F
:100DB00053965C93539754966C93549755967C93A3
:100DC000559756968C93569757969C93AD8CBE8CA0
:100DD000CF8CD8A029893A894B895C89C301B2019B
:100DE0000E946F02F1012087318742875387648711
:100DF000758786879787C101A4960FB6F894DEBFE2
:100E00000FBECDBFDF91CF911F910F91FF90EF905B
:100E1000DF90CF90BF90AF909F908F907F906F901A
:100E20005F904F903F902F9008958EBD00000DB4BD
:100E300007FEFDCF8EB508951F920F920FB60F9249
:100E400011242F933F934F935F936F937F938F93CF
:100E50009F93AF93BF93EF93FF93E0916802F0915C
:100E60006902309709F451C0968DA685B7858585AE
:100E700091FF04C09C91892329F447C09C91892348
:100E800009F043C0A389B4899C9185898095892301
:100E90008C93868997890197F1F7608D718DA6856E
:100EA000B785558538E020E0CB010197F1F7822F17
:100EB00090E095958795282F4C91452309F020685F
:100EC000315091F7868D81FD20958091670290E0E9
:100ED00001968F73992730916602381749F0A091D7
:100EE0006702B0E0A357BD4F2C938093670203C005
:100EF000868D8160868F828D938D0197F1F7A3890E
:100F0000B4899C918589892B8C93FF91EF91BF9136
:100F1000AF919F918F917F916F915F914F913F9191
:100F20002F910F900FBE0F901F901895E0916802BF
:100F3000F0916902E817F90769F4A389B4899C91D3
:100F40008589809589238C9310926902109268029A
:100F500081E0089580E008951F920F920FB60F92DE
:100F600011242F933F934F935F936F937F938F93AE
:100F70009F93AF93BF93EF93FF938091D60381111B
:100F800002C00E94EE08FF91EF91BF91AF919F9137
:100F90008F917F916F915F914F913F912F910F9022
:100FA0000FBE0F901F901895CF92DF92EF92FF9295
:100FB0000F931F93CF93DF936C017A018B01C0E0F5
:100FC000D0E0CE15DF0589F0D8016D918D01D601F5
:100FD000ED91FC910190F081E02DC6010995892BDE
:100FE00011F47E0102C02196ECCFC701DF91CF91B1
:100FF0001F910F91FF90EF90DF90CF9008959CB5D7
:101000009F7D9CBD9CB5937F9CBD9CB59C7F9CBDEA
:101010009DB591609DBD682F80917B030E94EB037D
:101020008FE090E00197F1F7089581E00C94FF07BD
:1010300080E00C94FF071F93CF93DF9300D0CDB7D0
:10104000DEB76A8389830E94180889818F71806264
:101050000E941507182F6A81862F0E9415070E948B
:101060001508812F0F900F90DF91CF911F91089558
:10107000CF93DF931F92CDB7DEB789830E94180804
:1010800089818F710E9415078FEF0E941507898350
:101090000E94150889810F90DF91CF91089520E07B
:1010A00030E543EC57E40E94CC2120E030E543ECEE
:1010B00057E40E94DE1C0895CF93DF931F92CDB7B3
:1010C000DEB70E94180881EE0E94150789830E94EE
:1010D000150889810F90DF91CF910895EF92FF92CB
:1010E0000F931F93CF93DF9300D01F92CDB7DEB73E
:1010F000162F4A837B8389830E94180889818F7108
:1011000080620E941507082FE12E7B81F72E4A810D
:10111000140F1E1531F0F70181917F010E94150710
:10112000F8CF0E941508802F0F900F900F90DF913D
:10113000CF911F910F91FF90EF900895682F8091AC
:101140007A0390917B0389130C94EB03089580E05C
:101150000E94380881FD0BC0682F626080E00E9409
:101160001B0865E070E080E090E00C94980408951E
:101170000E94A70880E00E943808682F616080E024
:101180000E941B0860E787E00E941B0881E00E9424
:101190009E0880918103882341F04091860361E895
:1011A00073E08AE00E946E0812C082E00E94380854
:1011B000E1E2F1E0E49121E030E001C0220FEA95A4
:1011C000EAF72095622F682382E00E941B088DE1D8
:1011D0000E94380881FD0C945C0808958091D70323
:1011E0009091D803009781F0DC01ED91FC9104808F
:1011F000F581E02D0995892B11F480E00895809107
:10120000D7039091D80311C08091D9039091DA034C
:10121000DC01ED91FC910480F581E02D0995892B8D
:1012200061F38091D9039091DA03DC01ED91FC9197
:101230000680F781E02D09958A3031F52091EA0486
:101240003091EB049091EC04F901E90FF11D10824B
:10125000B4E022373B0739F44AEF53E05093EB04F4
:101260004093EA0408C022E734E03093EB04209373
:10127000EA042AEF33E0309374032093730310924F
:10128000EC0491E090937503E091EA04F091EB0493
:101290009091EC0421E0290F2093EC04E90FF11D5B
:1012A00080839091EC04983718F097E79093EC04C2
:1012B0000895E091D602F091D7020190F081E02DDF
:1012C000682F86ED92E009946115710579F0FB01B4
:1012D00001900020E9F73197AF01461B570BDC0165
:1012E000ED91FC910280F381E02D099480E090E083
:1012F00008958F929F92AF92BF920F931F93CF93B7
:10130000DF93CDB7DEB7A1970FB6F894DEBF0FBE5F
:10131000CDBF19A2423008F44AE08E010F5D1F4F85
:10132000842E912CA12CB12CA50194010E94F622AF
:10133000E62FB901CA0101501109EA3014F4E05D49
:1013400001C0E95CD801EC93232B242B252B61F7FA
:10135000B80186ED92E00E946409A1960FB6F89458
:10136000DEBF0FBECDBFDF91CF911F910F91BF9018
:10137000AF909F908F9008954F925F926F927F925F
:101380008F929F92AF92BF92CF92DF92EF92FF9295
:101390006B017C01B42E9B01AC010E94E11E8823ED
:1013A00019F067E572E027C026013701E89477F865
:1013B0002FEF3FEF4FE75FE7C301B2010E94E11E4D
:1013C00081110DC02FEF3FEF4FE75FE7C301B2017F
:1013D0000E94662118161CF46BE572E00CC02FEF1A
:1013E0003FEF4FE75FE4C701B6010E94821E181667
:1013F00094F46FE572E086ED92E0FF90EF90DF905D
:10140000CF90BF90AF909F908F907F906F905F90A4
:101410004F900C9464092FEF3FEF4FE75FECC7014B
:10142000B6010E94662187FDE4CF20E030E0A901EB
:10143000C701B6010E94662187FF09C08DE20E94A4
:1014400059094C01F7FAF094F7F8F09402C0812C96
:10145000912CA12C60E070E080E09FE3AB1441F0A0
:1014600020E030E040E251E40E94DE1CA394F6CF7D
:101470009B01AC01C701B6010E94E01B2B013C019E
:101480000E94571D6B017C010E946B219B01AC01E6
:10149000C301B2010E94DF1B2B013C014AE0C701DE
:1014A000B6010E9479097C01E80CF91CBB2041F0CF
:1014B00063E672E086ED92E00E946409E80EF91E90
:1014C000DB2CDD2021F120E030E040E251E4C301DB
:1014D000B2010E94CC212B013C010E94571D4B01FF
:1014E000A12CB12C4AE0C501B4010E947909E80E93
:1014F000F91EC501B4010E946B219B01AC01C3011F
:10150000B2010E94DF1B2B013C01DA94DACFC70144
:10151000FF90EF90DF90CF90BF90AF909F908F9013
:101520007F906F905F904F900895CF93DF930E94CC
:10153000BC09EC0169ED71E086ED92E00E9464095E
:101540008C0F9D1FDF91CF9108950F931F93CF9321
:10155000DF93EC010E9464098C0169ED71E0CE011A
:101560000E946409800F911FDF91CF911F910F910D
:101570000895BC018091D7039091D803009721F47E
:101580008091D9039091DA030C94A50AFC010FB65F
:10159000F8946091ED047091EE048091EF049091C5
:1015A000F0040FBE309721F06083718382839383B0
:1015B0000895CF93DF93CDB7DEB7C450D1400FB6B7
:1015C000F894DEBF0FBECDBF789484B5826084BD31
:1015D00084B5816084BD85B5826085BD85B5816037
:1015E00085BD80916E00816080936E0010928100B5
:1015F0008091810082608093810080918100816070
:101600008093810080918000816080938000809130
:10161000B10084608093B1008091B00081608093BC
:10162000B00080917A00846080937A0080917A0083
:10163000826080937A0080917A00816080937A0042
:1016400080917A00806880937A001092C10080E0D7
:1016500090E00E94C60ACB010E94771FE091E6024B
:10166000F091E70282E08083E091E202F091E302F0
:101670001082E091E402F091E50280E18083109213
:10168000EE02E091EA02F091EB0286E08083E091C5
:10169000E802F091E902808180618083E091E802B4
:1016A000F091E902808188608083E091E802F09106
:1016B000E902808180688083E091E802F091E9028C
:1016C00080818F7D808382E090E09093810280937F
:1016D000800280917A0390917B03891719F061E071
:1016E0000E94370480917B0390917A03981719F038
:1016F00061E00E9437041FB7F89480916A0281115B
:1017000027C0E5E4F1E08491E9E5F1E09491E82F68
:10171000F0E0EE0FFF1FE051FF4FA591B491EC9167
:10172000E92321F461E08AE00E94EB0361E08AE0B2
:101730000E9437048CB580618CBD8CB580648CBDF3
:1017400061E08DE00E94370461E08BE00E94370485
:1017500080916A028F5F80936A021FBF80E00E94BF
:101760009E0881E00E94FF0765E070E080E090E065
:101770000E9498046CE080E00E941B086FE584E002
:101780000E941B0886E00E943808877D182F10628F
:101790008BE990E0A0E0B0E080938703909388030A
:1017A000A0938903B0938A03612F86E00E941B08EF
:1017B00086E00E943808811711F40C943C1886E0EA
:1017C0000E94380886E00E94380845E550E060E055
:1017D00070E040938703509388036093890370936C
:1017E0008A03682F677D86E00E941B0886E00E94BE
:1017F00038080E94180880E50E94150783E70E94B8
:1018000015070E94150860E08DE10E941B0860E04A
:101810008CE10E941B0860E787E00E941B086CE4D3
:1018200085E00E941B080E94180882EE0E9415079E
:101830000E9415080E945C080E94A70880E00E9490
:101840003808682F6E7F80E00E941B084091860355
:1018500060E071E08AE00E946E084091860360E0DB
:1018600071E080E10E946E0860917F0381E10E9437
:101870001B08E1E0F1E084914091860360E071E0B3
:101880000E946E08EBEFF0E0849160917F030E946C
:101890001B0882E00E943808E2E2F1E0E49161E096
:1018A00070E001C0660FEA95EAF7682B82E00E94BB
:1018B0001B080E94B808E090D703F090D803E11409
:1018C000F10409F49AC0D7015B961C921E925A97B4
:1018D00059961C921E92589757961C921E92569794
:1018E0008DE991E05D969C938E935C971C968C910C
:1018F0001C97863108F058C02DEB30E057963C938A
:101900002E9356972BE931E059963C932E93589796
:101910002CE231E05B963C932E935A9790916800AD
:10192000883050F021E08E3008F420E081E001C0E2
:10193000880F2A95EAF701C084E0892B809368001C
:10194000F7019485983038F09E3040F0963148F495
:101950002CE630E008C02DE630E005C02BE630E094
:1019600002C020E030E0D70154963C932E93539769
:10197000983030F481E001C0880F9A95EAF70EC0E4
:10198000292F30E09E3018F42850310902C02E5023
:10199000310981E001C0880F2A95EAF7F701858BAC
:1019A000848D958D0197F1F7D7015A968D919C9171
:1019B0005B97892B09F44AC0809168029091690273
:1019C0008E159F0509F442C0009711F00E949607FA
:1019D000F701868D8E7F868F1092670210926602C5
:1019E000F0926902E09268020388F489E02D908108
:1019F000D70155968C91892B28C0E091D903F0919D
:101A0000DA03A089B18982E08C93A485B5851C9204
:101A1000A685B7858FEC8C93108EA489B58986E056
:101A20008C93A289B3898C9180618C93A289B389AC
:101A30008C9188608C93A289B3898C9180688C93F7
:101A40000288F389E02D80818F7D80836AE070E0D9
:101A500080E090E00E94980481E391E00E94B90A3E
:101A600083E691E00E94B90A83E791E00E94B90AF7
:101A70008FEA87BD80916E00826080936E0081E066
:101A800080936B0268EE73E080E090E00E9498041F
:101A900062E871E08BED93E00E94A50A61E089E0C5
:101AA0000E94370461E084E00E94370461E086E030
:101AB0000E94370461E085E00E943704FE01B19680
:101AC000CF51DF4FF983E883C15ED0409F01205E94
:101AD0003F4FCE5FDE4F39832883C250D140809183
:101AE0006B02811106C08091D603811102C00E9451
:101AF000EE0830907503332009F4EEC5109275039B
:101B0000C0907303D0907403F60101900020E9F7B0
:101B10003197EC19FD09CF010497D601A80FB91F21
:101B20002C912A32D9F5EC0DFD1DDF0113972C9174
:101B3000203354F02A3314F4205307C03FEB320F04
:101B4000363010F4275301C020E040E1249F90017B
:101B5000112432974081403354F04A3314F44053F7
:101B600007C05FEB540F563010F4475301C040E0FC
:101B7000240F311D62E0462F50E04817590758F4F2
:101B8000F601E40FF51F4081042E000C550B2427AD
:101B900035276F5FF0CF232B09F073C66EE871E035
:101BA000C6010E940C1F892B09F479C26CE270E017
:101BB000C6010E94F21E01966C010E94821F4B0119
:101BC0005C010E94571D7B018C0120E137E240E05F
:101BD00050E00E94F62220938C03E4E64E2E512C16
:101BE000612C712CA30192010E94F62220938D0397
:101BF000C801B701A30192010E94F62260938E03EF
:101C000020E030E040E85FE3C501B4010E94911D8F
:101C100020E030E04AE754E40E94CC210E94571DA6
:101C200070939303609392036CE270E0C6010E948C
:101C3000F21E5C016C018FEFC81AD80AD50111960B
:101C40008C918C3209F4ABC042E050E0B601CE0179
:101C500001960E94FD1E1B82CE0101960E94A41FC8
:101C60009B01AC0160E876E988E990E00E94A11B45
:101C70002B013C01B5016D5F7F4F42E050E0CE018A
:101C800001960E94FD1E6501B6E0CB0ED11C44E01A
:101C900050E0B601CE0103960E94FD1E1F82CE01C8
:101CA00001960E94A41F9B01AC01A2E3B0E00E9438
:101CB000AC2223E030E040E050E00E948D22490158
:101CC0005A01D301C201820F931FA41FB51F809335
:101CD0009C0390939D03A0939E03B0939F03C30125
:101CE000B20120EA36E841E050E00E948D22CA01AC
:101CF000B9010E946D212B013C01C501B4010E9474
:101D00006D212CE933E549EC56E30E94CC219B017F
:101D1000AC01C301B2010E94E01B2B013C016093A6
:101D2000940370939503809396039093970320E018
:101D300030E048EC52E40E94DE1C0E94501D4B0132
:101D40005C0184E6889DB001899D700D1124072EE9
:101D5000000C880B990B0E946D219B01AC01C30103
:101D6000B2010E94DF1B20E030E040E752E40E9415
:101D7000DE1C2B013C01B401990C880B990B0E94CD
:101D80006D219B01AC01C301B2010E94E01B609375
:101D9000A4037093A5038093A6039093A7036CE21A
:101DA00070E0C6010E94F21EFC019C012F5F3F4FB4
:101DB00081818C3201F1833589F44091A4035091E3
:101DC000A5036091A6037091A70370584093A403E4
:101DD0005093A5036093A6037093A70391819E344B
:101DE00011F0933519F49093C40305C09C3209F0A7
:101DF00048C51092C4036CE270E0C9010E94F21E53
:101E00005C016C01EFEFCE1ADE0ADC0111968C91B9
:101E10008C3209F4ABC043E050E0B601CE0101962C
:101E20000E94FD1E1C82CE0101960E94A41F9B01F0
:101E3000AC0160E876E988E990E00E94A11B2B01E3
:101E40003C01B5016C5F7F4F42E050E0CE0101964E
:101E50000E94FD1E6501B7E0CB0ED11C44E050E0AE
:101E6000B601CE0103960E94FD1E1F82CE0101968F
:101E70000E94A41F9B01AC01A2E3B0E00E94AC222F
:101E800023E030E040E050E00E948D2249015A01F9
:101E9000D301C201820F931FA41FB51F8093A0031B
:101EA0009093A103A093A203B093A303C301B20133
:101EB00020EA36E841E050E00E948D22CA01B901D3
:101EC0000E946D212B013C01C501B4010E946D21CE
:101ED0002CE933E549EC56E30E94CC219B01AC018F
:101EE000C301B2010E94E01B2B013C0160939803E7
:101EF0007093990380939A0390939B0320E030E0C2
:101F000048EC52E40E94DE1C0E94501D4B015C0113
:101F100084E6889DB001899D700D1124072E000C68
:101F2000880B990B0E946D219B01AC01C301B2018A
:101F30000E94DF1B20E030E040E752E40E94DE1CFC
:101F40002B013C01B401990C880B990B0E946D2167
:101F50009B01AC01C301B2010E94E01B6093A80386
:101F60007093A9038093AA039093AB036CE270E093
:101F7000C6010E94F21EFC019C012F5F3F4F818130
:101F80008C3201F1873589F44091A8035091A9035F
:101F90006091AA037091AB0370584093A8035093CB
:101FA000A9036093AA037093AB039181973511F055
:101FB000953419F49093C50305C09C3209F061C4AF
:101FC0001092C5036CE270E0C9010E94F21E8C0100
:101FD0000F5F1F4FFC0181818C3229F0C8010E94E4
:101FE000861F8093C8036CE270E0C8010E94F21E55
:101FF0008C010F5F1F4FDC0111968C918C3229F000
:10200000C8010E94861F8093C9036CE270E0C8017A
:102010000E94F21E8C010F5F1F4FFC0181818C32E8
:1020200059F0C8010E94821F6093C0037093C103DE
:102030008093C2039093C3036CE270E0C8010E94D6
:10204000F21E8C010F5F1F4FDC0111968C918C32B8
:1020500059F0C8010E94821F6093B0037093B103CE
:102060008093B2039093B3036CE270E0C8010E94C6
:10207000F21E6CE270E001960E94F21EFC012181CA
:102080002C3209F48CC201960E94821F6093AC032B
:102090007093AD038093AE039093AF0380C265E964
:1020A00071E0C6010E940C1F892B09F4EAC36CE29F
:1020B00070E0C6010E94F21E01966C010E94821F10
:1020C0004B015C010E94571D7B018C0120E137E22E
:1020D00040E050E00E94F62220938C0354E6452E07
:1020E000512C612C712CA30192010E94F6222093A5
:1020F0008D03C801B701A30192010E94F6226093EB
:102100008E0320E030E040E85FE3C501B4010E94A7
:10211000911D20E030E04AE754E40E94CC210E9467
:10212000571D70939303609392036CE270E0C601B5
:102130000E94F21EDC0111962C91213421F421E041
:102140002093C70305C0263509F09BC31092C7032F
:102150006CE270E001960E94F21E5C016C01BFEF20
:10216000CB1ADB0AFC0181818C3209F4ABC042E05E
:1021700050E0B601CE0101960E94FD1E1B82CE01E9
:1021800001960E94A41F9B01AC0160E876E988E9F2
:1021900090E00E94A11B2B013C01B5016D5F7F4FB8
:1021A00042E050E0CE0101960E94FD1E6501F6E07E
:1021B000CF0ED11C44E050E0B601CE0103960E9440
:1021C000FD1E1F82CE0101960E94A41F9B01AC013F
:1021D000A2E3B0E00E94AC2223E030E040E050E017
:1021E0000E948D2249015A01D301C201820F931F1F
:1021F000A41FB51F80939C0390939D03A0939E03FF
:10220000B0939F03C301B20120EA36E841E050E0F9
:102210000E948D22CA01B9010E946D212B013C014F
:10222000C501B4010E946D212CE933E549EC56E368
:102230000E94CC219B01AC01C301B2010E94E01BB2
:102240002B013C0160939403709395038093960354
:102250009093970320E030E048EC52E40E94DE1CAB
:102260000E94501D4B015C0184E6889DB001899D50
:10227000700D1124072E000C880B990B0E946D2104
:102280009B01AC01C301B2010E94DF1B20E030E0E2
:1022900040E752E40E94DE1C2B013C01B401990C82
:1022A000880B990B0E946D219B01AC01C301B20107
:1022B0000E94E01B6093A4037093A5038093A60380
:1022C0009093A7036CE270E0C6010E94F21EFC012D
:1022D0009C012F5F3F4F81818C3201F1833589F45E
:1022E0004091A4035091A5036091A6037091A703A8
:1022F00070584093A4035093A5036093A603709372
:10230000A70391819E3411F0933519F49093C4037F
:1023100005C09C3209F0B5C21092C4036CE270E0B3
:10232000C9010E94F21E5C016C012FEFC21AD20A91
:10233000DC0111968C918C3209F4ABC043E050E083
:10234000B601CE0101960E94FD1E1C82CE010196AF
:102350000E94A41F9B01AC0160E876E988E990E047
:102360000E94A11B2B013C01B5016C5F7F4F42E035
:1023700050E0CE0101960E94FD1E6501B7E0CB0E34
:10238000D11C44E050E0B601CE0103960E94FD1E30
:102390001F82CE0101960E94A41F9B01AC01A2E303
:1023A000B0E00E94AC2223E030E040E050E00E9428
:1023B0008D2249015A01D301C201820F931FA41F2C
:1023C000B51F8093A0039093A103A093A203B093A1
:1023D000A303C301B20120EA36E841E050E00E94C5
:1023E0008D22CA01B9010E946D212B013C01C5015A
:1023F000B4010E946D212CE933E549EC56E30E94BB
:10240000CC219B01AC01C301B2010E94E01B2B0156
:102410003C01609398037093990380939A0390937F
:102420009B0320E030E048EC52E40E94DE1C0E9456
:10243000501D4B015C0184E6889DB001899D700DA3
:102440001124072E000C880B990B0E946D219B0113
:10245000AC01C301B2010E94DF1B20E030E040E785
:1024600052E40E94DE1C2B013C01B401990C880B44
:10247000990B0E946D219B01AC01C301B2010E9426
:10248000E01B6093A8037093A9038093AA03909321
:10249000AB036CE270E0C6010E94F21EFC019C01DD
:1024A0002F5F3F4F81818C3201F1873589F4409154
:1024B000A8035091A9036091AA037091AB037058CF
:1024C0004093A8035093A9036093AA037093AB03AE
:1024D0009181973511F0953419F49093C50305C097
:1024E0009C3209F0CEC11092C5036CE270E0C901C4
:1024F0000E94F21E8C010F5F1F4FFC0181818C3204
:1025000059F0C8010E94821F6093B4037093B50311
:102510008093B6039093B7036CE270E0C8010E9409
:10252000F21E8C010F5F1F4FDC0111968C918C32D3
:1025300059F0C8010E94821F6093B8037093B903D9
:102540008093BA039093BB036CE270E0C8010E94D1
:10255000F21EFC0121812C3211F101960E94821F92
:102560000E94571D2B013C0120E137E240E050E082
:102570000E94F6222093910344E6842E912CA12CF4
:10258000B12CA50194010E94F62220939003C3016F
:10259000B201A50194010E94F62260938F033320BB
:1025A00009F46FC18091C4038E3469F420E030E0F7
:1025B00048EC52E4609194037091950380919603E6
:1025C000909197030FC08091940390919503A091EF
:1025D0009603B0919703BC01CD01905820E030E004
:1025E00048EC52E40E94DE1C6B017C018091C50323
:1025F000853469F420E030E048EC52E460919803BF
:102600007091990380919A0390919B030FC08091E0
:10261000980390919903A0919A03B0919B03BC01F8
:10262000CD01905820E030E048EC52E40E94DE1CDE
:102630004B015C01C701B6010E944F086093740210
:10264000709375028093760290937702C501B4016E
:102650000E944F086093700270937102809372021F
:102660009093730222EA32EB43E05FE36091B4039C
:102670007091B5038091B6039091B7030E94CC216D
:102680006B017C0120E030E040E85FE30E94821EA5
:1026900018162CF4C701B6010E944F0803C060E071
:1026A00070E0CB0160937C0270937D0280937E0288
:1026B00090937F026091B8037091B9038091BA033F
:1026C0009091BB030E944F08609378027093790247
:1026D00080937A0290937B02C0907603D090770328
:1026E000E0907803F09079030E94D2046C157D0588
:1026F0008E059F0550F40E94D20460937603709378
:10270000770380937803909379030E94D204009119
:102710007603109177032091780330917903DC01DF
:10272000CB01801B910BA20BB30B813D9740A10500
:10273000B10508F4A6C00E94D2046093760370939A
:10274000770380937803909379036CE971E086EDC9
:1027500092E00E94A50A8091C703882309F48BC0E8
:102760006BEC71E086ED92E00E9464096091940345
:1027700070919503809196039091970344E00E9495
:10278000BC098091C4030E94590966ED71E086ED91
:1027900092E00E946409609198037091990380917E
:1027A0009A0390919B0344E00E94BC098091C50369
:1027B0000E94590969ED71E086ED92E00E9464097A
:1027C0006CED71E086ED92E00E9464096091A403D3
:1027D0007091A5038091A6039091A70344E00E9405
:1027E000BC0966ED71E086ED92E00E94640960919B
:1027F000A8037091A9038091AA039091AB0344E0D0
:1028000050E00E94950A64EF71E086ED92E00E942C
:1028100064096091B4037091B5038091B6039091FF
:10282000B70342E050E00E94950A64E072E086ED52
:1028300092E00E9464096091B8037091B90380919D
:10284000BA039091BB0342E050E00E94950A6CE00D
:1028500072E086ED92E00E9464096091C90370E025
:1028600080E090E04AE00E94790969ED71E086ED30
:1028700092E00E94640969E172E086ED92E00E94B4
:10288000A50A0E94D2040091090110910A01209129
:102890000B0130910C01DC01CB01801B910BA20BD1
:1028A000B30B803D9740A105B10528F060E0809111
:1028B00007010E94EB030E94D2040091880210914C
:1028C000890220918A0230918B02DC01CB01801BAE
:1028D000910BA20BB30B81319742A105B10520F0FA
:1028E00060E089E00E94EB034091C703C750DF4FCF
:1028F0004883C95FD040442309F4BAC30E94D2047C
:102900000091840210918502209186023091870205
:10291000DC01CB01801B910BA20BB30B893C910511
:10292000A105B10508F4D0C080E00E949E08809106
:102930008703909188038230910538F0880F991FA2
:10294000880F991F05970197F1F78DE10E943808CC
:1029500081FF10C080918703909188038230910598
:1029600038F0880F991F880F991F05970197F1F785
:102970000E945C0880E00E943808682F6E7F80E02B
:102980000E941B0882E00E943808E1E2F1E0E49135
:1029900061E070E001C0660FEA95EAF7682B82E01B
:1029A0000E941B080E94730480917F03182F8931B5
:1029B00008F018E190918003911103C0F82EF11AEC
:1029C00001C0F12C0E94180880EA0E9415078CE6CD
:1029D000C82E82E0D82E115030F0D6018D916D01B5
:1029E0000E941507F8CFFF2029F080E00E9415070C
:1029F000FA94F9CF0E94150881E00E949E080E9477
:102A000018088FEF0E941507CC5FDE4F8883C450F3
:102A1000D1400E941508CC5FDE4F8881C450D14060
:102A2000807369F380E00E949E0860E787E00E945F
:102A30001B0884FF2AC00E945C0806E011E0F80130
:102A40006491611113C069ED71E086ED92E00E941E
:102A500064090E94721F64E170E00E94B11BBC0116
:102A6000990F880B990B0E9498040FC0E091D60231
:102A7000F091D7020190F081E02D86ED92E009956A
:102A80000F5F1F4F892BD9F6DECF0E94B8088091C7
:102A90006C0290916D02A0916E02B0916F0201964E
:102AA000A11DB11D80936C0290936D02A0936E02E4
:102AB000B0936F020E94D2046093840270938502E7
:102AC000809386029093870287E10E94380880FDF8
:102AD000CFC287E10E94380880FFD3C261E089E05D
:102AE0000E94EB030E94D2046093880270938902D3
:102AF00080938A0290938B0288E1ECE6F2E0DE019B
:102B0000A757BF4F01900D928A95E1F788E1FE012A
:102B1000EF55FF4FDE01AF58BF4F01900D928A95E0
:102B2000E1F7CF54DF4FC880D980EA80FB80C15BDA
:102B3000D04020E030E040E85FE3C701B6010E94EA
:102B4000821E18160CF094C288E1FE01E757FF4F71
:102B5000DE01A75ABF4F01900D928A95E1F7CB563F
:102B6000DF4F488059806A807B80C559D040C75666
:102B7000DF4F88819981AA81BB81C959D040CD514D
:102B8000DF4F88839983AA83BB83C35ED040CF572E
:102B9000DF4FC882D982EA82FB82C158D04088E1E7
:102BA000FE01EF58FF4FDE01AF5BBF4F01900D926A
:102BB0008A95E1F7C358DF4F88809980AA80BB804F
:102BC000CD57D04026960FAD269727961FAD279755
:102BD00028962FAD289729963FAD29972A964FAD75
:102BE0002A972B965FAD2B972C966FAD2C972D9631
:102BF0007FAD2D97CE0181960E94F20553014201CF
:102C0000CD51DF4FC880D980EA80FB80C35ED040C1
:102C10006E960FAD6E976F961FAD6F97A0962FAD06
:102C2000A097A1963FADA197A2964FADA297A3966C
:102C30005FADA397A4966FADA497A5967FADA5971A
:102C4000CE0101960E94F205DE011196C951DF4FB7
:102C5000B983A883C75ED0409E012F5D3F4F190105
:102C6000C951DF4FA881B981C75ED0408D919D9138
:102C70000D90BC91A02DCD51DF4F88839983AA83FD
:102C8000BB83C35ED040C951DF4FE881F981C75E85
:102C9000D0404480558066807780D1018D909D9092
:102CA000AD90BC90139714968D919D910D90BC9111
:102CB000A02DCF50DF4F88839983AA83BB83C15F48
:102CC000D040CF52DF4F488259826A827B82C15DF9
:102CD000D040CD51DF4F88819981AA81BB81C35EED
:102CE000D040CB52DF4F88839983AA83BB83C55DD5
:102CF000D040CF50DF4F88819981AA81BB81C15FCD
:102D0000D040CF53DF4F88839983AA83BB83C15CB4
:102D1000D040CB53DF4F88829982AA82BB82C55CA8
:102D2000D040FE01E752FF4FDE01A754BF4F88E0BD
:102D300001900D928A95E1F7CD51DF4F28813981BD
:102D40004A815B81C35ED040CA01B9010E94DF1B8A
:102D5000C650DF4F688379838A839B83CA5FD040E4
:102D6000A3019201C301B2010E94DF1BC250DF4FD9
:102D7000688379838A839B83CE5FD040C754DF4FBB
:102D800088819981AA81BB81C95BD040C351DF4F43
:102D900088839983AA83BB83CD5ED040C354DF4F21
:102DA00088819981AA81BB81CD5BD040C751DF4F1B
:102DB00088839983AA83BB83C95ED040A50194010F
:102DC000BC01CD010E94DF1B6B017C01C351DF4FB1
:102DD000288139814A815B81CD5ED040C301B20137
:102DE0000E94DF1B9B01AC01C701B6010E94CC21F0
:102DF0006B017C01CF50DF4F288139814A815B8193
:102E0000C15FD040C351DF4F688179818A819B8146
:102E1000CD5ED0400E94DF1BCB50DF4F68837983AB
:102E20008A839B83C55FD040C751DF4F288139819A
:102E30004A815B81C95ED040CD51DF4F6881798185
:102E40008A819B81C35ED0400E94DF1B9B01AC0145
:102E5000CB50DF4F688179818A819B81C55FD040EB
:102E60000E94CC219B01AC01C701B6010E94DF1B6F
:102E70000E94501DCB50DF4F79836883C55FD040DF
:102E8000A3019201CF50DF4F688179818A819B81B4
:102E9000C15FD0400E94DF1B9B01AC01C650DF4FD9
:102EA000688179818A819B81CA5FD0400E94CC2150
:102EB0006B017C01CD51DF4F288139814A815B81D3
:102EC000C35ED040C501B4010E94DF1B9B01AC0171
:102ED000C250DF4F688179818A819B81CE5FD0406B
:102EE0000E94CC219B01AC01C701B6010E94DF1BEF
:102EF0000E94501D672B09F0FAC0C753DF4F48826C
:102F000059826A827B82C95CD040CD51DF4F888173
:102F10009981AA81BB81C35ED040C353DF4F8883B0
:102F20009983AA83BB83CD5CD040ADB7BEB7189759
:102F30000FB6F894BEBF0FBEADBF1196FE01E753AA
:102F4000FF4F88E001900D928A95E1F7CF53DF4F54
:102F5000A880C15CD040CE53DF4FB880C25CD04067
:102F6000CD53DF4FC880C35CD040CC53DF4FD880F7
:102F7000C45CD040CB53DF4FE880C55CD040CA531F
:102F8000DF4FF880C65CD040C953DF4F0881C75C73
:102F9000D040C853DF4F1881C85CD040CF52DF4FBC
:102FA0002881C15DD040CE52DF4F3881C25DD04014
:102FB000CD52DF4F4881C35DD040CC52DF4F5881A6
:102FC000C45DD040CB52DF4F6881C55DD040CA524E
:102FD000DF4F7881C65DD040C952DF4F8881C75D21
:102FE000D040C852DF4F9881C85DD0400E9428056C
:102FF0000FB6F894DEBF0FBECDBF882309F477C0AB
:10300000C750DF4F9881C95FD040992309F43CC174
:1030100068E472E086ED92E00E94A50A0E94D20464
:103020000091090110910A0120910B0130910C01CE
:10303000DC01CB01801B910BA20BB30B803D9740B1
:10304000A105B10508F44CC084E090E0909308011C
:10305000809307010E94D2046093090170930A01D2
:1030600080930B0190930C0161E084E00E94EB03DC
:103070000E94BD010C946F0D81E080937E030C943F
:10308000DF0B80917F03883110F018E101C0182F09
:1030900090918003911103C0F82EF11A01C0F12C18
:1030A0000E94180881E60E9415079E012F553F4F88
:1030B0006901115038F08FEF0E941507D6018D93EA
:1030C0006D01F7CFFF2029F08FEF0E941507FA94CA
:1030D000F9CF0E94150860E787E00E941B08F9CC31
:1030E0008091070190910801049714F6ADCFA301D8
:1030F0009201C351DF4F688179818A819B81CD5EC6
:10310000D0400E94DF1B9B01AC01C650DF4F68819D
:1031100079818A819B81CA5FD0400E94CC216B015A
:103120007C01CD51DF4F288139814A815B81C35EAB
:10313000D040C751DF4F688179818A819B81C95E08
:10314000D0400E94DF1B9B01AC01C250DF4F688161
:1031500079818A819B81CE5FD0400E94CC219B01E6
:10316000AC01C701B6010E94DF1B0E94501D672BF6
:1031700009F082C0C753DF4F488259826A827B823E
:10318000C95CD040CD51DF4F88819981AA81BB8134
:10319000C35ED040C353DF4F88839983AA83BB8328
:1031A000CD5CD040ADB7BEB718970FB6F894BEBF90
:1031B0000FBEADBF1196FE01E753FF4F88E00190AF
:1031C0000D928A95E1F7C754DF4FA880C95BD040C4
:1031D000C654DF4FB880CA5BD040C554DF4FC880AB
:1031E000CB5BD040C454DF4FD880CC5BD040C354BD
:1031F000DF4FE880CD5BD040C254DF4FF880CE5B1C
:10320000D040C154DF4F0881CF5BD040C054DF4F66
:103210001881C05CD040CF52DF4F2881C15DD040C3
:10322000CE52DF4F3881C25DD040CD52DF4F488152
:10323000C35DD040CC52DF4F5881C45DD040CB52EB
:10324000DF4F6881C55DD040CA52DF4F7881C65DCF
:10325000D040C952DF4F8881C75DD040C852DF4F90
:103260009881C85DD0400E9428050FB6F894DEBF53
:103270000FBECDBF8111C4CECB50DF4F2881398125
:10328000C55FD040232B29F138E0230E311CCE5FDF
:10329000DE4F88819981C250D1402816390609F045
:1032A000DFCCC951DF4FA881B981C75ED0401896E5
:1032B000C951DF4FB983A883C75ED040CF51DF4FDC
:1032C000E881F981C15ED040AE17BF0709F0C4CCD8
:1032D000CFCE8DB79EB708970FB6F8949EBF0FBE9E
:1032E0008DBFADB7BEB71196FE01E754FF4F88E022
:1032F00001900D928A95E1F7CF52DF4FA880C15D12
:10330000D040CE52DF4FB880C25DD040CD52DF4FAB
:10331000C880C35DD040CC52DF4FD880C45DD04060
:10332000CB52DF4FE880C55DD040CA52DF4FF880F6
:10333000C65DD040C952DF4F0881C75DD040C8523A
:10334000DF4F1881C85DD040CF53DF4F2881C15C6B
:10335000D040CE53DF4F3881C25CD040CD53DF4FD9
:103360004881C35CD040CC53DF4F5881C45CD0400F
:10337000CB53DF4F6881C55CD040CA53DF4F7881A3
:10338000C65CD040C953DF4F8881C75CD040C8536A
:10339000DF4F9881C85CD0400E9428050FB6F89492
:1033A000DEBF0FBECDBF81112BCEC753DF4F48828A
:1033B00059826A827B82C95CD040CD51DF4F8881BF
:1033C0009981AA81BB81C35ED040C353DF4F8883FC
:1033D0009983AA83BB83CD5CD040ADB7BEB71897A5
:1033E0000FB6F894BEBF0FBEADBF1196FE01E754F5
:1033F000FF4F88E001900D928A95E1F7C753DF4FA8
:10340000A880C95CD040C653DF4FB880CA5CD040AA
:10341000C553DF4FC880CB5CD040C453DF4FD8804A
:10342000CC5CD040C353DF4FE880CD5CD040C2536A
:10343000DF4FF880CE5CD040C153DF4F0881CF5CB6
:10344000D040C053DF4F1881C05DD040CF53DF4F15
:103450002881C15CD040CE53DF4F3881C25CD04060
:10346000CD53DF4F4881C35CD040CC53DF4F5881F0
:10347000C45CD040CB53DF4F6881C55CD040CA5399
:10348000DF4F7881C65CD040C953DF4F8881C75C6D
:10349000D040C853DF4F9881C85CD0400E942805B7
:1034A0000FB6F894DEBF0FBECDBF8111A9CDECCE13
:1034B00085E291E09093DC038093DB038BED93E056
:1034C0000C9496071092D9021092D80288EE93E0DD
:1034D000A0E0B0E08093DA029093DB02A093DC02DC
:1034E000B093DD0225E131E03093D7022093D6027C
:1034F00025EC30E03093E3022093E20224EC30E04C
:103500003093E5022093E40220EC30E03093E702B0
:103510002093E60221EC30E03093E9022093E802A8
:1035200022EC30E03093EB022093EA0226EC30E00C
:103530003093ED022093EC021092EF021092F00211
:103540001092F1021092F2021092DE031092DD034B
:103550008093DF039093E003A093E103B093E20331
:1035600085E291E09093DC038093DB031092F203F9
:103570001092F1031092F4031092F3031092F603E9
:103580001092F5031092F8031092F7036091F9037B
:103590006E7F6D7F6093F9036695617081E06827A7
:1035A00082E00E94EB0361E082E00E943704E1E5E3
:1035B000F1E0E491E093EB03EDE3F1E0E491F0E07E
:1035C000EE0FFF1FE95DFE4F859194919093ED03FF
:1035D0008093EC0360E083E00E9437048091F9035C
:1035E00081FD04C061E083E00E94EB0383E08093EF
:1035F000E703E2E5F1E0E491E093E803EEE3F1E0D4
:10360000E491F0E0EE0FFF1FEF5CFE4F8591949187
:103610009093EA038093E9031092DA031092D9039E
:10362000109275031092D6031092EC0482E794E096
:103630009093EB048093EA048AEF93E090937403F1
:10364000809373031092C9031092C80310929103E0
:103650001092900310928F0310928E0310928D039C
:1036600010928C031092C6031092C5031092C403EB
:103670001092C70310929303109292031092C0030A
:103680001092C1031092C2031092C3031092BC03A4
:103690001092BD031092BE031092BF031092B803A4
:1036A0001092B9031092BA031092BB031092B403A4
:1036B0001092B5031092B6031092B7031092B003A4
:1036C0001092B1031092B2031092B3031092AC03A4
:1036D0001092AD031092AE031092AF0310929803B4
:1036E0001092990310929A0310929B0310929403E4
:1036F0001092950310929603109297038BED93E02E
:103700009093D8038093D70387E080937A0388E06F
:1037100080937B0310927E0380E280937F0310925C
:10372000800385E080938603109281030E94D20477
:103730006093760370937703809378039093790373
:103740000895DB018F939F930E94AC22BF91AF91AC
:10375000A29F800D911DA39F900DB29F900D1124EB
:10376000089597FB072E16F4009407D077FD09D033
:103770000E94C51B07FC05D03EF4909581959F4F94
:103780000895709561957F4F0895AA1BBB1B51E169
:1037900007C0AA1FBB1FA617B70710F0A61BB70BC1
:1037A000881F991F5A95A9F780959095BC01CD0166
:1037B0000895EE0FFF1F0590F491E02D09945058E5
:1037C000BB27AA270E94F71B0C9453220E94452274
:1037D00038F00E944C2220F039F49F3F19F426F46F
:1037E0000C9442220EF4E095E7FB0C943C22E92F66
:1037F0000E94642258F3BA1762077307840795077B
:1038000020F079F4A6F50C9486220EF4E0950B2EA8
:10381000BA2FA02D0B01B90190010C01CA01A00122
:103820001124FF27591B99F0593F50F4503E68F17D
:103830001A16F040A22F232F342F4427585FF3CFBE
:10384000469537952795A795F0405395C9F77EF48F
:103850001F16BA0B620B730B840BBAF09150A1F0D8
:10386000FF0FBB1F661F771F881FC2F70EC0BA0F5E
:10387000621F731F841F48F4879577956795B795E6
:10388000F7959E3F08F0B0CF9395880F08F09927E1
:10389000EE0F9795879508959F939F77EEE389376D
:1038A0009E0728F4E8E6F0E00E942F1E0CC00E945C
:1038B000DA1D9058A2EA2AED3FE049EC5FE30E944E
:1038C000F71B0E9453220F9007FC905808950E9406
:1038D000452260F080E891E009F49EEF0E944C22BE
:1038E00028F040E851E071F45EEF0CC00C944222E5
:1038F0000C948622E92FE0780E94642240F3092E7E
:10390000052AB1F3261737074807590738F00E2E56
:1039100007F8E02569F0E025E0640AC0EF6307F8E6
:10392000009407FADB01B9019D01DC01CA01AD0178
:10393000EF930E94F51C0E9453220E94AA1C5F91E3
:10394000552339F02BED3FE049E450FD49EC0C9450
:10395000E01B0895DF93DD27B92FBF7740E85FE3D1
:103960001616170648075B0718F4D92F0E94871E02
:103970009F938F937F936F930E94DD1EECE7F0E09F
:103980000E94081E0E9453222F913F914F915F91F8
:103990000E94DF21DD2351F09058A2EA2AED3FE09A
:1039A00049EC5FE3D0785D270E94F71BDF910C9410
:1039B00053220E94451EE3950C946E1E0E94F21C39
:1039C0000C9453220E944C2258F00E94452240F051
:1039D00029F45F3F29F00C943C2251110C9487226A
:1039E0000C9442220E94642268F39923B1F3552378
:1039F00091F3951B550BBB27AA2762177307840702
:103A000038F09F5F5F4F220F331F441FAA1FA9F397
:103A100035D00E2E3AF0E0E832D091505040E69585
:103A2000001CCAF72BD0FE2F29D0660F771F881FE6
:103A3000BB1F261737074807AB07B0E809F0BB0BD9
:103A4000802DBF01FF2793585F4F3AF09E3F5105ED
:103A500078F00C943C220C9487225F3FE4F3983E6C
:103A6000D4F3869577956795B795F7959F5FC9F7D6
:103A7000880F911D9695879597F90895E1E0660F57
:103A8000771F881FBB1F621773078407BA0720F0D0
:103A9000621B730B840BBA0BEE1F88F7E095089539
:103AA0000E94571D6894B1110C94872208950E94BA
:103AB0006C2288F09F5798F0B92F9927B751B0F032
:103AC000E1F0660F771F881F991F1AF0BA95C9F7A2
:103AD00014C0B13091F00E948622B1E008950C9498
:103AE0008622672F782F8827B85F39F0B93FCCF34B
:103AF000869577956795B395D9F73EF4909580951F
:103B0000709561957F4F8F4F9F4F08950E9445227A
:103B100020F019F00E944C2250F40C9442220C9494
:103B20008722E92F0E94642288F35523B1F3E7FB33
:103B30006217730784079507A8F189F3E92FFF2718
:103B400088232AF03197660F771F881FDAF7952FA1
:103B50005527442332F091505040220F331F441F09
:103B6000D2F7BB27E91BF50B621B730B840BB10962
:103B7000B1F222F4620F731F841FB11D31972AF036
:103B8000660F771F881FBB1FEFCF9150504062F028
:103B900041F0882332F0660F771F881F9150504004
:103BA000C1F793950C94FA1D8695779567959F5F5D
:103BB000D9F7F7CFDF93CF931F930F938B01EC01CE
:103BC000E9EAF0E00E94081E0E9453229801AE012B
:103BD0008B01EC0160E070E080E89FE30E94DF1B56
:103BE0000E949D1E9801AE010F911F91CF91DF9110
:103BF0000C94DF219F3F31F0915020F48795779509
:103C00006795B795880F911D9695879597F90895B3
:103C1000DF93CF931F930F93FF92EF92DF927B017D
:103C20008C01689406C0DA2EEF010E94DF21FE01AC
:103C3000E894A5912591359145915591A6F3EF0111
:103C40000E94F71BFE019701A801DA9469F7DF9043
:103C5000EF90FF900F911F91CF91DF9108959F9367
:103C60008F937F936F93FF93EF939B01AC010E941F
:103C7000CC21EF91FF910E94081E2F913F914F910F
:103C80005F910C94CC210C9442220E946C22D8F3B8
:103C9000E894E0E0BB279F57F0F02AED3FE049ECC5
:103CA00006C0EE0FBB0F661F771F881F28F0B23AC1
:103CB00062077307840728F0B25A620B730B840BF8
:103CC000E3959A9572F7803830F49A95BB0F661F8A
:103CD000771F881FD2F790480C94FC1DEF93E0FFEC
:103CE00007C0A2EA2AED3FE049EC5FEB0E94F71B18
:103CF0000E9453220F90039401FC9058E1EDF0E0F4
:103D00000C942F1E0E94A82108F48FEF08959B01A8
:103D1000AC0160E070E080E89FE30C94DE1C9F93B0
:103D20000E94451E0F9007FCEE5F0C946E1E19F466
:103D300016F40C9442220C94FA1D0E946C22B8F3E3
:103D40009923C9F3B6F39F57550B87FF0E94E61ED0
:103D50000024A0E640EA900180585695979528F4F3
:103D6000805C660F771F881F20F0261737074807EB
:103D700030F4621B730B840B202931294A2BA69542
:103D800017940794202531254A2758F7660F771F87
:103D9000881F20F026173707480730F4620B730B93
:103DA000840B200D311D411DA09581F7B901842F91
:103DB0009158880F9695879508959B01AC010C94B6
:103DC000CC210E94A821880B990B08959150504056
:103DD000660F771F881FD2F7089581E090E0F8946E
:103DE0000C942723FC018191861721F08823D9F7B1
:103DF000992708953197CF010895FB01DC014150C7
:103E0000504048F001900D920020C9F701C01D926A
:103E100041505040E0F70895FB0151915523A9F01E
:103E2000BF01DC014D9145174111E1F759F4CD0176
:103E30000190002049F04D9140154111C9F3FB015B
:103E40004111EFCF81E090E0019708958F929F920A
:103E5000AF92BF92CF92DF92EF92FF92CF93DF9318
:103E6000EC01688179818A819B81611571058105E9
:103E7000910521F464E279ED8BE597E02DE133EFD4
:103E800041E050E00E948D2249015A019B01AC01A2
:103E9000A7EAB1E40E94AC226B017C01ACEEB4EF66
:103EA000A50194010E94BA22DC01CB018C0D9D1D5D
:103EB000AE1DBF1DB7FF03C00197A109B04888839D
:103EC0009983AA83BB839F77DF91CF91FF90EF9077
:103ED000DF90CF90BF90AF909F908F9008950E94F9
:103EE000261F08958DE091E00E94261F0895A0E00E
:103EF000B0E080930D0190930E01A0930F01B09359
:103F000010010895662777270C94E81FFC01882785
:103F10009927E89421912032E9F3293010F02E30CE
:103F2000C8F32B3241F02D3239F4689404C00E945A
:103F3000E01F820F911D219120532A30C0F31EF4FF
:103F4000909581959F4F08951F93FC01992788278D
:103F5000BC01E89411911032E9F3193010F01E30D1
:103F6000C8F31B3251F01D3249F4689406C00E9418
:103F7000CB1F610F711D811D911D119110531A30BE
:103F8000B0F33EF490958095709561957F4F8F4F7B
:103F90009F4F1F910895592F482F372F262F660FB7
:103FA000771F881F991F660F771F881F991F620F41
:103FB000731F841F951F660F771F881F991F089511
:103FC0007AE0979F902D879F802D910D1124089561
:103FD000A0E0B0E0EEEEFFE10C94C322EC017B0127
:103FE0006115710519F0DB018D939C938E010F5FB4
:103FF0001F4F7880872D90E00E944521892B11F07A
:10400000E801F4CFBDE27B1205C00F5F1F4F79803E
:10401000C1E008C0EBE27E1204C08E010E5F1F4FAC
:104020007980C0E06801F1E0CF1AD10843E050E0A8
:104030006BE671E0C6010E944E21892BF1F4680104
:1040400022E0C20ED11C45E050E066E671E0C601F8
:104050000E944E21892B21F4680187E0C80ED11CF3
:10406000E114F10419F0D701CD92DC92C111FFC027
:1040700060E070E080E89FE703C143E050E063E662
:1040800071E0C6010E944E21892B51F4E114F10424
:1040900009F4F2C00E5F1F4FF70111830083ECC0DB
:1040A000680160E070E0CB0100E010E0F601D0EDC7
:1040B000D70DDA3058F52C2F2260622E2C2F287065
:1040C000C2FF05C0211128C00F5F1F4F25C022234A
:1040D00011F001501109A5E0B0E09B01AC010E9474
:1040E000AC224B015C01880C991CAA1CBB1CC501AD
:1040F000B4016D0F711D811D911D6839A9E97A0701
:104100008A07A9E19A0740F0C66005C0DE3F51F476
:10411000C3FD44C0C8606C2EBFEFCB1ADB0A7080B1
:10412000C62DC4CF2D2F2F7D2531C1F540814D32B5
:1041300011F4C06106C04B3221F0319621E030E02D
:1041400006C03296D60111964C9122E030E0A0EDE7
:10415000A40FAA3018F0E21BF30B20C040E050E09F
:104160004038BCE05B075CF49A01220F331F220F3A
:10417000331F420F531F440F551F4A0F511D3196D5
:10418000DF0111972C91A0EDA20FAA3048F3C4FFD4
:1041900003C0519541955109040F151FC1FF07C078
:1041A000E114F10421F03197D701ED93FC930E94C3
:1041B0006B21C370C33019F06B017C0106C06B0129
:1041C0007C01F7FAF094F7F8F09420E030E0A901D0
:1041D000C701B6010E946621882309F445C017FF74
:1041E00006C0119501951109C2E8D1E002C0CAE9E3
:1041F000D1E05E01B8E1AB1AB1084601BE2DAF2D8A
:1042000090E2E92EF12C0E151F0584F0FE01259198
:10421000359145915491B4018B2F9A2F0E94CC2156
:104220004B01B82FA92F0E191F09EDCF2497F59434
:10423000E794CA15DB0539F76401EB2EFA2E8E2DB3
:10424000880F8F2D881F8F3F49F020E030E0A901B3
:10425000C701B6010E946621811106C082E290E08A
:104260009093F2048093F104C701B60109C060E0A5
:1042700070E080E89FEF04C060E070E080EC9FE7B2
:10428000CDB7DEB7EEE00C94DF2291110C94392209
:10429000803219F089508550C8F70895FB01DC0180
:1042A0004150504088F08D9181341CF08B350CF4D6
:1042B000805E659161341CF06B350CF4605E861B8A
:1042C000611171F3990B0895881BFCCF0E94A821FE
:1042D00008F481E00895E89409C097FB3EF49095B6
:1042E0008095709561957F4F8F4F9F4F9923A9F0CF
:1042F000F92F96E9BB279395F6958795779567955E
:10430000B795F111F8CFFAF4BB0F11F460FF1BC0A1
:104310006F5F7F4F8F4F9F4F16C0882311F096E934
:1043200011C0772321F09EE8872F762F05C06623E2
:1043300071F096E8862F70E060E02AF09A95660F9B
:10434000771F881FDAF7880F9695879597F9089554
:10435000990F0008550FAA0BE0E8FEEF1616170696
:10436000E807F907C0F012161306E407F50798F0FE
:10437000621B730B840B950B39F40A2661F0232B17
:10438000242B252B21F408950A2609F4A140A69593
:104390008FEF811D811D08950E94DF210C9453220F
:1043A0000E94452238F00E944C2220F0952311F003
:1043B0000C943C220C94422211240C9487220E94DB
:1043C000642270F3959FC1F3950F50E0551F629FD3
:1043D000F001729FBB27F00DB11D639FAA27F00D5E
:1043E000B11DAA1F649F6627B00DA11D661F829F85
:1043F0002227B00DA11D621F739FB00DA11D621F6A
:10440000839FA00D611D221F749F3327A00D611D86
:10441000231F849F600D211D822F762F6A2F112468
:104420009F5750409AF0F1F088234AF0EE0FFF1F9B
:10443000BB1F661F771F881F91505040A9F79E3FF2
:10444000510580F00C943C220C9487225F3FE4F3EA
:10445000983ED4F3869577956795B795F795E79548
:104460009F5FC1F7FE2B880F911D9695879597F951
:10447000089599278827089597F99F6780E870E045
:1044800060E008959FEF80EC089500240A941616CA
:10449000170618060906089500240A941216130632
:1044A000140605060895092E0394000C11F48823C0
:1044B00052F0BB0F40F4BF2B11F460FF04C06F5FDC
:1044C0007F4F8F4F9F4F089557FD9058440F551FB2
:1044D00059F05F3F71F04795880F97FB991F61F086
:1044E0009F3F79F087950895121613061406551FFD
:1044F000F2CF4695F1DF08C0161617061806991F69
:10450000F1CF86957105610508940895E894BB275D
:1045100066277727CB0197F90895052E97FB1EF4A0
:1045200000940E94A42257FD07D00E94F62207FCA7
:1045300003D04EF40C94A4225095409530952195CB
:104540003F4F4F4F5F4F08959095809570956195BF
:104550007F4F8F4F9F4F08950E941823A59F900D66
:10456000B49F900DA49F800D911D11240895B7FF55
:104570000C94AC220E94AC22821B930B08952F92C4
:104580003F924F925F926F927F928F929F92AF92E3
:10459000BF92CF92DF92EF92FF920F931F93CF9330
:1045A000DF93CDB7DEB7CA1BDB0B0FB6F894DEBFC7
:1045B0000FBECDBF09942A88398848885F846E84ED
:1045C0007D848C849B84AA84B984C884DF80EE8037
:1045D000FD800C811B81AA81B981CE0FD11D0FB640
:1045E000F894DEBF0FBECDBFED010895A1E21A2EF3
:1045F000AA1BBB1BFD010DC0AA1FBB1FEE1FFF1F87
:10460000A217B307E407F50720F0A21BB30BE40BD6
:10461000F50B661F771F881F991F1A9469F760951D
:104620007095809590959B01AC01BD01CF010895D7
:10463000A29FB001B39FC001A39F700D811D1124E3
:10464000911DB29F700D811D1124911D089510E0E0
:10465000C0EDD0E004C0FE010E94D91B2196C13DEF
:08466000D107C9F7F894FFCF60
:10466800416C6C56656800060000000000010000FF
:1046780000000000005401D4071D01FB000F019B3E
:104688000100000000E001D40734024C02C701DF3A
:104698000124504D544B3331342C302C312C302CD8
:1046A800312C302C302C302C302C302C302C302C21
:1046B800302C302C302C302C302C302C302C302A14
:1046C80032380024504D544B3232302C3230302A9C
:1046D800324300245047434D442C33332C312A367F
:1046E800430024504D544B3630352A33310024478B
:1046F8005047474100244750524D4300202D2D2D4F
:104708002D2D2D2D2D2D2D2D2D2D2D2D73746172CB
:10471800742D2D2D2D2D2D2D2D2D2D2D2D2D2D2D7A
:104728002D2D2D2D2D2D2D2D2D20004C6F636174D9
:10473800696F6E3A20002C20000D0A004C6F6361EF
:1047480074696F6E2028696E206465677265657389
:10475800293A2000537065656420286B6E6F747366
:10476800293A2000416E676C653A200053617465F0
:104778006C6C697465733A2000202D2D2D2D2D2D1C
:104788002D2D2D2D2D2D2D2D2D20656E64202D2DBB
:104798002D2D2D2D2D2D2D2D2D2D2D2D2D2D2D2D41
:1047A8002D2D2D2D2D2D200063617220736F6D65C9
:1047B800207768657265006E616E00696E66006FCD
:0647C8007666002E0000E1
:00000001FF
