:100000000C94BE000C94E6000C94E6000C94B20430
:100010000C94B2040C94B2040C94E6000C94E60028
:100020000C94E6000C94E6000C94E6000C94E600B8
:100030000C94E6000C94E6000C94E6000C94E600A8
:100040000C9461040C94E6000C949D030C947703CB
:100050000C94E6000C94E6000C94E6000C94E60088
:100060000C94E6000C94E600036EDB363D9A9999F9
:10007000993DABAAAA2A3E000000803F084AD73B20
:100080003BCE016E84BCBFFDC12F3D6C74319ABD67
:1000900056833DDA3D00C77F11BED9E4BB4C3E918B
:1000A0006BAAAABE000000803F072C7AA5BA6CC5D7
:1000B00090DA3B9365FC8BBC53F810FD3C56928361
:1000C0004DBD879D3AB63DCBC9BF5BBE73DA0FC944
:1000D0003F05A84CCDB2D44EB93836A9020C50B960
:1000E000918688083CA6AAAA2ABE000000803F008C
:1000F00000000008000201000003040700000000E7
:10010000000000001112131415160A0B0C0D0E0F2F
:100110006661696C6564004E6F772073656E646913
:100120006E67203A20004E6F7720726563656976AE
:10013000696E67203A200000000000250028002B8F
:100140000000000000240027002A00040404040426
:100150000404040202020202020303030303030174
:10016000020408102040800102040810200102044B
:1001700008102000010203040500C00C11241FBE5A
:10018000CFEFD8E0DEBFCDBF11E0A0E0B1E0EEEDF3
:10019000F2E202C005900D92AA3CB107D9F723E024
:1001A000AAECB1E001C01D92AE32B207E1F710E057
:1001B000CEEBD0E004C02197FE010E940E0DCD3B96
:1001C000D107C9F70E94C3070C946D110C9400006D
:1001D000FC01918D828D981761F0828DDF01A80F4F
:1001E000B11D5D968C91928D9F5F9F73928F90E071
:1001F00008958FEF9FEF0895FC01918D828D9817E0
:1002000031F0828DE80FF11D858D90E008958FEF1C
:100210009FEF0895FC01918D228D892F90E0805CE5
:100220009F4F821B91098F739927089589E192E06E
:100230000E940A0121E0892B09F420E0822F089511
:10024000FC01848DDF01A80FB11DA35ABF4F2C9173
:10025000848D90E001968F739927848FA689B78942
:100260002C93A089B1898C9180648C93938D848D1B
:10027000981306C00288F389E02D80818F7D8083EA
:100280000895EF92FF920F931F93CF93DF93EC01AA
:1002900081E0888F9B8D8C8D981305C0E889F98942
:1002A000808185FD24C0F62E0B8D10E00F5F1F4F5F
:1002B0000F731127E02E8C8DE8120CC00FB607FCCF
:1002C000FACFE889F989808185FFF5CFCE010E94B8
:1002D0002001F1CF8B8DFE01E80FF11DE35AFF4F96
:1002E000F0820B8FEA89FB898081806207C0EE89EA
:1002F000FF896083E889F98980818064808381E057
:1003000090E0DF91CF911F910F91FF90EF900895B2
:10031000CF93DF93EC01888D8823C9F0EA89FB89AC
:10032000808185FD05C0A889B9898C9186FD0FC0A3
:100330000FB607FCF5CF808185FFF2CFA889B98978
:100340008C9185FFEDCFCE010E942001E7CFDF9198
:10035000CF91089580E090E0892B29F00E9416014A
:1003600081110C94000008953FB7F8948091D10159
:100370009091D201A091D301B091D40126B5A89B50
:1003800005C02F3F19F00196A11DB11D3FBFBA2F27
:10039000A92F982F8827820F911DA11DB11DBC0187
:1003A000CD0142E0660F771F881F991F4A95D1F74C
:1003B00008950E941B10EF92FF920F931F93CF930B
:1003C000DF93CDB7DEB761E271E089E192E00E9490
:1003D000C1076FA978AD89AD9AAD42E050E00E94A7
:1003E000A2066CE271E089E192E00E94C1076BA96C
:1003F0007CA98DA99EA942E050E00E94A20667E375
:1004000071E089E192E00E94C107CE01CB960E9483
:10041000460662E471E089E192E00E94C1076D85C1
:100420007E858F8598894AE050E00E94A2066DE49F
:1004300071E089E192E00E94C10769857A858B8528
:100440009C854AE050E00E94A206CE0109967C01FC
:1004500000E010E0C8010E94870768E571E089E1CB
:1004600092E00E94C107F7016485758586859785AE
:100470004AE050E00E94A206C8010E94870762E697
:1004800071E089E192E00E94C107F7016085718502
:10049000828593854AE050E00E94A2060F5F1F4FBD
:1004A000F8E0EF0EF11C04301105A1F6DF91CF91B9
:1004B0001F910F91FF90EF9008954F925F926F926E
:1004C0007F928F929F92AF92BF92CF92DF92EF92E4
:1004D000FF920F931F93CF93DF93CDB7DEB7A09713
:1004E0000FB6F894DEBF0FBECDBF29873A874B8782
:1004F0005C8727013801AD8ABE8ACF8AD88E2BED62
:100500003FE049E450E40E948D1020E030E044E3F5
:1005100053E40E94130E6B017C012BED3FE049E494
:1005200050E469857A858B859C850E948D10698F42
:100530007A8F8B8F9C8FC701B6010E94BD0F4B0134
:100540005C0120E73DE642EC5AE4C301B2010E949F
:10055000130E2B013C010E940E0E69877A878B8750
:100560009C87C701B6010E940E0E6D877E878F871C
:10057000988BC301B2010E94BD0F698B7A8B8B8B64
:100580009C8B6D897E898F89988D0E940E0E2B0120
:100590003C0129853A854B855C85C501B4010E94E3
:1005A0008D106B017C0129893A894B895C896D85A5
:1005B0007E858F8598890E948D10A30192010E94EB
:1005C0008D109B01AC01C701B6010E94150D0E9460
:1005D000810D6B017C010E94BD0F9B01AC016D89F7
:1005E0007E898F89988D2D8F3E8F4F8F58A30E94C3
:1005F000BD0F2B013C012D8D3E8D4F8D58A1C501A6
:10060000B4010E948D109B01AC0169857A858B85B0
:100610009C850E94140D4B015C0129893A894B8904
:100620005C89C301B2010E948D102D853E854F85E6
:1006300058890E948D10A50194010E94AF0D4B01B5
:100640005C0120E030E044E353E4698D7A8D8B8DCA
:100650009C8D0E94130EA50194010E94150D20E0AF
:1006600030E044E353E40E948D102BED3FE049E479
:1006700050E40E94130EB62EAB01BC0149835A838D
:100680006B837C8320E030E044E353E4C701B60190
:100690000E948D102BED3FE049E450E40E94130EC0
:1006A000E62F462F572FBC014D835E836F837887DB
:1006B0002B2D3A814B815C816E2F7E818F819885B5
:1006C000A0960FB6F894DEBF0FBECDBFDF91CF91DD
:1006D0001F910F91FF90EF90DF90CF90BF90AF9060
:1006E0009F908F907F906F905F904F9008951F9292
:1006F0000F920FB60F9211242F933F934F935F9356
:100700006F937F938F939F93AF93BF93EF93FF93D9
:1007100089E192E00E942001FF91EF91BF91AF919A
:100720009F918F917F916F915F914F913F912F9109
:100730000F900FBE0F901F9018951F920F920FB63B
:100740000F9211242F938F939F93EF93FF93E09138
:100750002902F0912A028081E0912F02F09130026B
:1007600082FD12C09081809132028F5F8F73209141
:100770003302821751F0E0913202F0E0E75EFD4F64
:10078000958F8093320201C08081FF91EF919F91FC
:100790008F912F910F900FBE0F901F90189590E0A2
:1007A000FC01E051FF4F3491FC01E15AFE4F2491CE
:1007B000FC01E55BFE4FE491EE2309F43BC03323DB
:1007C00039F1333091F038F43130A9F0323001F59D
:1007D00084B58F7D12C0373091F03830A1F03430BD
:1007E000B9F4809180008F7D03C0809180008F7765
:1007F000809380000DC084B58F7784BD09C080913F
:10080000B0008F7703C08091B0008F7D8093B000DF
:10081000F0E0EE0FFF1FE95CFE4FA591B4918FB79A
:10082000F894EC91611103C020952E2301C02E2B6A
:100830002C938FBF08958F929F92AF92BF92CF92C9
:10084000DF92EF92FF926B017C010E94B4014B0199
:100850005C01C114D104E104F104F1F00E94B4017F
:10086000DC01CB0188199909AA09BB09883E93408C
:10087000A105B10570F321E0C21AD108E108F10821
:1008800088EE880E83E0981EA11CB11CC114D1040F
:10089000E104F10419F7DDCFFF90EF90DF90CF90E6
:1008A000BF90AF909F908F9008952FB7F89460916C
:1008B000CD017091CE018091CF019091D0012FBFD9
:1008C00008951F920F920FB60F9211242F933F930A
:1008D0008F939F93AF93BF938091CD019091CE0161
:1008E000A091CF01B091D0013091CC0123E0230F32
:1008F0002D3720F40196A11DB11D05C026E8230F58
:100900000296A11DB11D2093CC018093CD0190933F
:10091000CE01A093CF01B093D0018091D1019091ED
:10092000D201A091D301B091D4010196A11DB11DB6
:100930008093D1019093D201A093D301B093D401BD
:10094000BF91AF919F918F913F912F910F900FBECB
:100950000F901F9018958EBD00000DB407FEFDCFBF
:100960008EB508951F920F920FB60F9211240F901B
:100970000FBE0F901F901895CF92DF92EF92FF92CB
:100980000F931F93CF93DF936C017A018B01C0E02B
:10099000D0E0CE15DF0589F0D8016D918D01D6012B
:1009A000ED91FC910190F081E02DC6010995892B14
:1009B00011F47E0102C02196ECCFC701DF91CF91E7
:1009C0001F910F91FF90EF90DF90CF900895E9E194
:1009D000F2E0A089B18982E08C93A485B5851C9250
:1009E000A685B78580E18C93108EA489B58986E0B1
:1009F0008C93A289B3898C9180618C93A289B389ED
:100A00008C9188608C93A289B3898C9180688C9337
:100A10000288F389E02D80818F7D808308959CB5C5
:100A20009F7D9CBD9CB5937F9CBD9CB59C7F9CBDD0
:100A30009DB591609DBD682F8091F7020E94CF0304
:100A40008FE090E00197F1F7089581E00C940F0595
:100A500080E00C940F05CF93DF931F92CDB7DEB7E4
:100A60000E94280581EE0E94AB0489830E9425051F
:100A700089810F90DF91CF910895CF93DF931F92DB
:100A8000CDB7DEB789830E94280589818F710E94C6
:100A9000AB048FEF0E94AB0489830E9425058981F6
:100AA0000F90DF91CF9108951F93CF93DF9300D0E4
:100AB000CDB7DEB76A8389830E94280589818F714B
:100AC00080620E94AB04182F6A81862F0E94AB04BB
:100AD0000E942505812F0F900F90DF91CF911F91DC
:100AE0000895EF92FF920F931F93CF93DF9300D05F
:100AF0001F92CDB7DEB7162F4A837B8389830E946E
:100B0000280589818F7180620E94AB04082FE12E35
:100B10007B81F72E4A81140F1E1531F0F701819168
:100B20007F010E94AB04F8CF0E942505802F0F9013
:100B30000F900F90DF91CF911F910F91FF90EF9049
:100B40000895682F8091F6029091F70289130C9412
:100B5000CF03089580E00E943D0581FD0BC0682F02
:100B6000626080E00E94540565E070E080E090E003
:100B70000C941B0408950E94AA0580E00E943D0584
:100B8000682F616080E00E94540560E787E00E9462
:100B9000540581E00E94A1058091FD02882341F067
:100BA000409102036DEF72E08AE00E94710512C06D
:100BB00082E00E943D05E3E7F1E0E49121E030E0CE
:100BC00001C0220FEA95EAF72095622F682382E0A0
:100BD0000E9454058DE10E943D0581FD0C942B057A
:100BE000089590E0FC01E15AFE4F2491FC01E55B81
:100BF000FE4F8491882399F090E0880F991FFC01A3
:100C0000EF5BFE4FA591B491FC01E95CFE4F85912D
:100C100094918FB7F894EC91E22BEC938FBF0895E9
:100C20000F931F93CF93DF938C01C0E0D0E0F801C6
:100C3000EC0FFD1F6491662371F0E0911902F091B1
:100C40001A020190F081E02D89E192E00995892B4B
:100C500011F02196ECCFCE01DF91CF911F910F9132
:100C600008956115710579F0FB0101900020E9F705
:100C70003197AF01461B570BDC01ED91FC910280CF
:100C8000F381E02D099480E090E00895CF93DF9305
:100C9000BC0189E192E00E943106EC016EE971E04D
:100CA00089E192E00E9431068C0F9D1FDF91CF9168
:100CB00008954F925F926F927F92EF92FF920F93FF
:100CC0001F93CF93DF93CDB7DEB7A1970FB6F894FC
:100CD000DEBF0FBECDBF7C01FA01CB0119A22230CD
:100CE00008F42AE08E010F5D1F4F422E512C612C1B
:100CF000712CBF01A30192010E944B11F901CA019D
:100D0000015011096A3014F4605D01C0695CD801BA
:100D10006C93232B242B252B61F7B801C7010E946C
:100D20003106A1960FB6F894DEBF0FBECDBFDF919E
:100D3000CF911F910F91FF90EF907F906F905F90F8
:100D40004F9008954F925F926F927F928F929F92F1
:100D5000AF92BF92CF92DF92EF92FF92CF93DF9349
:100D60006B017C01B42E9B01AC010E940F10882303
:100D700019F06BEB71E01AC026013701E89477F89F
:100D80002FEF3FEF4FE75FE7C301B2010E940F1063
:100D9000811112C02FEF3FEF4FE75FE7C301B201B0
:100DA0000E942710181644F46FEB71E089E192E07D
:100DB0000E943106EC0194C02FEF3FEF4FE75FE454
:100DC000C701B6010E94B00F18161CF463EC71E065
:100DD000EDCF2FEF3FEF4FE75FECC701B6010E9469
:100DE000271087FDF3CF20E030E0A901C701B6014D
:100DF0000E94271087FF11C0E0911902F0911A029A
:100E00000190F081E02D6DE289E192E00995EC011D
:100E1000F7FAF094F7F8F09402C0C0E0D0E0A12C0B
:100E200060E070E080E09FE3AB1440F420E030E04D
:100E300040E251E40E94130EA394F6CF9B01AC0153
:100E4000C701B6010E94150D2B013C010E94850EC1
:100E50006B017C010E942C109B01AC01C301B2010B
:100E60000E94140D2B013C012AE0B701A60189E183
:100E700092E00E945906C80FD91FBB2041F067ECD1
:100E800071E089E192E00E943106C80FD91FFB2C66
:100E9000FF2031F120E030E040E251E4C301B20133
:100EA0000E948D102B013C010E94850E4B01A12C4C
:100EB000B12C2AE0B501A40189E192E00E94590613
:100EC000C80FD91FC501B4010E942C109B01AC01B1
:100ED000C301B2010E94140D2B013C01FA94D8CF3A
:100EE0006EE971E089E192E00E9431068C0F9D1F4E
:100EF000DF91CF91FF90EF90DF90CF90BF90AF90B8
:100F00009F908F907F906F905F904F900895CF92B9
:100F1000DF92EF92FF92CF93DF936C01990FEE086F
:100F2000FF08F7FE21C0E0911902F0911A0201902A
:100F3000F081E02D6DE289E192E00995EC01442712
:100F40005527BA014C195D096E097F092AE089E12C
:100F500092E00E9459068C0F9D1FDF91CF91FF9068
:100F6000EF90DF90CF9008952AE0B701A60189E1C4
:100F700092E0DF91CF91FF90EF90DF90CF900C94B3
:100F800059060C943106CF93DF93CDB7DEB7C55524
:100F9000D1090FB6F894DEBF0FBECDBF789484B5EB
:100FA000826084BD84B5816084BD85B5826085BD65
:100FB00085B5816085BD80916E00816080936E00F3
:100FC00010928100809181008260809381008091E5
:100FD0008100816080938100809180008160809396
:100FE00080008091B10084608093B1008091B00056
:100FF00081608093B00080917A00846080937A0051
:1010000080917A00826080937A0080917A0081607A
:1010100080937A0080917A00806880937A001092A1
:10102000C10010920D0210920E0210920F02109247
:1010300010021092DB011092DC011092DD0110927F
:10104000DE0160ED77E080E090E00E941B0489E122
:1010500092E090930C0280930B020E94E7040E949E
:101060005504C090DB01D090DC01E090DD01F090F0
:10107000DE01DC01CB018C199D09AE09BF09843664
:101080009105A105B10538F463E070E080E090E0DF
:101090000E941B04E4CF0E9455046093DB0170930F
:1010A000DC018093DD019093DE016CE671E08091BC
:1010B0000B0290910C020E94C1076AE070E080E090
:1010C00090E00E941B0481E08093DF010E94E7040E
:1010D0008091F6029091F70289130E94F1058091A8
:1010E000F7029091F60298130E94F1051FB7F89449
:1010F0008091D501811124C0E5E5F1E08491E9E614
:10110000F1E09491E82FF0E0EE0FFF1FEF5BFE4F50
:10111000A591B491EC91E92321F461E08AE00E9469
:10112000CF038AE00E94F1058CB580618CBD8CB53F
:1011300080648CBD8DE00E94F1058BE00E94F1057A
:101140008091D5018F5F8093D5011FBF80E00E9401
:10115000A10581E00E940F0565E070E080E090E06D
:101160000E941B046CE080E00E9454056FE584E05F
:101170000E94540586E00E943D05877D182F10626D
:101180008BE990E0A0E0B0E0809303039093040328
:10119000A0930503B0930603612F86E00E945405D7
:1011A00086E00E943D05811709F405C386E00E9490
:1011B0003D0586E00E943D0545E550E060E070E0B9
:1011C0004093030350930403609305037093060355
:1011D000682F677D86E00E94540586E00E943D05E9
:1011E0000E94280580E50E94AB0483E70E94AB04BF
:1011F0000E94250560E08DE10E94540560E08CE1CD
:101200000E94540560E787E00E9454056CE485E085
:101210000E9454050E94280582EE0E94AB040E94A1
:1012200025050E942B050E94AA0580E00E943D052D
:10123000682F6E7F80E00E94540567E071E088EEC1
:1012400092E00E94201086E00E943D05887F682F72
:10125000636086E00E9454054091020360E071E003
:101260008AE00E9471054091020360E071E080E134
:101270000E9471056091FB0281E10E945405EBE040
:10128000F1E084914091020360E071E00E947105F9
:10129000E5E0F1E084916091FB020E94540582E058
:1012A0000E943D05E4E7F1E0E49161E070E001C0F7
:1012B000660FEA95EAF7682B82E00E9454050E94C7
:1012C000BB05E2E28E2EF0E49F2EA4E02A2E312C04
:1012D0000E945504672B682B692B09F070C20E948D
:1012E0005504623071058105910508F068C23DC062
:1012F0000E9455046093DB017093DC018093DD0153
:101300009093DE016EE771E080910B0290910C02E8
:101310000E94C10766E871E080910B0290910C0277
:101320000E94C1070E945504AB01BC012AE08091D4
:101330000B0290910C020E94590668E871E08091BE
:101340000B0290910C020E94C10765E070E080E002
:1013500090E00E941B046AE070E080E090E00E9450
:101360001B048091DF01811185C224EA3FE149E23B
:1013700052E42093BA023093BB024093BC025093D4
:10138000BD0288E698E7A6EAB2EC8093B602909395
:10139000B702A093B802B093B90220E234E64CE958
:1013A00051E42093E4023093E5024093E602509327
:1013B000E70280E090E0A4EBB2E48093E002909337
:1013C000E102A093E202B093E30220E030E044EBBC
:1013D00053E460E070E084E393E40E94BF0E619602
:1013E0006CAF7DAF8EAF9FAF61975B016C01E12C5D
:1013F000F12C00EC1FE328E638E746EA52EC64EAF9
:101400007FE189E292E40E945D0220932003309301
:10141000210340932203509323036093240370938A
:101420002503809326039093270320E030E044EBCC
:1014300053E4CA01B9010E94BF0E65966CAF7DAF3F
:101440008EAF9FAF65975B016C0128E638E746EAEF
:1014500052EC64EA7FE189E292E40E945D0220930B
:1014600008033093090340930A0350930B036093DE
:101470000C0370930D0380930E0390930F03A12C24
:10148000B12C54EBC52E52E4D52E10E2E12E14E619
:10149000F12E0CE912E428E638E746EA52EC64EA59
:1014A0007FE189E292E40E945D0222962FAF2297AB
:1014B00023963FAF239724964FAF249725965FAF8F
:1014C000259726966FAF269727967FAF2797289662
:1014D0008FAF289729969FAF299725962CAD3DADC4
:1014E0004EAD5FAD25972D962CAF3DAF4EAF5FAFA4
:1014F0002D9729964CAC5DAC6EAC7FAC299761966C
:10150000ACACBDACCEACDFAC6197E12CF12C00EC07
:101510001FE3C301B2010E945D02209318033093C0
:10152000190340931A0350931B0360931C03709399
:101530001D0380931E0390931F036596ACACBDAC56
:10154000CEACDFAC65972D962CAD3DAD4EAD5FAD0D
:101550002D97C301B2010E945D02209310033093C6
:101560001103409312035093130360931403709379
:1015700015038093160390931703E8E0F3E0AEEBB6
:10158000B2E0882D01900D928A95E1F781EA91E011
:101590000E9446064DB75EB7405451090FB6F89405
:1015A0005EBF0FBE4DBFADB7BEB71196E6EBF2E022
:1015B000892D01900D928A95E1F70E94DB010FB60B
:1015C000F894DEBF0FBECDBF0E945504C090D60177
:1015D000D090D701E090D801F090D901DC01CB0187
:1015E0008C199D09AE09BF0989389341A105B10540
:1015F00008F4AFC080E00E94A105809103039091A0
:1016000004038230910538F0880F991F880F991FC5
:1016100005970197F1F78DE10E943D0581FF10C00C
:1016200080910303909104038230910538F0880F74
:10163000991F880F991F05970197F1F70E942B05B5
:1016400080E00E943D05682F6E7F80E00E94540577
:1016500082E00E943D05E3E7F1E0949121E030E073
:1016600001C0220F9A95EAF7682F622B82E00E9450
:10167000540587E191E00E9410060E94B4016B01BD
:101680007C018091FB02182F813408F010E49091C6
:10169000FC02911103C0782E711A01C0712C0E94B6
:1016A000280580EA0E94AB0486EB482E82E0582E83
:1016B000115030F0D2018D912D010E94AB04F8CF72
:1016C000772029F080E00E94AB047A94F9CF0E9441
:1016D000250581E00E94A1050E9428058FEF0E9448
:1016E000AB0466968FAF66970E94250566968FAD10
:1016F0006697807389F380E00E94A10560E787E028
:101700000E94540584FF0CC00E942B0580E191E0EB
:101710000E9410066EE971E089E192E00E943106B4
:101720002AE0B701A60189E192E00E9459066EE91C
:1017300071E089E192E00E9431060E94BB050E949F
:1017400055046093D6017093D7018093D80190938C
:10175000D90187E10E943D0580FFE3C029C00E94B6
:10176000250560E787E00E94540587E10E943D055A
:1017700080FFDEC08DEA91E00E944606EDB7FEB71D
:10178000E054F1090FB6F894FEBF0FBEEDBFADB740
:10179000BEB71196FE013196892D01900D928A9562
:1017A000E1F70E94DB010FB6F894DEBF0FBECDBF9C
:1017B0000E94AA018DCD81E08093FA02F7CC0E94AD
:1017C000550460931502709316028093170290934C
:1017D0001802C0901102D0901202E0901302F09013
:1017E00014026C157D058E059F0540F4609311026F
:1017F000709312028093130290931402C09011020E
:10180000D0901202E0901302F09014029B01AC0100
:101810002C193D094E095F0969017A013AEFC31697
:10182000D104E104F10408F4A0CD60931102709397
:10183000120280931302909314020E945504C090E8
:10184000DB01D090DC01E090DD01F090DE01DC01F5
:10185000CB018C199D09AE09BF0984369105A105FC
:10186000B10508F045CD63E070E080E090E00E94B3
:101870001B04E3CF80910B0290910C02DC01ED91EF
:10188000FC910480F581E02D0995892B99F38091D5
:101890000B0290910C02DC01ED91FC910480F5812A
:1018A000E02D0995181619060CF05FCD80910B02FA
:1018B00090910C02DC01ED91FC910680F781E02D06
:1018C000099599278336910551F08637910509F4DA
:1018D0004CCD88359105D9F61092DF01D8CF61E95A
:1018E00071E080910B0290910C020E94C1072AE0E6
:1018F00041E050E060E070E080910B0290910C02BA
:101900000E94590668E971E080910B0290910C02E7
:101910000E94C10762E370E080E090E00E941B0437
:1019200024CD86E291E00E9410063AA629A61DCF9A
:101930008091FB02803410F110E49091FC0291112F
:1019400003C0782E711A01C0712C0E94280581E60F
:101950000E94AB04FE0131967F01115038F08FEFE9
:101960000E94AB04D7018D937D01F7CF772009F456
:10197000F6CE8FEF0E94AB047A94F8CF182FDDCF0C
:10198000E9E1F2E01382128288EE93E0A0E0B0E099
:1019900084839583A683B78385E191E091838083D7
:1019A00085EC90E09587848784EC90E09787868724
:1019B00080EC90E0918B808B81EC90E0938B828B1C
:1019C00082EC90E0958B848B86EC90E0978B868BF5
:1019D000118E128E138E148E84E090E09093290362
:1019E00080932803E6EFF2E027E0208328E02183BC
:1019F000148220E22583168225E0248717829093A3
:101A0000DF028093DE020E94550460932A037093E4
:101A10002B0380932C0390932D030895EE0FFF1F4B
:101A20000590F491E02D09945058BB27AA270E94F5
:101A30002C0D0C9411110E94031138F00E940A1110
:101A400020F039F49F3F19F426F40C9400110EF4A1
:101A5000E095E7FB0C94FA10E92F0E94221158F34D
:101A6000BA17620773078407950720F079F4A6F583
:101A70000C9444110EF4E0950B2EBA2FA02D0B01FF
:101A8000B90190010C01CA01A0011124FF27591BC3
:101A900099F0593F50F4503E68F11A16F040A22FC9
:101AA000232F342F4427585FF3CF4695379527953A
:101AB000A795F0405395C9F77EF41F16BA0B620B39
:101AC000730B840BBAF09150A1F0FF0FBB1F661F80
:101AD000771F881FC2F70EC0BA0F621F731F841FC3
:101AE00048F4879577956795B795F7959E3F08F0E9
:101AF000B0CF9395880F08F09927EE0F97958795AB
:101B000008959F939F77EEE389379E0728F4E8E6D0
:101B1000F0E00E945D0F0CC00E94080F9058A2EAEE
:101B20002AED3FE049EC5FE30E942C0D0E94111169
:101B30000F9007FC905808950E94031160F080E810
:101B400091E009F49EEF0E940A1128F040E851E06C
:101B500071F45EEF0CC00C9400110C944411E92F49
:101B6000E0780E94221140F3092E052AB1F32617CE
:101B700037074807590738F00E2E07F8E02569F0B7
:101B8000E025E0640AC0EF6307F8009407FADB0180
:101B9000B9019D01DC01CA01AD01EF930E942A0E3B
:101BA0000E9411110E94DF0D5F91552339F02BED3A
:101BB0003FE049E450FD49EC0C94150D0895DF9386
:101BC000DD27B92FBF7740E85FE3161617064807F1
:101BD0005B0718F4D92F0E94B50F9F938F937F93C3
:101BE0006F930E940B10ECE7F0E00E94360F0E940A
:101BF00011112F913F914F915F910E94A010DD2311
:101C000051F09058A2EA2AED3FE049EC5FE3D0782A
:101C10005D270E942C0DDF910C9411110E94730F0F
:101C2000E3950C949C0F0E94270E0C9411110E94B6
:101C30000A1158F00E94031140F029F45F3F29F087
:101C40000C94FA1051110C9445110C9400110E943F
:101C5000221168F39923B1F3552391F3951B550B8A
:101C6000BB27AA2762177307840738F09F5F5F4F6F
:101C7000220F331F441FAA1FA9F335D00E2E3AF0AE
:101C8000E0E832D091505040E695001CCAF72BD0C6
:101C9000FE2F29D0660F771F881FBB1F2617370717
:101CA0004807AB07B0E809F0BB0B802DBF01FF2749
:101CB00093585F4F3AF09E3F510578F00C94FA101C
:101CC0000C9445115F3FE4F3983ED4F386957795E5
:101CD0006795B795F7959F5FC9F7880F911D969502
:101CE000879597F90895E1E0660F771F881FBB1F5E
:101CF000621773078407BA0720F0621B730B840B0B
:101D0000BA0BEE1F88F7E09508950E942A1188F01B
:101D10009F5798F0B92F9927B751B0F0E1F0660FAF
:101D2000771F881F991F1AF0BA95C9F714C0B130F0
:101D300091F00E944411B1E008950C944411672F72
:101D4000782F8827B85F39F0B93FCCF3869577951F
:101D50006795B395D9F73EF4909580957095619508
:101D60007F4F8F4F9F4F08950E94031120F019F06D
:101D70000E940A1150F40C9400110C944511E92FA3
:101D80000E94221188F35523B1F3E7FB6217730712
:101D900084079507A8F189F3E92FFF2788232AF004
:101DA0003197660F771F881FDAF7952F5527442341
:101DB00032F091505040220F331F441FD2F7BB27FF
:101DC000E91BF50B621B730B840BB109B1F222F412
:101DD000620F731F841FB11D31972AF0660F771FA2
:101DE000881FBB1FEFCF9150504062F041F0882315
:101DF00032F0660F771F881F91505040C1F79395BE
:101E00000C94280F8695779567959F5FD9F7F7CF44
:101E1000DF93CF931F930F938B01EC01E9EAF0E07E
:101E20000E94360F0E9411119801AE018B01EC0146
:101E300060E070E080E89FE30E94140D0E94CB0FE9
:101E40009801AE010F911F91CF91DF910C94A010DA
:101E50009F3F31F0915020F4879577956795B7951E
:101E6000880F911D9695879597F90895DF93CF93E5
:101E70001F930F93FF92EF92DF927B018C01689486
:101E800006C0DA2EEF010E94A010FE01E894A59191
:101E90002591359145915591A6F3EF010E942C0DA6
:101EA000FE019701A801DA9469F7DF90EF90FF90A7
:101EB0000F911F91CF91DF9108959F938F937F93FF
:101EC0006F93FF93EF939B01AC010E948D10EF91F4
:101ED000FF910E94360F2F913F914F915F910C948B
:101EE0008D100C9400110E942A11D8F3E894E0E0C0
:101EF000BB279F57F0F02AED3FE049EC06C0EE0FFC
:101F0000BB0F661F771F881F28F0B23A620773075E
:101F1000840728F0B25A620B730B840BE3959A95F1
:101F200072F7803830F49A95BB0F661F771F881FB1
:101F3000D2F790480C942A0FEF93E0FF07C0A2EA73
:101F40002AED3FE049EC5FEB0E942C0D0E9411113D
:101F50000F90039401FC9058E1EDF0E00C945D0FBC
:101F60000E94691008F48FEF08959B01AC0160E0B6
:101F700070E080E89FE30C94130E9F930E94730F10
:101F80000F9007FCEE5F0C949C0F19F416F40C9460
:101F900000110C94280F0E942A11B8F39923C9F359
:101FA000B6F39F57550B87FF0E9414100024A0E63C
:101FB00040EA900180585695979528F4805C660F0A
:101FC000771F881F20F026173707480730F4621B59
:101FD000730B840B202931294A2BA695179407945B
:101FE000202531254A2758F7660F771F881F20F0D4
:101FF00026173707480730F4620B730B840B200D4C
:10200000311D411DA09581F7B901842F9158880F8A
:102010009695879508959B01AC010C948D100E94B4
:102020006910880B990B089591505040660F771FE7
:10203000881FD2F7089581E090E0F8940C946D1118
:10204000FB01DC0101900D920020E1F708950E9450
:10205000691008F481E00895E89409C097FB3EF404
:1020600090958095709561957F4F8F4F9F4F9923E5
:10207000A9F0F92F96E9BB279395F6958795779563
:102080006795B795F111F8CFFAF4BB0F11F460FF23
:102090001BC06F5F7F4F8F4F9F4F16C0882311F07B
:1020A00096E911C0772321F09EE8872F762F05C08F
:1020B000662371F096E8862F70E060E02AF09A952A
:1020C000660F771F881FDAF7880F9695879597F91F
:1020D0000895990F0008550FAA0BE0E8FEEF1616B9
:1020E0001706E807F907C0F012161306E407F5070C
:1020F00098F0621B730B840B950B39F40A2661F080
:10210000232B242B252B21F408950A2609F4A14022
:10211000A6958FEF811D811D08950E94A0100C943B
:1021200011110E94031138F00E940A1120F095232A
:1021300011F00C94FA100C94001111240C94451118
:102140000E94221170F3959FC1F3950F50E0551F27
:10215000629FF001729FBB27F00DB11D639FAA27FC
:10216000F00DB11DAA1F649F6627B00DA11D661F4B
:10217000829F2227B00DA11D621F739FB00DA11D6C
:10218000621F839FA00D611D221F749F3327A00D26
:10219000611D231F849F600D211D822F762F6A2FC2
:1021A00011249F5750409AF0F1F088234AF0EE0F27
:1021B000FF1FBB1F661F771F881F91505040A9F754
:1021C0009E3F510580F00C94FA100C9445115F3F2E
:1021D000E4F3983ED4F3869577956795B795F79590
:1021E000E7959F5FC1F7FE2B880F911D9695879508
:1021F00097F9089597F99F6780E870E060E0089587
:102200009FEF80EC089500240A941616170618060E
:102210000906089500240A941216130614060506EA
:102220000895092E0394000C11F4882352F0BB0F7B
:1022300040F4BF2B11F460FF04C06F5F7F4F8F4FDE
:102240009F4F089557FD9058440F551F59F05F3F19
:1022500071F04795880F97FB991F61F09F3F79F0C8
:1022600087950895121613061406551FF2CF46954A
:10227000F1DF08C0161617061806991FF1CF8695CC
:102280007105610508940895E894BB2766277727B0
:10229000CB0197F90895A1E21A2EAA1BBB1BFD01E1
:1022A0000DC0AA1FBB1FEE1FFF1FA217B307E40735
:1022B000F50720F0A21BB30BE40BF50B661F771F8D
:1022C000881F991F1A9469F760957095809590956D
:0E22D0009B01AC01BD01CF010895F894FFCF32
:1022DE00416C6C5665680056656869636C653200C2
:1022EE0000000000004101BC040A01E800FC008867
:1022FE000153706565642020203A20006865616492
:10230E00696E67203A200076656849642020203A7D
:10231E0020006C617420202020203A20006C6F6E0B
:10232E0067202020203A20006C6174202020203A63
:10233E0020006C6F6E672020203A2000564D4450CE
:10234E00565F317C315F564D4450560D0A00564D46
:10235E004450455F31007C005F564D4450450D0A98
:10236E0000564D4450435F005F564D4450430D0A96
:10237E000053656E64696E672042534D007265634B
:10238E00656976696E672042534D006E616E006915
:0A239E006E66006F7666002E0000E8
:00000001FF
